:020000040800F2
:100000006012002099020008A7020008A902000857
:1000100000000000000000000000000000000000E0
:10002000000000000000000000000000AB0200081B
:100030000000000000000000AD020008217200086E
:10004000B1020008B1020008B1020008B1020008C4
:10005000B1020008B1020008B1020008B1020008B4
:10006000B1020008B1020008B1020008B1020008A4
:10007000B1020008B1020008B1020008B102000894
:10008000B1020008B1020008B1020008B102000884
:10009000B1020008B1020008B1020008B102000874
:1000A000B1020008B1020008B1020008B102000864
:1000B000B1020008B1020008B1020008000000000F
:1000C00000F002F800F0BDF80CA030C80838241881
:1000D0002D18671EA246AB4654465D46AC4201D180
:1000E00000F0AFF87E460F3EB6460FCC01263342F5
:1000F00000D0FB1A3343A246AB461847CC8D000014
:10010000EC8D0000103A02D378C878C1FAD85207B3
:1001100001D330C830C101D504680C6070470000BD
:100120000023002400250026103A01D378C1FBD813
:10013000520700D330C100D50B60704710B56E294F
:1001400002D100F0C7FB10BD702902D100F003FD01
:1001500010BD662902D107F0F1FD10BD652902D15D
:1001600007F0ECFD10BD672902D107F0E7FD10BDD7
:10017000612902D107F0EAFD10BD03681B0A01D313
:1001800080231943692902D100F06EFB10BD642958
:1001900002D100F069FB10BD752902D100F064FBAB
:1001A00010BD6F2902D100F081FC10BD782902D169
:1001B00000F0BEFC10BDE92902D100F01DFC10BD0D
:1001C000E42902D100F018FC10BDF52902D100F09D
:1001D00013FC10BDEF2902D100F074FC10BDF8290A
:1001E00002D100F0B3FC10BD0368DB0901D380230A
:1001F0001943632902D101F096F910BD732902D188
:1002000001F099F910BDE32902D101F0A3F910BD65
:10021000F32902D101F0A6F910BD002010BD1FB5D1
:1002200001F000FA04000020002107F019FD401C35
:1002300060600020002107F0FDFCE0601FBD10B5EC
:1002400010BD01F0C8F91146FFF7E9FF07F068FC9F
:1002500001F05CFD03B4FFF7F2FF03BC01F0A6FD63
:1002600070B505460C46164602E00FCC0FC5103E91
:10027000102EFAD2082E02D303CC03C5083E042E5A
:1002800007D301CC01C5361F03E021782970641C17
:100290006D1C761EF9D270BD094880F308880948A4
:1002A000804709480047FEE7FEE7FEE7FEE7FEE776
:1002B000FEE7000005480649064A074B7047000064
:1002C000601200202D720008C1000008600C0020A0
:1002D00060120020600E0020600E00200FB41CB5DC
:1002E0000C0007AA009007D04142A14202D3001996
:1002F000401E01E00020C043074B7B44694601904B
:10030000069800F000FB0021002C01D0009A11702B
:100310001CBC08BC04B018472F06000030B5441CB4
:1003200003E00178401C00290DD08107F9D10B4B67
:10033000DD0104C8D11A91432940FAD0001B0A06F6
:1003400003D0C01E30BD001B30BD0A0401D0801E8A
:1003500030BD0902FCD0401E30BD0000010101018A
:10036000F8B5042A2CD3830712D00B78491C0370EC
:10037000401C521E83070BD00B78491C0370401C95
:10038000521E830704D00B78491C0370401C521E78
:100390008B079B0F05D0C91ADF002023DE1B08C97D
:1003A0000AE0FFF75DFFF8BD1D4608C9FD401C4689
:1003B000B4402C4310C0121F042AF5D2F308C91A06
:1003C000521EF0D40B78491C0370401C521EEAD414
:1003D0000B78491C0370401C012AE4D40978017091
:1003E000F8BD01E004C0091F0429FBD28B0701D529
:1003F0000280801CC90700D00270704700290BD012
:10040000C30702D00270401C491E022904D383078F
:1004100002D50280801C891EE3E70022EEE700225D
:10042000DFE70000002203098B422CD3030A8B4232
:1004300011D300239C464EE003460B433CD40022DC
:1004400043088B4231D303098B421CD3030A8B42EE
:1004500001D394463FE0C3098B4201D3CB01C01ABC
:10046000524183098B4201D38B01C01A5241430987
:100470008B4201D34B01C01A524103098B4201D375
:100480000B01C01A5241C3088B4201D3CB00C01AE2
:10049000524183088B4201D38B00C01A524143085A
:1004A0008B4201D34B00C01A5241411A00D201467F
:1004B0005241104670475DE0CA0F00D04942031018
:1004C00000D3404253409C46002203098B422DD367
:1004D000030A8B4212D38901FC2212BA030A8B420F
:1004E0000CD3890192118B4208D3890192118B425E
:1004F00004D389013AD0921100E08909C3098B42E3
:1005000001D3CB01C01A524183098B4201D38B0125
:10051000C01A524143098B4201D34B01C01A5241C8
:1005200003098B4201D30B01C01A5241C3088B420D
:1005300001D3CB00C01A524183088B4201D38B00F8
:10054000C01A5241D9D243088B4201D34B00C01A82
:100550005241411A00D201465241104663465B1097
:1005600001D34042002B00D54942704763465B10DF
:1005700000D3404201B50549002802DC491C08406F
:1005800000E00846C046C04602BD00BFFFFFFF7F37
:100590007047704770470000F0B5FF252D04C6096D
:1005A000C209FF2704462E400137CB093E4348408D
:1005B0002A402B400746002A6BD0002B69D0AA4264
:1005C00067D0AB4265D0002800DA32460125ED0540
:1005D00029432C4309022002090AD21A4B0C7F241A
:1005E000E31A434C000A7C44E35C7D242404121982
:1005F00014145B00A218884201D3521C00E0400092
:1006000049420C465C4324115C43DB016415E3184A
:10061000040A5C43C502200D0C4644436419250AB4
:100620005D432303EC0C0D46654300030019EB18F2
:100630004C42A34201D35B18401CD4052018002B68
:1006400007D05B00C91804D3401C002901D1400821
:1006500040003F2189048A4209D3002A08DC1106A0
:10066000090F04D0032149074018C00FC007F0BD8F
:1006700001224100120689187F2252069142F6D2C9
:1006800005214907C84201D59010F0BDFF20C005E3
:10069000F0BD002F00DA32461648AA4207D2AB421C
:1006A00005D21902090E17D0F80FC007F0BDFF25BB
:1006B00063002D06AB42F9D84900A942F6D8AB42F7
:1006C00001D1A942F2D0A94201D1002101E061008B
:1006D0004908D0050843F0BD1102090EFBD0FF20E8
:1006E0000243D005F0BD0A460146104654E700001B
:1006F000727700000000C07F10B501469E24000202
:10070000CA15A307002A02D01843002A04DBA21A44
:10071000002A0CDDD04010BD1206120E01D140009F
:100720004008A21A03D4D04040420028F3DDFF2243
:1007300048001206904201D9002010BDC817C043DE
:10074000584010BD1F22030C02D10F2200041CD000
:10075000030E01D10002083A030F01D10001121F5C
:10076000830F01D18000921E002801DB4000521E41
:10077000D2055118021251181922904004D3491C75
:10078000002801D14908490008467047C10FC90730
:1007900000D04042012292071143D3E7012189078B
:1007A000D0E770B5044685690068C10601D53026DA
:1007B00000E02026C00707D070BD62683046A168FF
:1007C0009047206A401C20626D1EF6D570BD70B542
:1007D000044685690078C00707D170BD6268A168CA
:1007E00020209047206A401C20626D1EF6D570BD07
:1007F00009684A0501D540B27047C905FCD500B269
:10080000704709684A0501D5C0B27047C905FCD5D3
:1008100080B2704770B50C460546012A05D028788D
:10082000800600D5EA69002302E0012305E05B1C95
:10083000934202D2E05C0028F9D1A869E618C01AF8
:10084000A861286AC01828622846FFF7AAFF04E0BA
:100850006A682078A968641C9047B442F8D3284697
:10086000FFF7B5FF70BD0000F7B5002575291068CA
:10087000009914A611D0FFF7BBFF002802DA40420E
:1008800011A608E0009909688A0701D50FA602E0C1
:10089000490704D50EA6012501E0FFF7B2FF009F2E
:1008A0000024243704E000F082FE30313955641C06
:1008B0000028F8D12B4632462146009800F059FA1C
:1008C000FEBD0000000000002D0000002B00000015
:1008D0002000000011680268006A530501D5087005
:1008E00009E0D30501D5088005E0130602D5C2173B
:1008F00005C100E0086001207047000001694A1C42
:1009000002610878704700B58FB00291002105910F
:10091000054901937944039111460490684600F01B
:1009200027F90FB000BD0000E5FFFFFF0CC9083933
:100930009A4202D2531C0B6010707047F7B5044600
:10094000154686B02B487844002703C83E460090E1
:10095000019111E007986A467100415A02A800F01F
:1009600005FE411C07D02178890603D5E2693918B4
:1009700091420ED83F18761C2078800602D5E06997
:10098000B84206DDAE42E5DB07987100405A002808
:10099000E0D1A069C01BA0612046FFF702FF154807
:1009A00078445A3803C800900020019116E04100B5
:1009B0006A460798415A02A800F0D8FD0590401CED
:1009C0000AD0002505E0626802A8A168405D904752
:1009D0006D1C05988542F6D30498401CB0420490E3
:1009E000E5DB206AC01920622046FFF7F0FE09B05F
:1009F000F0BD000052740000F7B5D21D0025D208EA
:100A000015A6D200F52905CA11D0002A05DA002161
:100A10004042914111A60A4608E0009909688B07F7
:100A200001D50FA602E0490701D50EA60125114602
:100A3000009F0024243704E000F05EF930323A557C
:100A4000641C02460A43F7D12B46324621460098E1
:100A500000F08FF9FEBD0000000000002D00000036
:100A60002B0000002000000070B504460021243453
:100A700008E05507D2086D0F303565545D072A43ED
:100A8000DB08491C15461D43F3D10468002310A25E
:100A9000250708D520252C400C4304D0C469012328
:100AA0000CA2641EC46100F064F970BD10B5044668
:100AB00021461068FFF7A5FE002302462046FFF7F7
:100AC000D3FF10BDD21DD108C9000CC9CCE700006E
:100AD0000000000030000000F8B50F46018809054D
:100AE00002D5224C7C4402E0204C7C440E34054666
:100AF0000021243508E016071209360FA65D6E5452
:100B00001E0732431B09491C16461E43F3D12246D9
:100B100004780023240705D5702F06D0002901D0C2
:100B20000223113200F025F9F8BD01231032F9E754
:100B300070B504460D4621461068FFF762FE00239B
:100B4000024629462046FFF7C7FF70BDD21DD308D5
:100B5000DB000CCBC0E730B40368202412682343C9
:100B600003600823C36130BC0023B5E7BC720000FA
:100B7000F3B50446002081B020622046E168884732
:100B8000002872D0252802D06268A168ABE0594FD6
:100B900000267F442046E16888472028054608DB78
:100BA000312D06D2781920380078002801D006436C
:100BB000F0E7B00701D5042086430020E061074636
:100BC000A0612A2D0AD0284607F02CF8002827D04B
:100BD000B8000019303D0090856119E00298BA0014
:100BE000121902C8916102902046E1688847012FDE
:100BF000054617D1E06900281FDA202086431CE053
:100C000000980A218069484300994019303888616A
:100C10002046E1688847054607F004F80028EFD130
:100C2000012F0AD02E2D08D12046E16888470546BD
:100C3000202006437F1C022FC3DBA069002803DAB3
:100C40004042A06101200643F00701D010208643F6
:100C50006C2D0BD0682D09D04C2D3CD06A2D38D08E
:100C6000742D38D07A2D36D016E040E0E1682F465A
:100C700020468847B842054609D16C2F29D001206B
:100C80008002E168064320468847054604E06C2F51
:100C90001DD0FF2001300643002D28D028464138C2
:100CA000192803D80120C0020643203520462660BB
:100CB0002946029A1646FFF741FA002810D001286B
:100CC0000BD0F61DF008C0000830029055E7402018
:100CD000E1E78020D5E70020D3E7361D02964CE7F8
:100CE00062682846A1689047206A401C44E7206A51
:100CF000FEBD0000367200000B4670B50246890743
:100D00008008084319469D08141AA94125090807B7
:100D1000054308092C194841250A01060D43010A1B
:100D20002C194141200C0D0428430D0C00194D4194
:100D3000002140194D41C00869070843E908840FA4
:100D40008D002543840024184D4124196D41121B48
:100D5000AB4107E00925ED432C11521963410024F2
:100D6000401C61411C460A250026551BB441F1D2A6
:100D700070BDFFB504460D4681B024300090216857
:100D8000880604D51022E0699143216000E001202B
:100D9000A84201DD471B00E000270498A1697A19E9
:100DA0001018081AA0612078C00602D42046FFF768
:100DB000F8FC002608E003986268A168805D90470F
:100DC000206A401C761C206204988642F3DB20785F
:100DD000C0060AD52046FFF7E4FC06E06268A16879
:100DE00030209047206A401C206238467F1E002831
:100DF000F4DC07E000986268A168405D9047206AD3
:100E0000401C206228466D1E0028F3DC2046FFF7B8
:100E1000DEFC2078000602D5022005B0F0BD0120DE
:100E2000FBE70000FFB50C461E468FB003CA0890D2
:100E300009914F007D0D00D16D1E00210846002054
:100E4000C0460321099A89050840002A03DA820076
:100E5000801840080840800D01280A9002DD00201B
:100E6000C0430A90089807430DD0F048F04928186D
:100E700048430714189800281DD07542291E1DDD0F
:100E80000A9842421BE01898012802D00020302125
:100E900004E00020F24305E02154401CB042FBDB9B
:100EA00030460022189B002121540F998B600A6064
:100EB000486013B0F0BDBD1B6D1CDFE70A9A002926
:100EC00000DA69420BA800F0F5FB0BAB07CB03ABD4
:100ED00007C30899099800F059FC6B4607C30146FF
:100EE000D4480918002D00910BDDD24903980A9AC5
:100EF00049424018002303A90390684600F0B6FE5B
:100F000008E003990A9A0023081803A90390684689
:100F100000F056FE6B4607C30004000C03D000200F
:100F2000C043410800E01046189A002A03D000226E
:100F3000009215461EE0751E05D4FFF7DDFE303227
:100F400062556D1EF9D501220843079602D0002292
:100F50007F1C04E02078302801D100227F1E002A67
:100F6000069787D01EE0112D07DAFFF7C5FE303255
:100F700062556D1C02460A43F5D1084303D0009820
:100F8000002819D00EE00021681E05E0235C625C99
:100F900063542254401E491C8142F7DBA81B401EAB
:100FA00007950690079A18990020A0540F98079B60
:100FB000069A81600CC07CE711260020189059E742
:100FC000D21DF0B50D460446D10893B0C90003C93F
:100FD0000C900D9106F010FE02460D98C00F01D046
:100FE0002D2007E02068810701D52B2002E0400773
:100FF000C00F4001032A0F9001D0072A05DB0346EA
:101000002946204600F012FB0EE12078800601D52B
:10101000E76900E006272846652D04D0662814D02D
:10102000672D69D12DE00020112F009001DB1123E5
:1010300000E07B1C0CAA03A910A8FFF7F3FE11998E
:10104000002610987D1C0E9142E001203B460CAA20
:10105000C0070B900120009003A910A8FFF7E2FE43
:10106000119D12981099002600280E9501D1781C28
:101070000D18781B02D446427D1C761EE81B00909A
:101080003AE0012F00DA01270020112F009001DD46
:10109000112300E03B460CAA03A910A8FFF7C2FEEB
:1010A00011993D46109800260E91217809070BD41E
:1010B0000E99A94200DA0D4603A9012D04DD4A1953
:1010C000203AD27F302A06D0B84201DA011D04DA74
:1010D000012100910FE06D1EEFE7002802DC861968
:1010E0002D1A03E0411CA94200DD0D46801B401C67
:1010F00000900120C0070B902078000705D40098CD
:10110000A84202DB0020C043009069460020C8725C
:101110000B98012102AF0337C907884225D002206E
:1011200010902B2011900B9800280BDA40420B9066
:101130002D20119006E00B9800F039FA30317F1E17
:101140000B9039701099481E00291090F3DC0B9811
:101150000028F0D111987F1E38702088000501D535
:10116000452000E065207F1E387001A8C01BC01D0F
:101170000B900F98002800D0012041190098C0174B
:1011800009180B980818A169081A401EA061207858
:10119000C00602D42046FFF704FB0F98002805D0B4
:1011A0006268A1689047206A401C20622078C006CF
:1011B00025D52046FFF7F5FA21E0002E07DB0E9833
:1011C000B04204DD03A86268805DA16802E0626845
:1011D000A16830209047206A761C401C206200984D
:1011E000401E002800900AD100F01CFAC068626816
:1011F0000168405CA1689047206A401C2062284634
:101200006D1E0028D9DC07E062683878A1687F1C71
:101210009047206A401C20620B99481E00290B90C1
:10122000F2DC2046FFF7D3FA032042E601FCFFFF81
:10123000104D0000E1DFFFFFD21DF0B504460D4662
:10124000D0088DB0C000466807683146384606F0C1
:10125000D3FC0246F00F01D02D2307E02068810760
:1012600001D52B2302E04007C00F43016846002B45
:10127000037001D0012000E00020032A0A9001D071
:10128000072A04DB2946204600F0D0F92DE120781A
:10129000800601D40D2500E0E5697000400D0D2D9C
:1012A00001904BDA300D00210B9008460020C0461B
:1012B000032189050840002E05DA82008018C20F3C
:1012C0001018401008408015012801DD0020C0439F
:1012D000A9000023182906D39C460A460123183A80
:1012E0001B07D34003E001221205CA4094460C318B
:1012F000202902D33A46203900E032468A400028AD
:1013000002DD002A06D119E0002817D10121C90702
:101310008A4213D3194663467F185E41002806D1DE
:101320000120C007824202D1084687439E430B98A2
:10133000310D814202D00198401C019020880005A7
:1013400002D57149794402E06F49794419396B46F5
:101350000A9830221A540A980A7C401C1A54401CDD
:101360000A900198002801DC302000E0312018723A
:10137000019A0120002A02D0644BD21804E07200C6
:101380003A4302D0614A521C0192002D02DC2278BD
:10139000120703D56A462E2050720220002286468C
:1013A00094460CE032033601120F6D1E8B5C02AACC
:1013B00013546246521C401C9446052A01DA002D43
:1013C000F0DC002202AE08E03B0F3F01CB5C521C78
:1013D0006D1E3354401C082A01DA002DF4DC23680A
:1013E0009A0601D511E0401E704504DD3218203AFE
:1013F000D27F302AF7D0002807DD3218203AD27F7A
:101400002E2A02D11A0700D4401E002D03DD3E22F1
:101410003254401C6D1E497C31540199401C0029F6
:1014200006DA2D21471C315401984042019003E017
:101430002B21471C315401987D21C900884206DBCD
:10144000FEF7FAFF3030F0557F1C019101E064286F
:1014500008DB01986421FEF7EFFF3030F0557F1C68
:10146000019101E00A2806DB01980A21FEF7E4FF5A
:101470003030F0557F1C01980A21FEF7DDFF303136
:10148000F1550A98A1697F1C7A191018081AA061F1
:101490002078C00602D42046FFF783F9216A6E4601
:1014A0000A980818206204E062683078A168761C07
:1014B00090470A98401E0A90401CF5D12078C0063B
:1014C00002D52046FFF76DF902AE09E03078761CB0
:1014D0003E280DD06268A1689047206A401C2062B7
:1014E0007F1EF3D22046FFF772F90DB00320F0BD46
:1014F000206A4019206203E06268A16830209047AA
:101500006D1EEDD3F8E70000A86A000001FCFFFFA4
:1015100010B54369002B02D0C046C04601E0FFF77A
:1015200079F9012010BD1278014624310A70002299
:101530004A700122ECE711680022D243E8E710B5B7
:101540004369002B02D0C046C04601E0FFF7F6F920
:10155000012010BD12880146243182840022C284F9
:101560000122ECE711680022D243E8E7F8B51646FD
:101570000C46054600F04EF80368FF200230C05CC0
:10158000012807D0FF2C0FD8185D00280CD00120AF
:101590002C70F8BDFF333246214608331868C7184F
:1015A00028460023B847F8BD0020C043F8BD0146D7
:1015B0008008081A02091018020A1018020C1018E4
:1015C000C008820012185200891A01E0401C0A3932
:1015D0000A29FBD27047754600F0A0FBAE46050015
:1015E00069465346C008C000854618B020B5FEF7CE
:1015F00061FE60BCB64600260027C0C5C0C5C0C598
:10160000C0C5C0C5C0C5C0C5C0C5403D490849002A
:101610008D46704710B500F005F8001D10BD00BFE5
:10162000416600000048704720010020F8B51F46C1
:10163000044601230068DB02032601461840072AFE
:1016400005DB002801D017A506E017A504E0002857
:1016500001D016A500E016A5102081432160A069E5
:10166000C01E002FA06101D0401EA0612046FFF7E0
:1016700098F8002F09D038466268A1689047206A20
:10168000401C2062C01C206206E0206AFAE7626803
:101690002878A1686D1C9047761EF8D22046FFF787
:1016A00096F8F8BD4E414E006E616E00494E460000
:1016B000696E6600F7B516468AB0334878446C46C2
:1016C00003467C33C06F5A689B680DC42E4878442B
:1016D000763003AC0DC80DC43720C001081837217F
:1016E0001B30FEF7A9FE05460C46803D1B3C02D58B
:1016F0006442012000E000200027099010E0E0078C
:101700000CD00C2020497843794432464C3941189A
:101710006846012300F054FA6B4607C364107F1C2F
:10172000002CECD1184F7F442E3F16E0E80712D072
:101730002001C0190EC80691089307920068F04274
:1017400001D1981908903246012306A903A800F098
:1017500037FA03AB07C36D10641C002DE6D109985E
:10176000002806D032466946012303A800F07EFA1D
:1017700005E001233246694603A800F021FA0A9BDE
:1017800007C30DB0F0BD00004467000003464000F1
:101790000A4610B5400D0BD00121C9070F24A40241
:1017A00000191C0364082143540D2143D20207E0B1
:1017B00000210120F2E7D40F490021435200401ECE
:1017C0000029F8DADB0FDB07184310BDFFB50D4623
:1017D000144685B04868516806F0F6F9009101900A
:1017E000A868A16806F0F0F902910390A868616802
:1017F00006F0EAF9029A12188242029201D20120FE
:1018000000E00020019A0B18D2180028019202D0A3
:101810008A4202D903E08A4201D2012000E000207E
:101820000099081800906868A16806F0CDF9029A3E
:1018300012188242029201D2012000E00020019A97
:101840000B18D2180028019202D08A4202D903E074
:101850008A4201D2012000E000200099081800907F
:101860002868216840004900400849084018FA49A2
:10187000471814E001994000C90F084300900198EF
:1018800002994000C90F0843019002980399400053
:10189000C90F08430290039840007F1E03900098F0
:1018A0000028E7DA0898002801D0EC4E00E0002676
:1018B000B74201DA012000E00020002804902AD07D
:1018C000F71BF806C00E15D0029B2021091A039AB7
:1018D0008B401A430392029A019BC2408B401A43E9
:1018E0000292019A009BC2408B4000991A430192D8
:1018F000C14000917B110DD06F460320C11A03D562
:1019000000218200B95003E08A008100BA587A5061
:10191000401EF3D5374603980299002800D00120D5
:10192000014308980291002808460CD0002800D0F6
:1019300001200199019A490508430121D20AC902EF
:10194000D202019200E001210E9B0122D207012B5D
:1019500002D0002B03D013E0002807D120E09042F2
:1019600004D890420CD1019B0B4209D0019B59181D
:10197000019105D10099491C009101D17F1C009271
:1019800000280DD0102108460020C04604980028E9
:1019900006D00F98002803D0082108460020C04632
:1019A00028682168019B009A4840C10F0598C90723
:1019B00039430EC009B0F0BDFFB587B0099A089849
:1019C0000899536892684068896896460022039394
:1019D00017469446089A12685300099A5B081268E1
:1019E000520052089A1A9E4BD4180A9A002A01D023
:1019F000352200E04022069200220123154604927F
:101A0000DB07059324E0002D05D175460346039EB0
:101A10004D1BB34109D375466646039B491B049D84
:101A20009841059B7519AC465F4163463B4308D01E
:101A3000059B049EDD0776082E435B0804960593FC
:101A400001E0521E641EC50FED0749184041521CAB
:101A5000069B9A42D7DB002D04D17546039A6B1A78
:101A6000824101D203200CE0039A0B466B404240B6
:101A7000134303D0014303D0012002E0022000E021
:101A80000020614601910021009702910A990029E6
:101A900005D0614640020143704B019102E080078E
:101AA000002302909C4201DA012000E000200700A0
:101AB0003AD01A1BD006C00E15D0029D2021019CE1
:101AC000091AC5408C402543029C8C4000D001245B
:101AD0002543019C0295009DC4408D4000992C43F4
:101AE0000194C140009154111DD06D460221002285
:101AF00002290CD10320001B07E0002804DB86002C
:101B0000AE59002E00D00122401C0328F5DB081B33
:101B100002D588002A5004E08000285810438A002B
:101B2000A850491EE3D51C460A98002802980CD0FC
:101B3000002800D001200199019A4905084301219C
:101B4000D20AC902D202019200E00121109B0122B7
:101B5000D207012B02D0002B03D013E0002807D1BD
:101B60001FE0904204D890420CD1019B0B4209D057
:101B7000019B5918019105D10099491C009101D18F
:101B8000641C009200280CD0102108460020C0469A
:101B9000002F06D01198002803D008210846002005
:101BA000C04608980999019A009B00680968484056
:101BB000C10F0798C907214382600AC00BB0F0BD6E
:101BC00000B585B0019300920A460146002302A8A1
:101BD000FFF7FCFD02A807C805B000BDFFB50A4627
:101BE0001F4685B00799019301230091014602A881
:101BF000FFF7ECFD02990398049ECA0F4900D20733
:101C000000920F22490892028C1A0021002800DB62
:101C10000C46450013486D08844214D3079A002AE5
:101C200004DA441E0026104DF64302E004460D4639
:101C30000E46102108460020C046002F03D0042184
:101C400008460020C0462005E90A084300990843D9
:101C50006905F20A1143ADE602C0FFFF013C000036
:101C6000FF3F0000FF070000FFFFFF7F00B585B0CA
:101C7000019300920A460146002302A8FFF79CFE4A
:101C800002A807C8A8E7FFB50A461F4685B007990E
:101C9000019301230091014602A8FFF78DFE0299EE
:101CA0000398049ECA0F4900D20700920F224908E8
:101CB00092028C1A0021002800DB0C4645001148D6
:101CC0006D08844214D3079A002A04DA441E0026C1
:101CD0000D4DF64302E004460D460E46102108461F
:101CE0000020C046002F03D0042108460020C04633
:101CF0002005E90A0843009908436905F20A1143DF
:101D000058E60000FF070000FFFFFF7F10B5044604
:101D1000C046C0462046FEF79DFA10BD00487047F9
:101D200000010020024670B50A4392072AD11E4DD9
:101D3000EE0104C808C9541B9443344017D0D0B2F4
:101D4000D9B2401A2106014310D190B299B2401A7B
:101D5000210401430AD110021902000A090A401A9B
:101D60002102014302D1100E190E401A70BD9A4291
:101D7000DFD010BA19BA884201D9012070BD002005
:101D8000C04370BD02780B78401C491C002A09D062
:101D90009A4207D102780B78401C491C002A01D0D6
:101DA0009A42EFD0D01A70BD0101010101491820FB
:101DB000ABBEFEE726000200704785B0039002A884
:101DC000017001A80270694600200870FFE76846AC
:101DD000007802A90978884213DAFFE70398694678
:101DE0000978405C01A90978884204DDFFE704A96D
:101DF0000020087009E0FFE70098401C6946087061
:101E0000E5E704A901200870FFE704A8007805B001
:101E1000704780B58AB00990089107920693089898
:101E2000029001A9002008700490FFE7049803289D
:101E300047D8FFE700200590FFE705983F2835D8F1
:101E4000FFE709990598401C48430499491CFEF78F
:101E5000E9FA039003980899884205D9FFE70398A7
:101E60000899401A009004E008980399401A0090DD
:101E7000FFE70098039002980399884209D9FFE789
:101E800003980290059807990870049806990870BD
:101E9000FFE70298002804D1FFE701A9012008709C
:101EA00004E0FFE70598401C0590C6E701A800780C
:101EB000002801D0FFE704E0FFE70498401C0490ED
:101EC000B4E702980AB080BD81B0009001B07047BD
:101ED00082B00190009100980199886102B070472A
:101EE00082B00190009100980199086102B070479A
:101EF00080B590B00F900EA801700F98408901280E
:101F000005DBFFE70F994889401E4881FFE70F98DE
:101F1000007A0190042800D95AE10198810001A0BB
:101F200040588746391F0008A71F000849200008AD
:101F3000A52000089B2100080EA80078C0070028F3
:101F40000CD0FFE70F990DA8012202700F9A12889A
:101F50004280408848810D98088123E00F980079DD
:101F6000C00700281DD0FFE70F98007BC00700289E
:101F700015D0FFE70F98408900280ED1FFE70F9991
:101F8000002008730F980069002804D0FFE70F981D
:101F90000069804700E0FFE71BE1FFE700E0FFE7A3
:101FA000FFE7FFE715E10EA80078C00700281CD066
:101FB000FFE70F984089002815D1FFE70F98C06907
:101FC000002804D0FFE70F98C0698047FFE70F990A
:101FD0000CA8022202700F9A5288428040884881E1
:101FE0000C98088100E0FFE72DE00F980079C0070A
:101FF00000281DD0FFE70F98007BC00700280CD0F9
:10200000FFE70F990BA8002202700F9A52894280B5
:10201000408848810B98088109E00F990AA800229E
:1020200002704280408848810A980881FFE709E0F1
:102030000F9909A8002202704280408848810998BF
:102040000881FFE7FFE7C4E00EA80078C00700287A
:102050001BD0FFE70F984089002814D1FFE70F98A5
:102060008069002804D0FFE70F9880698047FFE768
:102070000F9908A8042202700022428040884881FB
:102080000898088100E0FFE70BE00F9907A80322FA
:1020900002700F9A12884280408848810798088110
:1020A000FFE796E00EA80078C007002868D1FFE798
:1020B0000F984089002861D1FFE70F980079C00789
:1020C00000283ED0FFE70F98007BC00700281FD0F4
:1020D000FFE70F99002008730F98006A002804D0CA
:1020E000FFE70F98006A8047FFE70F9840690028D4
:1020F00004D0FFE70F9840698047FFE70F9906A8D3
:10210000002202704280408848810698088117E0CA
:102110000F99012008730F98006A002804D0FFE788
:102120000F98006A8047FFE70F9905A80022027008
:102130000F9AD28842804088488105980881FFE73D
:102140001BE00F98006A002804D0FFE70F98006A90
:102150008047FFE70F980069002804D0FFE70F9839
:1021600000698047FFE70F9904A8002202704280AF
:102170004088488104980881FFE700E0FFE70BE012
:102180000F9903A8022202700F9A52884280408859
:10219000488103980881FFE71BE00EA80078C0077C
:1021A000002813D1FFE70F98006A002804D0FFE74A
:1021B0000F98006A8047FFE70F9902A8002202707B
:1021C0004280408848810298088100E0FFE700E0F3
:1021D000FFE710B080BD81B000900099002008702A
:1021E00001B0704780B584B00390029103980078E5
:1021F0000190002804D0FFE7019801282AD04AE086
:1022000003984088012805DBFFE703994888401EB2
:1022100048801EE003980079C007002807D0FFE738
:102220000399C888488003990120087010E003983A
:10223000807BC00700280AD0FFE70399081D0E31F4
:102240000A22FEF78DF8039900208873FFE7FFE765
:10225000FFE721E003984088012805DBFFE70399A9
:102260004888401E488015E003980A2140560228FD
:1022700008DBFFE70399887A401E88720399088972
:10228000488003E0039900200871FFE703990020CC
:102290000870FFE700E0FFE7039880890299488013
:1022A000039800780299087004B080BDB0B585B07D
:1022B00004460998049403AC218002A90A7001A97C
:1022C0000B80694608800499012088730199049A5B
:1022D00011820099049A51820399049AD182029939
:1022E000049A117505B0B0BD80B500F02FF880BD1F
:1022F00080B500F003F800F03DF880BD80B584B0F3
:1023000003A8029000F084F90D204004012104F09C
:1023100045FC029908200880032000908870102056
:102320000190C870074800F0B1F8009A019802992E
:1023300020230B808A70C870034800F0A7F804B00F
:1023400080BDC046000C00480008004880B582B03F
:102350000121880404F022FC164800900921002283
:10236000019200F01BF90098019A082100F016F97B
:1023700002B080BD80B584B001210091880404F0D2
:102380000DFC0098400203A9029108800320887088
:102390001820C8700748019000F078F8009A01985A
:1023A000029912020A800422CA7000F06FF804B089
:1023B00080BDC04600040048704781B0694608806F
:1023C00001B070471A4800687047C04683B0029059
:1023D000174900200860029AD200164B1A60164A6C
:1023E000106005200860FFE7114800680190FFE7D2
:1023F000002001A90978C9070029009008D0FFE74B
:1024000001A8807801210840414248410090FFE73F
:102410000098C0070028E7D1FFE7054908680122B6
:102420009043086004490020086003B07047C0462C
:1024300010E000E014E000E018E000E081B000905F
:1024400001B0704780B588B00790012102918803E0
:1024500004F0D2FB03A8009005F07BF900990798DF
:102460000390302088800020C8800881888118204F
:1024700048810548019005F00FF90198029905F08F
:10248000EBF808B080BDC0460038014087B0069028
:1024900005910598C0780F21084000900598C078F4
:1024A000C006002806D5FFE7059881780098084304
:1024B0000090FFE70698019003A900200870FFE74D
:1024C00003A80078072820DCFFE70398800004A910
:1024D00008700598008803A90978C840C00700283B
:1024E0000DD0FFE70198006804A90A780F219140F8
:1024F000884300999140084301990860FFE7FFE78E
:102500000398401C03A90870DAE70698001D0190A3
:1025100005984078029003A900200870FFE703A8FF
:10252000007807281FDCFFE70398800004A90870E3
:10253000029803A90978C840C00700280DD0FFE71A
:102540000198006804A90A780F21914088430099F6
:102550009140084301990860FFE7FFE70398401C9A
:1025600003A90870DBE70598C078282807D1FFE7A2
:102570000598028806994869104348610CE005985F
:10258000C078482807D1FFE70598028806990869AE
:1025900010430861FFE7FFE707B0704786B005907A
:1025A00004A8017003A90A7001784907C90E02AA9C
:1025B00011700078072804DCFFE7059820300090B0
:1025C00003E0059824300090FFE7009801900199FE
:1025D000086802AA13780F229A40904303AA12783F
:1025E0009A401043086006B0704782B00190684678
:1025F000018000880199486102B0704782B0019063
:102600006846018000880199086102B070470000A7
:1026100081B00090009905480880009901208870D9
:1026200000990420C87001B07047C046FFFF000049
:1026300083B0029001A801806846027000780028EB
:1026400005D0FFE701A800880299086104E001A80D
:10265000008802994861FFE703B0704710B588B061
:10266000079006910592069880880490079804992F
:10267000884210D2FFE70698417A01242046884319
:1026800002AB187007980499059A1B78234000F054
:1026900017F8039011E00698407A0124204001AB1E
:1026A000187007980499401A0699C988059A1B78EA
:1026B000234000F005F80390FFE7039808B010BD31
:1026C00010B588B007900691059204A80090037099
:1026D0000799059848430699FDF7A4FE014600981E
:1026E00003910078C007002807D0FFE70398404314
:1026F0000599FDF797FE02900AE005980399401AA4
:102700000190019840430599FDF78CFE0290FFE788
:10271000029808B010BD80B588B007900691059268
:102720000698808804900698C088039006980089CF
:10273000029006984089019007980499884208D22F
:10274000FFE707980499059A0123FFF7B9FF009066
:102750002FE007980499039A8918884203D2FFE76B
:102760000598009024E007980499039A8918019A23
:10277000891888420CD2FFE707980499401A0399F8
:10278000401A0199059A0023FFF79AFF00900EE086
:1027900007980499039A8918019A8918029A891846
:1027A000884203D2FFE700200090FFE7FFE7FFE742
:1027B000FFE7009808B080BD044800687047C04635
:1027C00002490868401C08607047C046400A002063
:1027D00082B000900098002804D1FFE701A90420EE
:1027E000087024E00098006800280AD0FFE70098ED
:1027F0004068002805D0FFE700988068002804D1D1
:10280000FFE701A90420087011E00098007B01286F
:1028100005DBFFE70098007B062804DBFFE701A942
:102820000620087003E001A900200870FFE701A856
:10283000007802B0704780B58AB008900791089878
:10284000002805D0FFE708984068002804D1FFE77A
:1028500009A9042008705AE00898807CC007002865
:1028600004D1FFE709A90020087050E008984068EB
:1028700006900898C068002808D1FFE707980899D3
:10288000C8600698007A08994874FFE70798089985
:10289000C968401A05900698C1888088484304900A
:1028A00005980499FDF7BEFD039103980699C98820
:1028B000FDF7B8FD0290069800680299890040581B
:1028C00001900898019900F0E4FA06980821405612
:1028D000401C002817D0FFE70598049A06990823A2
:1028E000C956514388420ED3FFE7089900208874E7
:1028F000089801F068F908980B2100F028F9089968
:1029000001200874FFE709A900200870FFE709A863
:1029100000780AB080BD80B586B004900391049819
:10292000002805D0FFE704984068002804D1FFE79D
:1029300005A9042008704CE00498406802900498AF
:10294000807CC007002804D1FFE705A9002008709B
:102950003FE00498C068002808D1FFE70398049975
:10296000C8600298807904994874FFE70398049935
:10297000C968401A0190019802998988884212D347
:10298000FFE703980499C8600498029906228956C3
:10299000002200F07FFD0B2804D1FFE704990120FD
:1029A0000874FFE711E00198029989884908884274
:1029B00004D3FFE7049801F006F905E004980299B2
:1029C000096800F066FAFFE7FFE705A90020087034
:1029D000FFE705A8007806B080BDD0B502AF90B083
:1029E0006E46F21D0932B2600246B06882624162F0
:1029F000806A002806D0FFE7B068806A4068002837
:102A000005D1FFE7F11D35310420087098E0B0686A
:102A1000806A807CC007002805D1FFE7F11D3531B1
:102A2000002008708CE0B068816A49680162806AA1
:102A3000C068002809D1FFE7B168486A8A6AD06097
:102A4000086A007A896A4874FFE7B168486A8A6A46
:102A5000D268801AC8610A6A9088D2888018886112
:102A6000C8698969FDF7DEFCB0684161806A006869
:102A7000007B00F043FCB168086108696A46CA60DF
:102A80004200D31D072293436A46D21A72609546CC
:102A9000886000204860FFE7B1684868096988429B
:102AA0001ED2FFE7B068016A09684268895C806AE3
:102AB0000068C0894843FF21FDF7B4FCB26810608C
:102AC0005069116A1268FFF7C9FDB26871685268EF
:102AD00052008852FFE7B1684868401C4860DBE755
:102AE000B0687168806A00F00FFAB168C8698969D6
:102AF00088421DD3FFE7B168486A8A6AD060086AD5
:102B0000427A012318469043F21D05321070886AFC
:102B1000096A0824095712781A4000F0BBFC0B28F8
:102B200005D1FFE7B068816A01200874FFE7FFE77D
:102B3000B068F21D353200211170C0688546FFE78C
:102B4000F01D35300078FC1F013CA546D0BD80B596
:102B500082B001906846017001988068002808D012
:102B6000FFE7019A9368107C694609785268984794
:102B7000FFE702B080BD0000D0B502AF8EB06E4658
:102B8000F21D15327261024670698261416180698D
:102B90000068007B00F0B2FB01467069F21D25322F
:102BA000117013786946C160DC1D07218C436946AA
:102BB000091BB1618D4683608069127800F0D7FBF4
:102BC000F11D193101200870F11D15310020087028
:102BD000FFE7F01D15300078F11D25310978884296
:102BE00050DAFFE77169B069F21D15321278805C26
:102BF0004969895C884221D0FFE7F11D1931002025
:102C00000870FFE77169B069F21D15321378C05C76
:102C10004969C95C82B00191009039483061374AF6
:102C20006421FDF75BFB02B03069FDF777FB0146DD
:102C3000306904F0A3FDFFE7FFE723E0FFE77169D8
:102C4000B069F21D15321378C05C4969C95C82B065
:102C5000019100902848F060284A6421FDF73EFB6E
:102C600002B0F068FDF75AFB0146F06804F086FDFB
:102C7000FFE7FFE7FFE770690068401CF11D1531B1
:102C80000870A6E7F01D19300078C007002811D0A1
:102C9000FFE7FFE71D48B0601D4A6421FDF71EFBFA
:102CA000B068FDF73BFB0146B06804F067FDFFE745
:102CB000FFE715E0FFE713487060134A6421FDF752
:102CC0000DFB7068FDF72AFB0146706804F056FDA5
:102CD000FFE7FFE771698869496900F0DAF8FFE703
:102CE0007069C168F01D193000788D4601210840D7
:102CF000FC1F013CA546D0BD0C0200208E800008C0
:102D0000A8010020D40200201382000870020020D5
:102D1000EE81000810B592B010900F911098002825
:102D200005D0FFE710984068002804D1FFE711A9FB
:102D300004200870A9E01098807CC007002804D106
:102D4000FFE711A9002008709FE0109840680E90DE
:102D50001098C068002808D1FFE70F981099C86044
:102D60000E98807A10994874FFE70F981099C968F7
:102D7000401A0D900E99C888098940180C90109837
:102D800011214056401C002806D0FFE71098112161
:102D90004056022806DBFFE70C990E9880884843CE
:102DA000029007E00C9A0E9988885043C988401A0F
:102DB0000290FFE702980B900D980C99FDF732FBFB
:102DC0000A910D980C99FDF72DFB0E998988FDF756
:102DD00029FB09910998401C0E998988FDF722FB6F
:102DE00008910E98006809998900405807900E983C
:102DF000006808998900405806900A980E99098938
:102E0000884210D2FFE71098079900F042F8014677
:102E100005A801700078002804D0FFE7059811A9E3
:102E2000087032E00EE00A980E990989401A049061
:102E3000109804990E9AD288079B069C009400F083
:102E4000D1FBFFE70D980B9988421AD3FFE70F9843
:102E50001099C8600E98C17A01231846884303AAC6
:102E6000107010980E990A24095712781A4000F031
:102E700011FB0B2804D1FFE7109901200874FFE72C
:102E8000FFE711A900200870FFE711A8007812B031
:102E900010BD80B586B0049003910498002804D03A
:102EA000FFE70398002804D1FFE705A90420087074
:102EB00026E0049800680068804702A9009100207D
:102EC000087004980068007B00F018FA01900498DC
:102ED0000399019A03F098FF014600980170007869
:102EE000002809D0FFE7049802A90978FFF72FFE10
:102EF000049901200874FFE7029805A90870FFE70C
:102F000005A8007806B080BD80B586B00490039116
:102F10000498002804D0FFE70398002804D1FFE7B5
:102F200005A90420087026E002A90091002008707D
:102F3000049800680068804704980068007B00F0EF
:102F4000DDF9019004980399019A03F0C5FF014649
:102F5000009801700078002809D0FFE7049802A9C2
:102F60000978FFF7F4FD049901200874FFE702983F
:102F700005A90870FFE705A8007806B080BDD0B5A8
:102F800002AF8CB06E46F21D01327260024670686C
:102F90000262C161006A002806D0FFE77068006A1B
:102FA0004068002805D1FFE7F11D25310420087095
:102FB00087E07068006A807CC007002805D1FFE7C1
:102FC000F11D2531002008707BE07068016A4968B6
:102FD0008161006AC068002809D1FFE77168C8698B
:102FE0000A6AD06088698079096A4874FFE7706866
:102FF000C169026AD268891A4161006A0068007B6F
:1030000000F07CF97168086108696A46CA6042008C
:10301000D31D072293436A46D21A326095468860D0
:1030200000204860FFE7716848680969884220D23B
:10303000FFE77068816909684268895C006A006816
:10304000C0894843FF21FDF7EDF9726810605069AF
:103050009169898812680123FFF732FB7268316831
:10306000526852008852FFE771684868401C486007
:10307000D9E770683168006AFFF746FF71684869F0
:1030800089698988884214D3FFE77168C8690A6A28
:10309000D060086A896906228956002200F0FAF990
:1030A0000B2805D1FFE77068016A01200874FFE76B
:1030B000FFE77068F21D253200211170C068854657
:1030C000FFE7F01D25300078FC1F013CA546D0BD70
:1030D000D0B502AF8CB06E46F21D0132726002466E
:1030E00070680262C161006A002806D0FFE770685C
:1030F000006A4068002805D1FFE7F11D2531042052
:10310000087087E07068006A807CC007002805D1DD
:10311000FFE7F11D2531002008707BE07068016A2F
:1031200049688161006AC068002809D1FFE77168B9
:10313000C8690A6AD06088698079096A4874FFE7BB
:103140007068C169026AD268891A4161006A0068C0
:10315000007B00F0D3F87168086108696A46CA60AC
:103160004200D31D072293436A46D21A3260954625
:10317000886000204860FFE77168486809698842F4
:1031800020D2FFE77068816909684268895C006A3B
:103190000068C0894843FF21FDF744F97268106058
:1031A00050699169898812680023FFF789FA72686B
:1031B0003168526852008852FFE771684868401CC5
:1031C0004860D9E770683168006AFFF79DFE716852
:1031D000486989698988884214D3FFE77168C8699A
:1031E0000A6AD060086A896906228956012200F0BD
:1031F00051F90B2805D1FFE77068016A01200874B6
:10320000FFE7FFE77068F21D253200211170C068EA
:103210008546FFE7F01D25300078FC1F013CA546E0
:10322000D0BD80B586B0049003910498002805D0E5
:10323000FFE704984068002804D1FFE705A90420AF
:10324000087057E00498406802900498807CC0079A
:10325000002804D1FFE705A9002008704AE004987F
:10326000C068002808D1FFE703980499C860029855
:10327000007A04994874FFE703980499C968401AD2
:10328000019002998888C988401869460880019889
:1032900002998988884206D2FFE704980299096852
:1032A000FFF7F7FD0AE0019869460988884204D2D1
:1032B000FFE7049800F087FCFFE7FFE70198694605
:1032C0000988884212D3FFE703980499C8600498DC
:1032D000029908228956002200F0DCF80B2804D15C
:1032E000FFE7049901200874FFE7FFE705A9002024
:1032F0000870FFE705A8007806B080BD83B00146DE
:1033000001A8017000780090062828D80098810054
:1033100001A040588746C0465D3300083533000899
:103320003D330008453300084D330008553300088D
:103330005D33000802A90320087014E002A90320ED
:10334000087010E002A9042008700CE002A9012016
:10335000087008E002A90220087004E0FFE702A953
:1033600000200870FFE702A8007803B0704780B51E
:1033700084B002900191684602700298002804D03F
:10338000FFE70198002804D1FFE703A90420087093
:103390000AE00198029913316A461278FCF7E0FFBF
:1033A00003A900200870FFE703A8007804B080BDDF
:1033B00010B58CB00A9009A80170089207A8037094
:1033C0000A98002809D0FFE70898002805D0FFE7F1
:1033D00007A80078002804D1FFE70BA90420087093
:1033E00054E009A80078009002280AD0FFE700986E
:1033F000C01E07280BD3FFE700980A3802281FD306
:103400003CE0089807A90978FDF707F83AE00A9820
:10341000069006980068059000200490FFE7049845
:1034200007A9097888420AD2FFE70598049A805CC8
:1034300008998854FFE70498401C0490EFE721E0C6
:103440000A980390039800680068029001A9002080
:103450000880FFE701A8008807A9097888420CDAEC
:10346000FFE7029801A90A88805C08998854FFE761
:103470000198401C01A90880ECE703E00BA9052096
:10348000087003E00BA900200870FFE70BA8007884
:103490000CB010BD80B584B00290019168460270F6
:1034A0000198401C002807D0FFE70299487C401E85
:1034B0004874FFE7FFE7FFE7029811214056002814
:1034C00015D1FFE702990020887402980B21FFF7BD
:1034D0003EFB68460078C007002804D0FFE702984A
:1034E00000F071FBFFE703A90B20087003E003A9BC
:1034F00000200870FFE703A8007804B080BD80B505
:1035000086B00490039102920498002804D1FFE74A
:1035100005A90420087023E00398FFF759F9014634
:1035200001A801700078002804D0FFE7019805A9E0
:10353000087015E003980499086004990120087444
:10354000049900204860049988740499C86002981E
:1035500004998860FFE7FFE705A900200870FFE7EE
:1035600005A8007806B080BD81B0009000990020C9
:10357000887401B0704780B584B00290029800282A
:1035800004D1FFE703A90420087027E00298807C9B
:10359000C007002804D1FFE703A9002008701DE040
:1035A00002980B21FFF7D3FA0298014613310191DB
:1035B0000068007BFFF7A2FE01460198FCF72DFF93
:1035C000029801461331FFF764FC029900208874C9
:1035D000029A0121117403A90870FFE703A800787B
:1035E00004B080BDF0B503AF91B06E46F41D0D344C
:1035F000346104463069BD68C4628162426203621C
:10360000C06A0068007BFFF779FE3169F21D29323C
:103610001070886A496AFCF705FF084631698861BD
:103620008A697D20C0005043496AFCF7FBFE0146D1
:103630003069416140693049884205D3FFE731690B
:103640007D20C0004861FFE730694069FDF7A6F8BA
:103650002A49FCF7A1FF014630690161016908466A
:1036600004F014FB3169C860F01D293000786A4607
:103670008A60C31D072293436A46D21AF2609546B8
:103680004860F11D0D3100200870FFE7F01D0D307E
:103690000078F11D29310978884221DAFFE7306985
:1036A000006AF11D0D310A787260815CB160B86802
:1036B000805C401AFDF76AF83169C96804F0E6FADF
:1036C000FDF71AF87268F1680346B068C0188854AC
:1036D000FFE730690068401CF11D0D310870D5E727
:1036E0003069F168C06AFFF7D4FB306980688546AD
:1036F000FC1F053CA546F0BDE903000000007A442C
:1037000082B0009000983249884203D1FFE74748D1
:10371000019059E000982F49884203D1FFE74248C1
:10372000019051E000982C49884203D1FFE73D48C1
:10373000019049E000982949884203D1FFE73848C1
:10374000019041E000982649884203D1FFE73348C1
:10375000019039E000982349884203D1FFE72E48C1
:10376000019031E000982049884203D1FFE72948C1
:10377000019029E000981D49884203D1FFE72448C1
:10378000019021E000981A49884203D1FFE71F48C1
:10379000019019E000981749884203D1FFE71A48C1
:1037A000019011E000981449884203D1FFE71548C1
:1037B000019009E00098002803D1FFE7104801902C
:1037C00002E00E480190FFE7019802B07047C04642
:1037D000187F0008287F0008307F0008207F00083D
:1037E000387F0008DC7E0008D07E0008D000002072
:1037F000F87E0008087F0008E87E00086B8B000850
:10380000778A0008368B0008C8890008528E0008A5
:10381000988C0008A98E0008798E0008B08B0008EB
:10382000548B0008E5890008938E00082089000861
:10383000D0B502AF92B06E46F21D01327260024600
:10384000706882634163806B002806D0FFE7706870
:10385000806B4068002805D1FFE7F11D3D31042051
:1038600008709EE07068806B807CC007002805D1DE
:10387000FFE7F11D3D310020087092E07068816B18
:1038800049680163806BC068002809D1FFE771684F
:10389000486B8A6BD060086B007B896B4874FFE7CC
:1038A0007168086B8088C862086BC0888862086B82
:1038B00000894862086B40890862486B8A6BD2684D
:1038C000801AC861C86A8A6A80180A6A80184A6AB7
:1038D00080188861C8698969FCF7A4FD7068416136
:1038E000806B0068007BFFF709FD7168086108695B
:1038F0006A46CA604200D31D072293436A46D21A21
:1039000032609546886000204860FFE7716848682B
:10391000096988421ED2FFE77068016B0968426836
:10392000895C806B0068C0894843FF21FCF77AFD01
:10393000726810605069116B1268FEF7ECFE7268D5
:103940003168526852008852FFE771684868401C2D
:103950004860DBE770683168806BFFF7D5FA716803
:10396000C8698969884214D3FFE77168486B8A6B1C
:10397000D060886B096B0C2289560022FFF78AFD04
:103980000B2805D1FFE77068816B01200874FFE701
:10399000FFE77068F21D3D3200211170C068854656
:1039A000FFE7F01D3D300078FC1F013CA546D0BD6F
:1039B00084B002900191684602700298002804D1F8
:1039C000FFE703A9042008700EE00098029908742C
:1039D000019802994860029900208874FFE7FFE788
:1039E00003A900200870FFE703A8007804B070471F
:1039F00086B0024604A8027003910078801E0090F1
:103A0000092833D80098810001A040588746C04655
:103A1000653A0008393A0008393A0008393A00088E
:103A2000533A0008653A0008653A0008393A000838
:103A3000393A0008413A000805A90120087019E048
:103A4000039802900298C07A0121084005A90870E5
:103A500010E0039801900198407A0121084005A9DF
:103A6000087007E005A90020087003E005A9002000
:103A70000870FFE705A8007806B0704780B586B0EB
:103A8000049003910498002805D0FFE7049840684B
:103A9000002804D1FFE705A90420087047E0049836
:103AA000406802900498807CC007002804D1FFE79A
:103AB00005A9002008703AE00498C068002814D1D5
:103AC000FFE703980499C860049802990968FFF712
:103AD000E0F9014601A801700078002804D0FFE752
:103AE000019805A9087022E0FFE703980499C968C6
:103AF000401A009002984068002814D0FFE7009810
:103B00000299496888420ED3FFE70499002088741F
:103B1000049800F058F804980B21FFF718F804995E
:103B200001200874FFE705A900200870FFE705A839
:103B3000007806B080BD80B582B001906946002053
:103B400008700198002804D1FFE769460420087036
:103B5000FFE701990120887401990020C86001984D
:103B60000A21FEF7F4FFFFE7FFE76846007802B09E
:103B700080BD80B584B0039002A8017001A9002027
:103B800008700398002804D1FFE701A904200870F9
:103B9000FFE703980E21FEF7DAFF02A80078C007BE
:103BA000002804D1FFE7039800F00DF8FFE7039920
:103BB00000208874039901200874FFE7FFE701A83B
:103BC000007804B080BD80B584B0029002980028CF
:103BD00004D1FFE703A90420087017E002980068E9
:103BE0004068804702980146133101910068007BCC
:103BF000FFF784FB01460198FCF70FFC0298014691
:103C00001331FFF746F903A90870FFE703A800780E
:103C100004B080BD80B588B00690059104A900204D
:103C20000870544800680599884204D1FFE707A945
:103C30000020087099E00698002804D1FFE707A942
:103C40000420087091E00698017C0020012903906F
:103C50000DDBFFE70698017C0120002201920C2970
:103C6000029001DB0198029002980390FFE703980D
:103C7000C007002804D1FFE707A90520087074E0F9
:103C80000698007C401E00900A2866D800988100A3
:103C900001A040588746C046C53C0008D13C0008FA
:103CA000DD3C0008F93C0008EB3C0008073D00083B
:103CB000313D0008153D0008233D00083F3D000848
:103CC0004D3D00080698FFF74FFC04A9087045E039
:103CD0000698FFF750FC04A908703FE00698059984
:103CE000FFF7CCFE04A9087038E006980599FFF7A5
:103CF00098FA04A9087031E006980599FEF70BFEC2
:103D000004A908702AE006980599FEF766FE04A942
:103D1000087023E006980599FFF731F904A90870A7
:103D20001CE006980599FFF7D3F904A9087015E07F
:103D300006980599FFF77CFD04A908700EE0069827
:103D40000599FEF778FD04A9087007E00698059923
:103D5000FEF7E0FF04A9087000E0FFE705980549B9
:103D60000860049807A90870FFE707A8007808B062
:103D700080BDC0463803002080B59EB01DAB1870D2
:103D80001CA801701B9200780A381490042800D9EE
:103D9000C7E01498810001A040588746B13D000853
:103DA000F33D0008953E0008E13E0008533E000840
:103DB000FFE7FEF701FD1A901A981190704800680D
:103DC00012901B98FFF79CFC119B014612980191E1
:103DD00000906C481390714A01210902FCF77EFAA9
:103DE0001398FCF79BFA0146139803F0C7FCFFE712
:103DF000C3E0FFE7FEF7E0FC199019980E906048C9
:103E000000680F901B98FFF77BFC0E9B01460F98F4
:103E1000019100905B4810905E4A01210902FCF775
:103E20005DFA1098FCF77AFA0146109803F0A6FCA8
:103E3000FFE759480078C007002809D0FFE7564936
:103E40000020087001208102C348FEF7CEFBFFE787
:103E500093E0FFE7FEF7B0FC189018980B904848E5
:103E600000680C901B98FFF74BFC0B9B01460C98CD
:103E70000191009043480D90454A01210902FCF749
:103E80002DFA0D98FCF74AFA01460D9803F076FCDE
:103E9000FFE772E0FFE7FEF78FFC17901798089096
:103EA0003748006809901B98FFF72AFC089B0146D9
:103EB00009980191009033480A90344A012109027F
:103EC000FCF70CFA0A98FCF729FA01460A9803F065
:103ED00055FCFFE7012081029F48FEF78FFB4CE075
:103EE000FFE7FEF769FC16901698059024480068D5
:103EF00006901B98FFF704FC059B0146069801916C
:103F0000009020480790204A01210902FCF7E6F9B9
:103F10000798FCF703FA0146079803F02FFCFFE728
:103F20002BE01CA80078012826DBFFE71CA80078FE
:103F3000092821DCFFE7FFE7FEF73EFC1590159806
:103F400002900F48006803901B98FFF7D9FB029B73
:103F500001460398019100900A480490104A0121FB
:103F60000902FCF7BBF90498FCF7D8F9014604985C
:103F700003F004FCFFE7FFE7FFE71EB080BDC0468B
:103F8000E4000020580B0020038D0008688D000815
:103F9000A98C0008D58C00083D0A00203C8D000843
:103FA0009F8D000810B588B001200490820207A9F7
:103FB00006910A8010220192CA70887066480590A6
:103FC000FEF764FA04992248029002F02DFE019B4C
:103FD000049A069902980B80CB708A70FEF756FA05
:103FE00004990598069B99701822DA7002F01CFE5D
:103FF00005980D2106220392FEF7D0FA049A05983F
:10400000069952030A80FEF741FA0499059802F0D6
:104010000BFE039A05980E21FEF7C0FA049A059844
:10402000069992030A80FEF731FA0499059802F086
:10403000FBFD039A05980F21FEF7B0FA049A059844
:104040000699D2030A80FEF721FA08B010BDC046D7
:10405000000C004880B582B00190019803F038FA56
:10406000019970200870019901204870019A00217F
:104070009170019A1172019A5172019A5181019ABB
:104080009181019A516001998007009003F04EF9E7
:104090000098019903F094F90098019903F0D4F97C
:1040A00002B080BD80B58AB007A8019003F0C4FAC1
:1040B00001210291084602F087FD019902982F2202
:1040C0000A80544A089200220A818A708A72800704
:1040D00003F050FA03A8FFF7BDFF0AB080BDC04649
:1040E00080B582B0012101918807009003F0F0F8BB
:1040F0000098019A002103F0D5F80098019A042154
:1041000003F0D0F80098019A082103F0CBF800984A
:10411000019903F0F3F802B080BD000080B584B0CF
:104120000020039000F03EF8039800F01FF8039879
:1041300000F054F80120019081020748FEF75EFA72
:10414000019803998007029003F0C2F8029803993E
:1041500003F0D4F804B080BD0008004880B5FFF734
:10416000A1FFFFF71FFFFFF7D9FF80BD80B582B029
:10417000014601A801800088C0087D2803D3FFE71D
:104180002448009003E001A800880090FFE7009910
:1041900001A8018001880120800703F0C2F902B064
:1041A00080BDC04680B582B0014601A8018000886C
:1041B000C0087D2803D3FFE71648009003E001A85C
:1041C00000880090FFE7009901A801800188012084
:1041D000800703F092F902B080BDC04680B582B07E
:1041E000014601A801800088C0087D2803D3FFE7AD
:1041F0000848009003E001A800880090FFE70099BC
:1042000001A8018001880120800703F09EF902B017
:1042100080BDC046E703000080B582B001906846CB
:104220000170019840688068002809D0FFE7019A72
:1042300050688368007C6946097892689847FFE770
:1042400002B080BDB0B586B004460A9804940391CC
:1042500002A90A7001A90B70694608800498002819
:1042600004D1FFE705A90420087036E004984068EF
:1042700040680399884213D1FFE704984068007CA6
:1042800002A9097888420BD1FFE704984068807C36
:10429000C007002804D0FFE705A9002008701CE033
:1042A0000498407D012814D1FFE7039804998860A1
:1042B00002980499C87401980499087500980499A3
:1042C00008820498022100F013FA05A90020087062
:1042D00003E005A909200870FFE705A8007806B0EB
:1042E000B0BD80B586B00292024602980592049154
:1042F00003AA107005980499127800230093FFF721
:10430000A1FF06B080BD000080B586B004900020FB
:104310000390FFE703980499897C88423DD2FFE728
:1043200004980068039A0C215143401802900298A7
:104330000068049949684968884229D1FFE70298D2
:10434000406804998968884222D1FFE70298007A80
:10435000049908750299087A498900F0DDF90499F1
:104360000882FFE70498037D008A00900F480190BF
:104370000F4A6421FBF7B2FF0198FBF7CFFF01461C
:10438000019803F0FBF9FFE705A90120087008E098
:10439000FFE70398401C0390BCE705A900200870C4
:1043A000FFE705A8007806B080BDC0463C030020AA
:1043B000E980000880B584B002900298C07C012892
:1043C00027DBFFE70298C07C0B2822DCFFE702987E
:1043D000007D01281CDBFFE70298007D042817DC24
:1043E000FFE7FFE70298037D008A00900D480190E7
:1043F0000D4A6421FBF772FF0198FBF78FFF01461E
:10440000019803F0BBF9FFE703A90120087004E05D
:10441000FFE703A900200870FFE703A8007804B0B5
:1044200080BDC046A00300201181000880B58AB07D
:104430000990099840680068007BFEF75FFF0890CC
:10444000FFE7089B3E4804903E4A6421FBF746FF85
:104450000498FBF763FF0146049803F08FF9FFE728
:1044600009994868163108AA03921278FEF77FFF6F
:10447000039B099A9068D17C1A321B78FEF798FF4B
:104480000999C87C8968FFF7B3FA014607A801704B
:104490000078C007002826D1FFE7FFE72A480290EE
:1044A0002A4A6421FBF71AFF0298FBF737FF0146FF
:1044B000029803F063F9FFE706A900200870FFE700
:1044C00006A80078089988420CD2FFE7099806A947
:1044D0000978411800208876FFE70698401C06A955
:1044E0000870EDE7FFE705A900200870FFE705A8C1
:1044F0000078089988421CD2FFE7FFE7099805A9D0
:1045000009784018837D807E009011480190114AFF
:104510006421FBF7E3FE0198FBF700FF01460198D9
:1045200003F02CF9FFE7FFE70598401C05A9087088
:10453000DDE7099840680068006880470AB080BDE0
:1045400004040020D380000868040020558000087F
:10455000CC040020B380000880B584B002900191A3
:104560000298002804D0FFE70198002804D1FFE753
:1045700003A90420087023E0029900200860029932
:1045800088740199029A5160029A01215175029929
:1045900088600299C87402990875FFE70A4800907C
:1045A0000A4A6421FBF79AFE0098FBF7B7FE014622
:1045B000009803F0E3F8FFE703A900200870FFE785
:1045C00003A8007804B080BD3005002057810008A2
:1045D00081B000900098407D401E411E884101B08E
:1045E0007047D0B502AF88B06E46F11D0931F16059
:1045F0000146F068C160C06840680068007BFEF753
:104600007DFE0146F068F21D113272601170137860
:1046100069464160DC1D07218C436946091BB16076
:104620008D460360C06840681278FEF7A0FE71688E
:10463000B06809780322FDF7C0FBF16849688D4630
:10464000FC1F013CA546D0BD80B582B00190FFE7BC
:104650000A4800900A4A6421FBF740FE0098FBF7E5
:104660005DFE0146009803F089F8FFE701990220FA
:1046700008750199C820088202B080BD9405002009
:104680009681000880B586B0049003910292049848
:10469000002808D0FFE70398002804D0FFE702981D
:1046A000002804D1FFE705A90420087018E003984A
:1046B00004990860029804998874FFE70A480190F9
:1046C0000A4A6421FBF70AFE0198FBF727FE014620
:1046D000019803F053F8FFE705A900200870FFE7F1
:1046E00005A8007806B080BDF80500205D820008AE
:1046F00082B00190684601700078012809DBFFE76D
:1047000068460078042804DCFFE7009801994875A2
:10471000FFE702B07047000087B0024605A80270AC
:1047200004AA11800078401E0390032841D8039802
:10473000810001A0405887464947000851470008BA
:10474000714700089147000806A90020088034E05E
:1047500004A80088002803D1FFE7C820029003E0E6
:1047600004A800880290FFE7029806A9088024E0C8
:1047700004A80088002803D1FFE71248019003E055
:1047800004A800880190FFE7019806A9088014E0BA
:1047900004A80088002804D1FFE77D2000010090D4
:1047A00003E004A800880090FFE7009806A90880AD
:1047B00003E006A900200880FFE706A8008807B0EC
:1047C0007047C0468813000080B582B00190019800
:1047D0000D21FFF721FD019A50689168D27CFFF707
:1047E000E7F801984068FFF7A6F9019900200090CA
:1047F00088600199C8740199087501980121FFF733
:1048000077FF009802B080BD81B00090002001B019
:1048100070470000D0B502AF94B06E46F21D313241
:1048200032630246306B4261016101694269D268BC
:10483000891AC1604069007D401E7063032800D959
:104840000EE1706B810001A0405887465D4800086A
:10485000874800082F490008A5490008FFE7994844
:10486000F062994A6421FBF739FDF06AFBF756FDC7
:104870000146F06A02F082FFFFE7306B40690421D5
:10488000FFF736FFFCE0316BC8684969098A884246
:104890003ED3FFE7FFE78548B062854A6421FBF716
:1048A0001DFDB06AFBF73AFD0146B06A02F066FFF3
:1048B000FFE7306B416948681A31FEF75DF900285F
:1048C00010D0FFE7FFE77D4870627D4A6421FBF767
:1048D00005FD706AFBF722FD0146706A02F04EFF8B
:1048E000FFE70FE0FFE773483062734A6421FBF78C
:1048F000F5FC306AFBF712FD0146306A02F03EFF1C
:10490000FFE7FFE7306B40690421FFF7F1FE0DE0A0
:10491000316B4C696068C968228A234616331A34A1
:1049200082B00094FEF75EFE02B0FFE7A8E0316BB4
:10493000C8684969098A884215D9FFE7FFE75948DD
:10494000F061594A6421FBF7C9FCF069FBF7E6FC0A
:104950000146F06902F012FFFFE7306B4069042165
:10496000FFF7C6FE1DE0306B40694068807CC007E1
:10497000002815D1FFE7FFE74848B061484A6421A5
:10498000FBF7ACFCB069FBF7C9FC0146B06902F06B
:10499000F5FEFFE7306B40690421FFF7A9FEFFE752
:1049A000FFE76DE0306B406940680068007BFEF710
:1049B000A5FC0146306BF21D39323261117013785B
:1049C00069464160DC1D07218C436946091B716102
:1049D0008D460360406940681278FEF7C8FC316973
:1049E000706909780322FDF7E8F9002816D0FFE77F
:1049F000FFE72848F060284A6421FBF76FFCF06865
:104A0000FBF78CFC0146F06802F0B8FEFFE7FFE719
:104A1000306B40690421FFF76BFE1DE0316BC86805
:104A20004969098A884216D9FFE7FFE71748B0604D
:104A3000174A6421FBF752FCB068FBF76FFC014694
:104A4000B06802F09BFEFFE7FFE7306B406904218E
:104A5000FFF74EFEFFE7FFE7306B406885460FE04B
:104A6000FFE71A4870601A4A6421FBF737FC706848
:104A7000FBF754FC0146706802F080FEFFE7FFE799
:104A80000020FC1F013CA546D0BDC04618090020EF
:104A90009B820008B4080020D7810008500800203D
:104AA0003F820008EC0700207A820008C006002040
:104AB0003D810008880700203A8000082407002074
:104AC000168000085C060020B88200087C090020DF
:104AD0007C81000880B584B0039002910398FFF7B1
:104AE00069FC014601A801700078C007002810D1B8
:104AF000FFE70398FFF708FC01466846017000785D
:104B0000C007002804D1FFE70398FFF79DFDFFE7EA
:104B1000FFE70398007D022804D1FFE70398FFF721
:104B200085FCFFE702980399C86003980C21FFF702
:104B300073FB03980321FFF7DBFD002004B080BD69
:104B400080B584B002900298407D012804D1FFE72F
:104B500003A9012008700DE002984068012101912D
:104B6000FFF707F801990298FFF7C2FD019803A922
:104B70000870FFE703A8007804B080BD10B586B0C8
:104B80000193034601980593049103AB1A7002AA9E
:104B90001080059804991B78128800920522FFF76F
:104BA00051FB06B010BD80B586B002920246029855
:104BB000059204AA117003A9088005981378098842
:104BC000009100210222FFF73DFB06B080BD10B529
:104BD00086B00193034601980593049103AB1A70C4
:104BE00002AA1080059804991B781288009203226B
:104BF000FFF728FB06B010BD80B584B0029001918C
:104C00000298002804D1FFE703A90420087035E0CA
:104C10000298407D401E009003281FD80098810014
:104C200001A040588746C046394C0008414C000856
:104C30004B4C0008554C00080298FFF7E5FD0EE0CC
:104C400002980199FFF746FF09E002980199FFF7E2
:104C5000E1FD04E00298FFF7B7FD00E0FFE70298EE
:104C6000007D022806D0FFE7029840680199FEF710
:104C7000D1FFFFE703A900200870FFE703A8007831
:104C800004B080BD704700001A4800787047C046E5
:104C90000C4800787047C046114800780121084050
:104CA0007047C0461A480078012108407047C04646
:104CB0001E480078012108407047C0460149002085
:104CC00008707047580C002081B00146684601709A
:104CD0000078012108400249087001B07047C046C1
:104CE000460A002081B069460870009801490870A2
:104CF00001B07047E800002081B0014668460170AD
:104D00000078012108400249087001B07047C04690
:104D1000E900002081B00146684601700078012159
:104D200008400249087001B07047C0464D0A002093
:104D300081B06946087001B0704701207047704724
:104D400080B509481021FDF750FCB148FFF749FC38
:104D5000002807D1FFE7AE484B218A000221FFF768
:104D600022FFFFE780BDC046000C00483849088894
:104D700020221043088070473549088801221043DB
:104D800008807047324908884022104308807047E5
:104D90002F49088802221043088070472C49088850
:104DA0008022104308807047294908880422104354
:104DB00008807047264908880122120210430880A3
:104DC0007047C0462249088808221043088070476F
:104DD0001F49088801225202104308807047C046CC
:104DE0001B490888102210430880704780B582B0A4
:104DF000FFF74EFF6946087012480078C007002888
:104E000006D0FFE700980121084369460870FFE7D4
:104E10006846007800F01EF80146BB484174112135
:104E20004056401C002804D0FFE701A9012008706B
:104E300003E001A900200870FFE701A8007802B094
:104E400080BDC046810100200149002008807047D4
:104E50003E0A002084B0014602A8017001AA002188
:104E600011700078002804D1FFE703A9FF20087023
:104E700023E0694601200870FFE768460078802833
:104E800016DCFFE702A8007869460978084204D0DA
:104E9000FFE7019803A908700FE00198401C01A9E1
:104EA0000870FFE7FFE70098400069460870E4E7F4
:104EB000FFE703A9FF200870FFE7002103A8405681
:104EC00004B0704780B58EB08F49002008748F48B9
:104ED0000590FCF7F9FF05983C49FDF701F80598A6
:104EE0003B49FCF7F5FF8A480690FCF7EDFF069872
:104EF0003849FCF7F5FF06983749FCF7E9FF854884
:104F00000790FCF7E1FF07983449FCF7E9FF0798A1
:104F10003349FCF7DDFF80480890FCF7D5FF08987F
:104F20003049FCF7DDFF08982F49FCF7D1FF7B489B
:104F30000990FCF7C9FF09982C49FCF7D1FF0998A3
:104F40002B49FCF7C5FF2B48FDF778FAFFE7FDF783
:104F500033FC0D900D9B2848006800902748049072
:104F6000274A01210902FBF7B9F90498FBF7D6F9A2
:104F70000146049802F002FCFFE722480290224911
:104F8000224AFEF7BCFA029921480390FFF7E4FA9F
:104F9000039820490322FFF775FB7248FDF71BF9C0
:104FA000FDF70AFA0AAA0020107057490B785370CF
:104FB000194B0B9310720C9888600B9848600A98F4
:104FC0000860012008740EB080BDC046794D00080D
:104FD0006D4D0008914D0008854D0008A94D000851
:104FE0009D4D0008C54D0008B54D0008E14D000875
:104FF000D14D0008B8000020E4000020580B00202C
:10500000C6840008E0090020C07E0008793D000841
:10501000880100209C7E0008881300007047000073
:1050200080B588B007A90020087006A9087005A9F6
:10503000087004A9087003A908703348807C401EDA
:1050400002900F2838D80298810001A04058874666
:105050009150000899500008B9500008A15000086C
:10506000B9500008B9500008B9500008A95000080C
:10507000B9500008B9500008B9500008B9500008EC
:10508000B9500008B9500008B9500008B1500008E4
:1050900007A90120087010E006A9012008700CE0A3
:1050A00005A90120087008E004A90120087004E0A7
:1050B00003A90120087000E0FFE707A8017801209C
:1050C000019001401148FCF713FF019806A90978E7
:1050D00001400F48FCF70CFF019805A90978014031
:1050E0000C48FCF705FF019804A9097801400A481B
:1050F000FCF7FEFE019803A9097801400748FCF778
:10510000F7FE08B080BDC046180A00200400002049
:10511000280000204C000020700000209400002097
:1051200080B582B00F4801A90091FDF75BF80099A6
:105130000D4800780978884211D0FFE701A800786F
:10514000012805D1FFE701A84088FDF736F902E004
:10515000FDF732F9FFE7019803490870FFE702B055
:1051600080BDC046660100207E01002080B5A8B049
:10517000FD48007CC007002801D1FFE76FE3FFF77F
:105180008BFD002800D13BE3FFF792FD002800D102
:10519000DFE1F64901200870F5490870F54800780C
:1051A0001690002809D0FFE71698012800D185E065
:1051B0001698022800D1EEE0C9E1EF480078C00758
:1051C00000283CD0FFE7EB4902200870EB49EC488F
:1051D0000880FFE7FDF7F0FA2790279BE948006871
:1051E0000090E9481590E94A01210902FBF776F899
:1051F0001598FBF793F80146159802F0BFFAFFE700
:10520000FFE7FDF7D9FA2690269BDE48006800905C
:10521000DD481490DE4A01210902FBF75FF814987B
:10522000FBF77CF80146149802F0A8FAFFE7D9488A
:10523000D9494B2293000222FFF7C9FC3DE0CB483D
:105240000078C007002837D0FFE7CA49012008705E
:10525000FFE7FDF7B1FA2590259BCA48006800904A
:10526000C9481390CD4A01210902FBF737F813987A
:10527000FBF754F80146139802F080FAFFE7FFE7C6
:10528000FDF79AFA2490249BBE4800680090BE481F
:105290001290C34A01210902FBF720F81298FBF78C
:1052A0003DF80146129802F069FAFFE7BD48407FD9
:1052B000012101F0F5FAFFE7FFE749E1B548FFF703
:1052C00090F9002806D0FFE7B648407F012101F0A1
:1052D000E7FAFFE7B348407F002101F0E1FAA64872
:1052E0000078C00700283CD0FFE7A24902200870E0
:1052F000A249A3480880FFE7FDF75EFA2390239BAD
:10530000A04800680090A0481190A74A0121090216
:10531000FAF7E4FF1198FBF701F80146119802F043
:105320002DFAFFE7FFE7FDF747FA2290229B954809
:1053300000680090944810909C4A01210902FAF7F5
:10534000CDFF1098FAF7EAFF0146109802F016FA1E
:10535000FFE7904890494B2293000222FFF737FC69
:1053600018E082480078C007002801D0FFE710E06D
:105370008049002008708748FFF733F9002807D1DB
:10538000FFE784484B218A000221FFF70CFCFFE76E
:10539000FFE7FFE7DCE078480078C007002800D18D
:1053A000B3E080480078022818D1FFE7FFE7FDF757
:1053B00003FA2190219B73480068009072480F9077
:1053C0007B4A01210902FAF789FF0F98FAF7A6FF35
:1053D00001460F9802F0D2F9FFE795E07548007892
:1053E000C00700285FD0FFE773480078C007002897
:1053F00024D1FFE7FFE7FDF7DFF92090209B61480C
:105400000068009060480E906C4A01210902FAF78A
:1054100065FF0E98FAF782FF01460E9802F0AEF98A
:10542000FFE76048407F01210D9101F0A1FA0D983E
:10543000634A5349118060490870FFE7604800885B
:10544000012805DBFFE75E490888401E088029E047
:10545000FFE7FDF7B1F91F901F9B4A4800680090D5
:1054600049480C90574A01210902FAF737FF0C9876
:10547000FAF754FF01460C9802F080F9FFE7FB4869
:10548000FFF7AFF8002807D1FFE7F8484B218A0063
:105490000221FFF788FBFFE7F64900200870374933
:1054A0000880FFE72FE035480088012805DBFFE78B
:1054B00032490888401E088024E0FFE7FDF77CF9A8
:1054C0001E901E9BEC4800680090EC480B90F74A39
:1054D00001210902FAF702FF0B98FAF71FFF0146B4
:1054E0000B9802F04BF9FFE7E048FFF77AF8002845
:1054F00007D1FFE7DD484B218A000221FFF753FB6C
:10550000FFE7FFE7FFE7FFE720E0FFE7FDF754F9DC
:105510001D901D9BD84800680090D8480A90E24A28
:1055200001210902FAF7DAFE0A98FAF7F7FE0146B6
:105530000A9802F023F9FFE7EC48407F0121099126
:1055400001F0AEF90998C7490870FFE700E0FFE7EE
:1055500055E1C44900200870C3490870C548007867
:10556000C007002830D1D6E0F809002064010020EF
:10557000DD0000207F01002080010020620100206A
:10558000B80B0000E4000020580B0020268500081E
:10559000D482000888010020187F00083E88000897
:1055A000A7830008180A00206F85000815830008EB
:1055B000D28A0008380A0020390A0020E183000856
:1055C0003A0A0020A6860008B0480078C0070028E4
:1055D00024D1FFE7FFE7FDF7EFF81C901C9BA648DE
:1055E00000680090A5480890A94A01210902FAF72D
:1055F00075FE0898FAF792FE0146089802F0BEF888
:10560000FFE7BA48407F0121079101F0B1F90798FF
:10561000A04AA14911809D490870FFE79D48008874
:10562000012805DBFFE79B490888401E088071E0E0
:10563000AE480078022805D0FFE7AC480078012882
:105640003FD1FFE7FFE7FDF7B7F81B901B9B8A48A8
:105650000068009089480690914A01210902FAF7F2
:105660003DFE0698FAF75AFE0146069802F086F8C3
:10567000FFE7FFE7FDF7A0F81A901A9B7E48006845
:1056800000907E480590874A01210902FAF726FE1C
:105690000598FAF743FE0146059802F06FF8FFE718
:1056A0007248FEF79EFF002807D1FFE76F484B21A5
:1056B0008A000221FFF777FAFFE76D4901200870A1
:1056C00024E0FFE7FDF778F81990199B6A48006815
:1056D00000906A480490714A01210902FAF7FEFD20
:1056E0000498FAF71BFE0146049802F047F8FFE71A
:1056F0005E48FEF776FF002807D1FFE75B484B21A5
:105700008A000221FFF74FFAFFE7FFE7594900201F
:105710000870FFE772E0C9480078022805D0FFE76B
:10572000C6480078012832D1FFE756480078C00704
:1057300000282BD0FFE7FFE7FDF73EF81890189BF5
:105740004D48006800904D4803904F4A01210902DE
:10575000FAF7C4FD0398FAF7E1FD0146039802F059
:105760000DF8FFE74148FEF73CFF002807D1FFE7AF
:105770003E484B218A000221FFF715FAFFE73C491A
:10578000012008703F4900200870FFE735E0AB4872
:10579000007804280AD0FFE7A8480078052805D03B
:1057A000FFE7A6480078062801D1FFE724E0FFE7DD
:1057B000FDF702F81790179B2F48006800902F48BC
:1057C00002902F4A01210902FAF788FD0298FAF7A0
:1057D000A5FD0146029801F0D1FFFFE72348FEF73F
:1057E00000FF002807D1FFE720484B218A00022153
:1057F000FFF7D9F9FFE7FFE7FFE7FFE7FFE72EE055
:10580000184900200870184908708C480078022850
:1058100010D1FFE71548FEF7E4FE002806D1FFE7A8
:10582000124801210022FFF7BEF9FFE710490120CD
:10583000087013E08148007800280ED1FFE70B487C
:10584000FEF7CFFE002807D1FFE708484B218A006A
:105850000221FFF7A8F9FFE7FFE7FFE7FFE728B01E
:1058600080BDC0467F010020640100208801002027
:105870003D0A0020380A0020E4000020580B0020D8
:10588000808A0008DD000020F88B0008390A00201B
:105890002D8400083A0A0020B80B0000F3860008A7
:1058A00041890008548C00085A8300085A86000871
:1058B00080B56248007CC007002801D1FFE714E0F2
:1058C00001F064F900F0C4F8FFF750FCFFF728FC82
:1058D00000F0C8FF59484068002805D0FFE7574945
:1058E0004868401E4860FFE7FFE780BD180A0020B7
:1058F00080B584B003A908705048407D029000280C
:1059000004D0FFE70298012828D091E003A800788E
:105910000190032820D80198810001A040588746B3
:10592000315900083B590008455900084F590008F3
:1059300046481021FCF762FE0FE044481021FCF7B6
:105940005DFE0AE041481021FCF758FE05E03F48A3
:105950001021FCF753FE00E0FFE76AE038480088BA
:10596000012805DBFFE736490888401E088012E061
:10597000344802780121914301700078C007002863
:1059800004D0FFE72E493048088003E02C49FA2074
:105990000880FFE7FFE703A800780090032845D8B8
:1059A0000098810001A040588746C046BD590008B4
:1059B000DF590008F9590008135A000821480078F7
:1059C000C007002805D0FFE720481021FCF716FE8D
:1059D00004E01E481021FCF708FEFFE727E01B4803
:1059E0001021FCF70BFE17480078C007002801D0F3
:1059F000FFE700E0FFE71AE014481021FCF7FEFD86
:105A000010480078C007002801D0FFE700E0FFE75A
:105A10000DE00E481021FCF7F1FD0A480078C007A0
:105A2000002801D0FFE700E0FFE700E0FFE700E02B
:105A3000FFE703980149087704B080BD180A0020E9
:105A40008201002084010020EE020000000C0048CA
:105A500080B5E8B001F068F867A90880FFF722F97F
:105A6000002853D0FFE7FFF70FF9014636480170D1
:105A70000021405664281BD1FFE7FFE7FCF79CFE9E
:105A80006690669B31480068009031481E90314A0C
:105A900001210902FAF722FC1E98FAF73FFC0146A1
:105AA0001E9801F06BFEFFE72B490120087003E010
:105AB000294900200870FFE70021234840560028AC
:105AC0001BD1FFE7FFE7FCF777FE6590659B1F485A
:105AD000006800901E481D90204A01210902FAF733
