:020000040800F2
:10000000300B0020610200086F0200087102000836
:1000100000000000000000000000000000000000E0
:100020000000000000000000000000007302000853
:100030000000000000000000750200088D28000884
:1000400079020008790200087902000879020008A4
:100050007902000879020008790200087902000894
:1000600079020008051D00087902000879020008DD
:1000700079020008790200087902000811290008B5
:100080007902000879020008790200087902000864
:100090007902000879020008790200087902000854
:1000A0007902000879020008790200087902000844
:1000B00079020008790200087902000800000000B7
:1000C00000F002F800F0BDF80CA030C80838241881
:1000D0002D18671EA246AB4654465D46AC4201D180
:1000E00000F0AFF87E460F3EB6460FCC01263342F5
:1000F00000D0FB1A3343A246AB461847D43A00005F
:10010000F43A0000103A02D378C878C1FAD85207FE
:1001100001D330C830C101D504680C6070470000BD
:100120000023002400250026103A01D378C1FBD813
:10013000520700D330C100D50B60704710B56E294F
:1001400002D100F06DFA10BD702902D100F0A9FBB8
:1001500010BD662902D103F077FC10BD652902D1DC
:1001600003F072FC10BD672902D103F06DFC10BDD5
:10017000612902D103F070FC10BD03681B0A01D392
:1001800080231943692902D100F014FA10BD6429B3
:1001900002D100F00FFA10BD752902D100F00AFA61
:1001A00010BD6F2902D100F027FB10BD782902D1C4
:1001B00000F064FB10BDE92902D100F0C3FA10BDC4
:1001C000E42902D100F0BEFA10BDF52902D100F0F9
:1001D000B9FA10BDEF2902D100F01AFB10BDF829C1
:1001E00002D100F059FB10BD0368DB0901D3802365
:1001F0001943632902D101F03CF810BD732902D1E3
:1002000001F03FF810BDE32902D101F049F810BD1B
:10021000F32902D101F04CF810BD002010BD1FB52C
:1002200001F0A6F804000020002103F0F7FB401CB9
:1002300060600020002103F0DBFBE0601FBD10B513
:1002400010BD01F06EF81146FFF7E9FF02F090FED5
:1002500001F002FC03B4FFF7F2FF03BC01F04CFC19
:10026000094880F308880948804709480047FEE7A5
:10027000FEE7FEE7FEE7FEE7FEE700000548064969
:10028000064A074B70470000300B002099280008F1
:10029000C100000830050020300B0020300700208E
:1002A000300700200FB41CB50C0007AA009007D03F
:1002B0004142A14202D30019401E01E00020C04388
:1002C000074B7B4469460190069800F0C2F9002173
:1002D000002C01D0009A11701CBC08BC04B0184757
:1002E000B303000030B5441C03E00178401C002932
:1002F0000DD08107F9D10B4BDD0104C8D11A914310
:100300002940FAD0001B0A0603D0C01E30BD001BD6
:1003100030BD0A0401D0801E30BD0902FCD0401E51
:1003200030BD000001010101D2B210B513029A18CC
:1003300013049A1800F001F810BD01E004C0091F71
:100340000429FBD28B0701D50280801CC90700D08D
:100350000270704700290BD0C30702D00270401C06
:10036000491E022904D3830702D50280801C891EFE
:10037000E3E70022EEE70022DFE7000000220309A6
:100380008B422CD3030A8B4211D300239C464EE0B0
:1003900003460B433CD4002243088B4231D303096C
:1003A0008B421CD3030A8B4201D394463FE0C3091E
:1003B0008B4201D3CB01C01A524183098B4201D336
:1003C0008B01C01A524143098B4201D34B01C01A21
:1003D000524103098B4201D30B01C01A5241C30899
:1003E0008B4201D3CB00C01A524183088B4201D308
:1003F0008B00C01A524143088B4201D34B00C01AF4
:100400005241411A00D201465241104670475DE008
:10041000CA0F00D04942031000D3404253409C46CB
:10042000002203098B422DD3030A8B4212D3890188
:10043000FC2212BA030A8B420CD3890192118B421F
:1004400008D3890192118B4204D389013AD09211C9
:1004500000E08909C3098B4201D3CB01C01A524184
:1004600083098B4201D38B01C01A524143098B424D
:1004700001D34B01C01A524103098B4201D30B0136
:10048000C01A5241C3088B4201D3CB00C01A52415B
:1004900083088B4201D38B00C01A5241D9D2430842
:1004A0008B4201D34B00C01A5241411A00D201467F
:1004B0005241104663465B1001D34042002B00D5E9
:1004C0004942704763465B1000D3404201B505497D
:1004D000002802DC491C084000E00846C046C0462F
:1004E00002BD00BFFFFFFF7F70477047704770B5C8
:1004F000044685690068C10601D5302600E0202643
:10050000C00707D070BD62683046A1689047206A76
:10051000401C20626D1EF6D570BD70B5044685691D
:100520000078C00707D170BD6268A168202090479D
:10053000206A401C20626D1EF6D570BD09684A0510
:1005400001D540B27047C905FCD500B270470968B3
:100550004A0501D5C0B27047C905FCD580B27047C5
:1005600070B50C460546012A05D02878800600D5CE
:10057000EA69002302E0012305E05B1C934202D2FA
:10058000E05C0028F9D1A869E618C01AA861286AB9
:10059000C01828622846FFF7AAFF04E06A6820789E
:1005A000A968641C9047B442F8D32846FFF7B5FF0A
:1005B00070BD0000F7B5002575291068009914A6D4
:1005C00011D0FFF7BBFF002802DA404211A608E075
:1005D000009909688A0701D50FA602E0490704D5EA
:1005E0000EA6012501E0FFF7B2FF009F002424378B
:1005F00004E000F082FE30313955641C0028F8D147
:100600002B4632462146009800F059FAFEBD000004
:10061000000000002D0000002B0000002000000062
:1006200011680268006A530501D5087009E0D30516
:1006300001D5088005E0130602D5C21705C100E008
:10064000086001207047000001694A1C02610878B7
:10065000704700B58FB002910021059105490193C3
:100660007944039111460490684600F027F90FB0D1
:1006700000BD0000E5FFFFFF0CC908399A4202D215
:10068000531C0B6010707047F7B50446154686B0D2
:100690002B487844002703C83E460090019111E0A2
:1006A00007986A467100415A02A800F005FE411CF5
:1006B00007D02178890603D5E269391891420ED80E
:1006C0003F18761C2078800602D5E069B84206DD26
:1006D000AE42E5DB07987100405A0028E0D1A069DE
:1006E000C01BA0612046FFF702FF154878445A3826
:1006F00003C800900020019116E041006A46079867
:10070000415A02A800F0D8FD0590401C0AD00025EF
:1007100005E0626802A8A168405D90476D1C0598DD
:100720008542F6D30498401CB0420490E5DB206A71
:10073000C01920622046FFF7F0FE09B0F0BD0000AE
:10074000D2330000F7B5D21D0025D20815A6D2007D
:10075000F52905CA11D0002A05DA0021404291414D
:1007600011A60A4608E0009909688B0701D50FA673
:1007700002E0490701D50EA601251146009F00247D
:10078000243704E000F05EF930323A55641C02462A
:100790000A43F7D12B4632462146009800F08FF9E4
:1007A000FEBD0000000000002D0000002B00000036
:1007B0002000000070B504460021243408E05507ED
:1007C000D2086D0F303565545D072A43DB08491C9C
:1007D00015461D43F3D10468002310A2250708D550
:1007E00020252C400C4304D0C46901230CA2641EB4
:1007F000C46100F064F970BD10B50446214610686C
:10080000FFF7A5FE002302462046FFF7D3FF10BDE9
:10081000D21DD108C9000CC9CCE7000000000000BF
:1008200030000000F8B50F460188090502D5224CBA
:100830007C4402E0204C7C440E34054600212435E3
:1008400008E016071209360FA65D6E541E073243E4
:100850001B09491C16461E43F3D122460478002387
:10086000240705D5702F06D0002901D002231132AC
:1008700000F025F9F8BD01231032F9E770B5044600
:100880000D4621461068FFF762FE00230246294606
:100890002046FFF7C7FF70BDD21DD308DB000CCB8D
:1008A000C0E730B4036820241268234303600823A0
:1008B000C36130BC0023B5E73C320000F3B5044609
:1008C000002081B020622046E1688847002872D06D
:1008D000252802D06268A168ABE0594F00267F440A
:1008E0002046E16888472028054608DB312D06D2DE
:1008F000781920380078002801D00643F0E7B007C7
:1009000001D5042086430020E0610746A0612A2D1E
:100910000AD0284603F064F8002827D0B800001950
:10092000303D0090856119E00298BA00121902C8A2
:10093000916102902046E1688847012F054617D152
:10094000E06900281FDA202086431CE000980A2175
:100950008069484300994019303888612046E16831
:100960008847054603F03CF80028EFD1012F0AD054
:100970002E2D08D12046E1688847054620200643F1
:100980007F1C022FC3DBA069002803DA4042A0616C
:1009900001200643F00701D0102086436C2D0BD0B8
:1009A000682D09D04C2D3CD06A2D38D0742D38D00C
:1009B0007A2D36D016E040E0E1682F462046884781
:1009C000B842054609D16C2F29D001208002E16888
:1009D000064320468847054604E06C2F1DD0FF20C3
:1009E00001300643002D28D028464138192803D865
:1009F0000120C00206432035204626602946029A7F
:100A00001646FFF79BFB002810D001280BD0F61DDF
:100A1000F008C0000830029055E74020E1E7802050
:100A2000D5E70020D3E7361D02964CE762682846DA
:100A3000A1689047206A401C44E7206AFEBD000080
:100A4000B63100000B4670B502468907800808439E
:100A500019469D08141AA9412509080705430809E4
:100A60002C194841250A01060D43010A2C19414160
:100A7000200C0D0428430D0C00194D410021401994
:100A80004D41C00869070843E908840F8D002543DC
:100A9000840024184D4124196D41121BAB4107E01D
:100AA0000925ED432C11521963410024401C61417A
:100AB0001C460A250026551BB441F1D270BDFFB576
:100AC00004460D4681B0243000902168880604D584
:100AD0001022E0699143216000E00120A84201DD7D
:100AE000471B00E000270498A1697A191018081A1A
:100AF000A0612078C00602D42046FFF7F8FC00264B
:100B000008E003986268A168805D9047206A401CF5
:100B1000761C206204988642F3DB2078C0060AD552
:100B20002046FFF7E4FC06E06268A16830209047A9
:100B3000206A401C206238467F1E0028F4DC07E053
:100B400000986268A168405D9047206A401C20625E
:100B500028466D1E0028F3DC2046FFF7DEFC2078D7
:100B6000000602D5022005B0F0BD0120FBE7000021
:100B7000FFB50C461E468FB003CA089009914F007E
:100B80007D0D00D16D1E002108460020C0460321C6
:100B9000099A89050840002A03DA82008018400873
:100BA0000840800D01280A9002DD0020C0430A9011
:100BB000089807430DD0F048F04928184843071417
:100BC000189800281DD07542291E1DDD0A98424242
:100BD0001BE01898012802D00020302104E00020FA
:100BE000F24305E02154401CB042FBDB30460022BA
:100BF000189B002121540F998B600A60486013B044
:100C0000F0BDBD1B6D1CDFE70A9A002900DA6942BE
:100C10000BA800F0F5FB0BAB07CB03AB07C30899A0
:100C2000099800F059FC6B4607C30146D4480918DF
:100C3000002D00910BDDD24903980A9A49424018D1
:100C4000002303A90390684600F0B6FE08E003996C
:100C50000A9A0023081803A90390684600F056FE7C
:100C60006B4607C30004000C03D00020C0434108BA
:100C700000E01046189A002A03D000220092154680
:100C80001EE0751E05D4FFF7DDFE303262556D1E85
:100C9000F9D501220843079602D000227F1C04E008
:100CA0002078302801D100227F1E002A069787D0A5
:100CB0001EE0112D07DAFFF7C5FE303262556D1CBC
:100CC00002460A43F5D1084303D00098002819D002
:100CD0000EE00021681E05E0235C625C6354225430
:100CE000401E491C8142F7DBA81B401E0795069059
:100CF000079A18990020A0540F98079B069A8160C4
:100D00000CC07CE711260020189059E7D21DF0B5E1
:100D10000D460446D10893B0C90003C90C900D914B
:100D200002F048FE02460D98C00F01D02D2007E0CA
:100D30002068810701D52B2002E04007C00F400149
:100D4000032A0F9001D0072A05DB034629462046D7
:100D500000F012FB0EE12078800601D5E76900E083
:100D600006272846652D04D0662814D0672D69D142
:100D70002DE00020112F009001DB112300E07B1CEF
:100D80000CAA03A910A8FFF7F3FE119900261098EA
:100D90007D1C0E9142E001203B460CAAC0070B903F
:100DA0000120009003A910A8FFF7E2FE119D129800
:100DB0001099002600280E9501D1781C0D18781B7B
:100DC00002D446427D1C761EE81B00903AE0012FBB
:100DD00000DA01270020112F009001DD112300E02F
:100DE0003B460CAA03A910A8FFF7C2FE11993D4685
:100DF000109800260E91217809070BD40E99A9426C
:100E000000DA0D4603A9012D04DD4A19203AD27FEC
:100E1000302A06D0B84201DA011D04DA012100911E
:100E20000FE06D1EEFE7002802DC86192D1A03E0A3
:100E3000411CA94200DD0D46801B401C0090012092
:100E4000C0070B902078000705D40098A84202DB69
:100E50000020C043009069460020C8720B98012111
:100E600002AF0337C907884225D0022010902B20FB
:100E700011900B9800280BDA40420B902D20119016
:100E800006E00B9800F039FA30317F1E0B90397074
:100E90001099481E00291090F3DC0B980028F0D11F
:100EA00011987F1E38702088000501D5452000E08C
:100EB00065207F1E387001A8C01BC01D0B900F98C5
:100EC000002800D0012041190098C01709180B987C
:100ED0000818A169081A401EA0612078C00602D433
:100EE0002046FFF704FB0F98002805D06268A16830
:100EF0009047206A401C20622078C00625D52046F5
:100F0000FFF7F5FA21E0002E07DB0E98B04204DD72
:100F100003A86268805DA16802E06268A168302071
:100F20009047206A761C401C20620098401E0028D2
:100F300000900AD100F01CFAC06862680168405C49
:100F4000A1689047206A401C206228466D1E002838
:100F5000D9DC07E062683878A1687F1C9047206A76
:100F6000401C20620B99481E00290B90F2DC2046A1
:100F7000FFF7D3FA032042E601FCFFFF104D00000B
:100F8000E1DFFFFFD21DF0B504460D46D0088DB05D
:100F9000C000466807683146384602F00BFD02463D
:100FA000F00F01D02D2307E02068810701D52B2306
:100FB00002E04007C00F43016846002B037001D0D8
:100FC000012000E00020032A0A9001D0072A04DB58
:100FD0002946204600F0D0F92DE12078800601D482
:100FE0000D2500E0E5697000400D0D2D01904BDAF4
:100FF000300D00210B9008460020C04603218905D2
:101000000840002E05DA82008018C20F1018401028
:1010100008408015012801DD0020C043A9000023FD
:10102000182906D39C460A460123183A1B07D340C9
:1010300003E001221205CA4094460C31202902D354
:101040003A46203900E032468A40002802DD002A74
:1010500006D119E0002817D10121C9078A4213D30C
:10106000194663467F185E41002806D10120C0075B
:10107000824202D1084687439E430B98310D81423C
:1010800002D00198401C01902088000502D57149CA
:10109000794402E06F49794419396B460A98302245
:1010A0001A540A980A7C401C1A54401C0A90019851
:1010B000002801DC302000E031201872019A012064
:1010C000002A02D0644BD21804E072003A4302D0E6
:1010D000614A521C0192002D02DC2278120703D5CE
:1010E0006A462E20507202200022864694460CE06A
:1010F00032033601120F6D1E8B5C02AA1354624636
:10110000521C401C9446052A01DA002DF0DC002216
:1011100002AE08E03B0F3F01CB5C521C6D1E335406
:10112000401C082A01DA002DF4DC23689A0601D558
:1011300011E0401E704504DD3218203AD27F302A7B
:10114000F7D0002807DD3218203AD27F2E2A02D1AC
:101150001A0700D4401E002D03DD3E223254401CED
:101160006D1E497C31540199401C002906DA2D215D
:10117000471C315401984042019003E02B21471C49
:10118000315401987D21C900884206DBFFF700F940
:101190003030F0557F1C019101E0642808DB019894
:1011A0006421FFF7F5F83030F0557F1C019101E024
:1011B0000A2806DB01980A21FFF7EAF83030F055DB
:1011C0007F1C01980A21FFF7E3F83031F1550A98A6
:1011D000A1697F1C7A191018081AA0612078C0062E
:1011E00002D42046FFF783F9216A6E460A98081850
:1011F000206204E062683078A168761C90470A9803
:10120000401E0A90401CF5D12078C00602D5204629
:10121000FFF76DF902AE09E03078761C3E280DD05C
:101220006268A1689047206A401C20627F1EF3D24A
:101230002046FFF772F90DB00320F0BD206A401977
:10124000206203E06268A168302090476D1EEDD3F4
:10125000F8E70000282A000001FCFFFF10B54369F1
:10126000002B02D0C046C04601E0FFF779F901200B
:1012700010BD1278014624310A7000224A70012202
:10128000ECE711680022D243E8E710B54369002B70
:1012900002D0C046C04601E0FFF7F6F9012010BDBC
:1012A00012880146243182840022C2840122ECE7A4
:1012B00011680022D243E8E7F8B516460C46054609
:1012C00000F04EF80368FF200230C05C012807D010
:1012D000FF2C0FD8185D00280CD001202C70F8BD11
:1012E000FF333246214608331868C71828460023C2
:1012F000B847F8BD0020C043F8BD01468008081A71
:1013000002091018020A1018020C1018C0088200F6
:1013100012185200891A01E0401C0A390A29FBD22E
:101320007047754600F0A0FBAE460500694653467F
:10133000C008C000854618B020B5FEF79FFF60BC0E
:10134000B64600260027C0C5C0C5C0C5C0C5C0C5BB
:10135000C0C5C0C5C0C5403D490849008D4670475D
:1013600010B500F005F8001D10BD00BFB12600004B
:101370000048704738000020F8B51F460446012396
:101380000068DB02032601461840072A05DB002817
:1013900001D017A506E017A504E0002801D016A586
:1013A00000E016A5102081432160A069C01E002F17
:1013B000A06101D0401EA0612046FFF798F8002FE1
:1013C00009D038466268A1689047206A401C2062B4
:1013D000C01C206206E0206AFAE762682878A168EB
:1013E0006D1C9047761EF8D22046FFF796F8F8BDA0
:1013F0004E414E006E616E00494E4600696E6600B9
:10140000F7B516468AB0334878446C4603467C33B9
:10141000C06F5A689B680DC42E487844763003AC80
:101420000DC80DC43720C001081837211B30FEF746
:10143000AFFF05460C46803D1B3C02D564420120AF
:1014400000E000200027099010E0E0070CD00C20FD
:1014500020497843794432464C3941186846012383
:1014600000F054FA6B4607C364107F1C002CECD1CB
:10147000184F7F442E3F16E0E80712D02001C01914
:101480000EC80691089307920068F04201D198199E
:1014900008903246012306A903A800F037FA03ABEF
:1014A00007C36D10641C002DE6D10998002806D0F2
:1014B00032466946012303A800F07EFA05E00123C5
:1014C0003246694603A800F021FA0A9B07C30DB013
:1014D000F0BD0000C4260000034640000A4610B5D7
:1014E000400D0BD00121C9070F24A40200191C03D1
:1014F00064082143540D2143D20207E0002101205A
:10150000F2E7D40F490021435200401E0029F8DAC7
:10151000DB0FDB07184310BDFFB50D46144685B041
:101520004868516802F02EFA00910190A868A168FD
:1015300002F028FA02910390A868616802F022FA8A
:10154000029A12188242029201D2012000E0002089
:10155000019A0B18D2180028019202D08A4202D9AF
:1015600003E08A4201D2012000E00020009908181F
:1015700000906868A16802F005FA029A1218824287
:10158000029201D2012000E00020019A0B18D2182B
:101590000028019202D08A4202D903E08A4201D295
:1015A000012000E0002000990818009028682168B8
:1015B00040004900400849084018FA49471814E01B
:1015C00001994000C90F084300900198029940001A
:1015D000C90F08430190029803994000C90F0843BE
:1015E0000290039840007F1E039000980028E7DADD
:1015F0000898002801D0EC4E00E00026B74201DA3E
:10160000012000E00020002804902AD0F71BF806F3
:10161000C00E15D0029B2021091A039A8B401A4351
:101620000392029A019BC2408B401A430292019A94
:10163000009BC2408B4000991A430192C140009127
:101640007B110DD06F460320C11A03D50021820003
:10165000B95003E08A008100BA587A50401EF3D591
:10166000374603980299002800D0012001430898CA
:101670000291002808460CD0002800D001200199D2
:10168000019A490508430121D20AC902D2020192F6
:1016900000E001210E9B0122D207012B02D0002B7A
:1016A00003D013E0002807D120E0904204D89042F4
:1016B0000CD1019B0B4209D0019B5918019105D116
:1016C0000099491C009101D17F1C009200280DD087
:1016D000102108460020C0460498002806D00F9824
:1016E000002803D0082108460020C0462868216849
:1016F000019B009A4840C10F0598C90739430EC0A5
:1017000009B0F0BDFFB587B0099A089808995368E9
:10171000926840688968964600220393174694466B
:10172000089A12685300099A5B081268520052081E
:101730009A1A9E4BD4180A9A002A01D0352200E04A
:10174000402206920022012315460492DB070593EE
:1017500024E0002D05D175460346039E4D1BB34181
:1017600009D375466646039B491B049D9841059B1A
:101770007519AC465F4163463B4308D0059B049E08
:10178000DD0776082E435B080496059301E0521EA0
:10179000641EC50FED0749184041521C069B9A4232
:1017A000D7DB002D04D17546039A6B1A824101D212
:1017B00003200CE0039A0B466B404240134303D0D6
:1017C000014303D0012002E0022000E00020614636
:1017D00001910021009702910A99002905D06146E4
:1017E00040020143704B019102E080070023029008
:1017F0009C4201DA012000E0002007003AD01A1BC9
:10180000D006C00E15D0029D2021019C091AC540AA
:101810008C402543029C8C4000D001242543019C30
:101820000295009DC4408D4000992C430194C14015
:10183000009154111DD06D460221002202290CD1C5
:101840000320001B07E0002804DB8600AE59002EB1
:1018500000D00122401C0328F5DB081B02D58800BC
:101860002A5004E08000285810438A00A850491EDE
:10187000E3D51C460A98002802980CD0002800D016
:1018800001200199019A490508430121D20AC902A0
:10189000D202019200E00121109B0122D207012B0C
:1018A00002D0002B03D013E0002807D11FE09042A4
:1018B00004D890420CD1019B0B4209D0019B5918CE
:1018C000019105D10099491C009101D1641C00923D
:1018D00000280CD0102108460020C046002F06D05A
:1018E0001198002803D0082108460020C046089817
:1018F0000999019A009B006809684840C10F079840
:10190000C907214382600AC00BB0F0BD00B585B0A5
:10191000019300920A460146002302A8FFF7FCFD4E
:1019200002A807C805B000BDFFB50A461F4685B02E
:101930000799019301230091014602A8FFF7ECFDEE
:1019400002990398049ECA0F4900D20700920F2201
:10195000490892028C1A0021002800DB0C46450041
:1019600013486D08844214D3079A002A04DA441EEF
:101970000026104DF64302E004460D460E461021A7
:1019800008460020C046002F03D00421084600204E
:10199000C0462005E90A0843009908436905F20A90
:1019A0001143ADE602C0FFFF013C0000FF3F000015
:1019B000FF070000FFFFFF7F00B585B00193009295
:1019C0000A460146002302A8FFF79CFE02A807C8AA
:1019D000A8E7FFB50A461F4685B007990193012382
:1019E0000091014602A8FFF78DFE02990398049E1C
:1019F000CA0F4900D20700920F22490892028C1A9E
:101A00000021002800DB0C46450011486D08844287
:101A100014D3079A002A04DA441E00260D4DF6431B
:101A200002E004460D460E46102108460020C0463E
:101A3000002F03D0042108460020C0462005E90AF3
:101A40000843009908436905F20A114358E600006B
:101A5000FF070000FFFFFF7F10B50446C046C046E9
:101A60002046FEF7F7FB10BD004870471800002025
:101A7000024670B50A4392072AD11E4DEE0104C8F2
:101A800008C9541B9443344017D0D0B2D9B2401A7D
:101A90002106014310D190B299B2401A21040143AA
:101AA0000AD110021902000A090A401A2102014350
:101AB00002D1100E190E401A70BD9A42DFD010BA32
:101AC00019BA884201D9012070BD0020C04370BD01
:101AD00002780B78401C491C002A09D09A4207D191
:101AE00002780B78401C491C002A01D09A42EFD0A2
:101AF000D01A70BD0101010101491820ABBEFEE7FB
:101B000026000200704780B58AB0099008910792BC
:101B100006930898029001A9002008700490FFE73E
:101B20000498032847D8FFE700200590FFE70598B1
:101B30003F2835D8FFE709990598401C4843049988
:101B4000491CFEF71BFC039003980899884205D9AD
:101B5000FFE703980899401A009004E00898039959
:101B6000401A0090FFE7009803900298039988427A
:101B700009D9FFE70398029005980799087004981F
:101B800006990870FFE70298002804D1FFE701A931
:101B90000120087004E0FFE70598401C0590C6E7A7
:101BA00001A80078002801D0FFE704E0FFE70498CF
:101BB000401C0490B4E702980AB080BD80B500F0E4
:101BC0002FF880BD80B500F003F800F03DF880BD2F
:101BD00080B584B003A8029000F03EFA0D204004C6
:101BE000012100F0EFFB02990820088003200090FB
:101BF000887010200190C870074800F07DF9009AA5
:101C00000198029920230B808A70C870034800F065
:101C100073F904B080BDC046000C004800080048BD
:101C200080B582B00121880400F0CCFB16480090FA
:101C300009210022019200F0E7F90098019A082199
:101C400000F0E2F902B080BD80B584B001210091BE
:101C5000880400F0B7FB0098400203A902910880B5
:101C6000032088701820C8700748019000F044F9DC
:101C7000009A0198029912020A800422CA7000F0A8
:101C80003BF904B080BDC046000400481A48006813
:101C90007047C04683B00290174900200860029A3E
:101CA000D200164B1A60164A106005200860FFE744
:101CB000114800680190FFE7002001A90978C907D1
:101CC0000029009008D0FFE701A880780121084092
:101CD000414248410090FFE70098C0070028E7D143
:101CE000FFE7054908680122904308600449002085
:101CF000086003B07047C04610E000E014E000E068
:101D000018E000E080B5042000F05AF8002804D064
:101D1000FFE7042000F018F8FFE7022000F050F879
:101D2000002806D0FFE7022000F00EF800F098FF30
:101D3000FFE7082000F044F8002804D0FFE708205F
:101D400000F002F8FFE780BD81B0009000981B49C9
:101D5000086001B07047C04683B00091014600980A
:101D6000029101A908700298006801229043097845
:101D700008430299086003B07047000080B582B044
:101D800001900199086801229043086001990020A0
:101D9000086001994860019988600199C8600198BC
:101DA000C0B208380521FEF7E9FA0F228240034944
:101DB00008681043086002B080BDC04604000240BD
:101DC00081B000900348006800990840411E884196
:101DD00001B070470000024083B0029001A801707A
:101DE000684602700078002807D0FFE701A8027853
:101DF000029908681043086006E001A80278029979
:101E0000086890430860FFE703B0704782B0019014
:101E100000910198006816490840009A117A937D54
:101E20001943137C1943537C1943538A1943938AEA
:101E30001943138B1943528B1143084301990860CE
:101E4000019800680121C90388430099898B0843E0
:101E5000019908600098C06801994860009800687E
:101E600001998860009840680199C86002B0704785
:101E70000F80FFFF81B0009000990020086000995A
:101E80004860009908720099C86000990874009928
:101E90004874009948820099888200998875009951
:101EA0000883009948830099888301B07047000037
:101EB00080B588B0079001210291880300F0B0FA44
:101EC00003A8009000F057FF009907980390302076
:101ED00088800020C88008818881182048810548B2
:101EE000019000F0EBFE0198029900F0C7FE08B0E7
:101EF00080BDC0460038014087B006900591059826
:101F0000C0780F21084000900598C078C0060028CE
:101F100006D5FFE705988178009808430090FFE711
:101F20000698019003A900200870FFE703A8007835
:101F3000072820DCFFE70398800004A908700598B3
:101F4000008803A90978C840C00700280DD0FFE722
:101F50000198006804A90A780F21914088430099EC
:101F60009140084301990860FFE7FFE70398401C90
:101F700003A90870DAE70698001D019005984078DB
:101F8000029003A900200870FFE703A80078072843
:101F90001FDCFFE70398800004A90870029803A9DA
:101FA0000978C840C00700280DD0FFE701980068F5
:101FB00004A90A780F219140884300999140084371
:101FC00001990860FFE7FFE70398401C03A9087028
:101FD000DBE70598C078282807D1FFE70598028835
:101FE00006994869104348610CE00598C078482874
:101FF00007D1FFE705980288069908691043086130
:10200000FFE7FFE707B0704786B0059004A80170AE
:1020100003A90A7001784907C90E02AA1170007855
:10202000072804DCFFE705982030009003E00598BE
:1020300024300090FFE7009801900199086802AAF7
:1020400013780F229A40904303AA12789A401043C3
:10205000086006B07047000081B0009000995748B2
:10206000088000990120887000990420C87001B090
:102070007047C04683B0029001A801806846027094
:102080000078002805D0FFE701A8008802990861C0
:1020900004E001A8008802994861FFE703B0704797
:1020A000044800687047C04602490868401C086040
:1020B0007047C0467C000020B0B581B00090009809
:1020C0008078002820D0FFE700980078154A104358
:1020D000154908400068009B19788C07E40EFF251D
:1020E000A540A8435B789B01DBB2A3401843891845
:1020F000032291430860009801781F2001400120CD
:1021000088400A49086008E0009801781F200140D3
:102110000120884002490860FFE701B0B0BDC04619
:1021200080E100E000E400E0FCE400E000E100E029
:1021300083B0019001980090FF2827D0FFE7009816
:10214000FF21090288421ED0FFE700981B49884200
:1021500022D0FFE70098FF21090488420FD0FFE753
:102160000098174988421AD0FFE70098154988421D
:102170000FD0FFE700981449884213D016E0FF20E3
:102180000002029016E0FF20029013E00D4802903A
:1021900010E00A4802900DE0094802900AE00A485F
:1021A000029007E0FF200004029003E0FF200004FB
:1021B0000290FFE7029803B07047C046FFFF00009F
:1021C000FF00FF0000FFFF00FFFFFF0080B582B0AF
:1021D00001A800900F21017002214170002181703F
:1021E000FFF76AFF00980921017001214170817099
:1021F000FFF762FF02B080BD80B500F07FF8FFF707
:10220000E5FF00F095F800F001F880BD10B58CB046
:102210009E480121029100F01BF937480190FFF719
:10222000ADFD04A80090FFF725FE00990198029BE0
:102230000D4A04920022059210240C7207920A742F
:1022400080244C745C024C828A828A755B030B8307
:102250004A838A83FFF7DAFD0198029A0E21FFF77D
:10226000BBFD0CB010BDC0463C00004080B588B03E
:10227000079006A80190018007991F48049000F07C
:1022800065FE01990498098800F068FE0120059018
:10229000800703900021029100F040FC029903980E
:1022A00000F050FC0398059900F070FB0398059925
:1022B00000F082FB04980599FFF74EFD08B080BD41
:1022C00080B582B00120800700900021019100F0CC
:1022D0005DFB0098019900F06FFB01990648FFF73C
:1022E0003BFD0098019900F019FC0098019900F05D
:1022F00029FC02B080BDC0460800024080B582B013
:102300000920C0060090012100F0C2F800980222C6
:102310001146FFF779FE009801A904220A801822CD
:10232000CA7003228A70FFF7E7FD02B080BD00008B
:1023300010B58CB001210291084600F059F809A8A7
:10234000009000F075FC1D4800681D49FEF716F866
:10235000009902460298521E0A92002204920A80B4
:102360000A818A728A708007039000F0FFFB05A83B
:10237000019000F0BEFB0199029B0398049A60242F
:102380000C704B7006920A7200F05EFB03980821F5
:1023900000F09EFB0299039800F0D8FA029A039885
:1023A000D10200F021FB0398049900F0EFFA0398A2
:1023B000049900F001FB0CB010BDC04600000020E5
:1023C00010EB090082B00190684601700078002887
:1023D00006D0FFE7019A684908681043086005E0E5
:1023E000019A6549086890430860FFE702B07047AA
:1023F00082B00190684601700078002806D0FFE79F
:10240000019A064908681043086005E0019A0349EB
:10241000086890430860FFE702B070471C10024054
:1024200082B00190684601700078002806D0FFE76E
:10243000019A064908681043086005E0019A0349BB
:10244000086890430860FFE702B070471810024028
:1024500082B001906846017001980C49884212D1FF
:10246000FFE768460078002806D0FFE74249086881
:1024700001221043086005E03F49086801229043AB
:102480000860FFE7FFE702B07047C0460000024067
:1024900083B0029001A80170029800900921C9063A
:1024A00088420FD0FFE70098304988421ED0FFE7EE
:1024B00000982F4988422DD0FFE700982D49884287
:1024C0003CD04FE001A80078002807D0FFE72A4958
:1024D0000868012252041043086006E02649086893
:1024E0000122520490430860FFE73CE001A8007815
:1024F000002807D0FFE72049086801229204104312
:10250000086006E01C4908680122920490430860B4
:10251000FFE728E001A80078002807D0FFE7164968
:1025200008680122D2041043086006E012490868D6
:102530000122D20490430860FFE714E001A800786C
:10254000002807D0FFE70C49086801221205104354
:10255000086006E0084908680122120590430860F7
:10256000FFE700E0FFE703B07047C0460004004803
:1025700000080048000C00481410024080B500F02C
:1025800027F8D8490968C9B20A091049895CC840C6
:1025900080BDC04680B5FFF7F1FFD2490968072228
:1025A000120211400A0A0949895CC84080BDC04630
:1025B00080B5FFF7E3FFCB4909680722D20211403B
:1025C000CA0A0249895CC84080BDC0460400002098
:1025D00080B588B0C34800680C21084003900428E7
:1025E00004D0FFE70398082803D032E08F48079013
:1025F00032E08F480068C00700280ED0FFE78C4803
:10260000006881071648894A01920029029001D486
:10261000019802900298009002E084480090FFE741
:102620000098069082480168FF2212041140090CAC
:10263000491C05910068072109020840000A401C56
:1026400004900699059848430499FDF797FE079072
:1026500002E076480790FFE7079808B080BDC046C3
:1026600000093D0083B01346024602A8027001AA89
:10267000117069460B7000780004127812028018FD
:102680000978401803B0704780B500F001F880BDAC
:1026900010B58EB092490868012210430860FFE728
:1026A0008F4800688007002801D4FFE7F8E7584802
:1026B000089058490160584A07921168102319433D
:1026C0001160116807230693994311600068401E4A
:1026D0005249FDF753FE0699079A034608980D9351
:1026E0000D9B0B401168194311607E4A11684C4BD9
:1026F000194011601168902319431160116811602D
:1027000000684849884207D3FFE7764908680122F4
:102710009202104308600DE03D480068424988423B
:1027200007D3FFE76F49086801229202104308604F
:10273000FFE7FFE7364801683C480AAA049209AB64
:102740000393FFF7E0F9039B0498394905910A6860
:102750000324A2430A600C68012294430C601B7896
:10276000072423400B9300787F2318400C90314BB3
:10277000186814072043186008682F4B1840086039
:102780000C9803040B980002034308681843086080
:1027900008683C239843086008681843086050495B
:1027A0000868120610430860FFE74D480068800182
:1027B000002802D4FFE700BFF7E74A490868032270
:1027C000904308600868022210430860FFE745480C
:1027D00000680C210840082802D0FFE700BFF6E798
:1027E00001200290FFF756FA02983E4A01921168C2
:1027F000102399431160FFF74DFA019A029811686E
:10280000802399431160FFF745FA0EB010BDC04612
:102810000000002000D8B8050020024000366E01FC
:102820000FC0FFFF01A24A040151250200127A00E5
:10283000501002401C100240FFF800FF80B584B029
:1028400002900298401E000E002803D0FFE70120EE
:10285000039011E00298401E094908600020019091
:10286000C043032100F008FB019806490860064AAE
:10287000072111600390FFE7039804B080BDC046B4
:1028800014E000E018E000E010E000E080B5FFF7A1
:10289000FDF9FFF709FC80BD10B511490868012357
:1028A000184308600F4A10680F4C204010600868F9
:1028B0000E4C2040086008689B049843086010682C
:1028C000C3231B04984310600868094A104008603D
:1028D0009F20000407490860FFF7D6FE10BDC046E0
:1028E00000100240041002400CC0FFF8FFFFF6FE8B
:1028F000FFFF8F000810024080B582B001900021D8
:10290000C84300F0B9FA0198FFF798FF02B080BD04
:1029100080B50121880700F07EF8002807D0FFE786
:102920000121880700F028F800F092F9FFE7012064
:102930008007082100F06FF8002806D0FFE701208B
:102940008007082100F018F8FFE780BD82B00190F1
:10295000684601700078002806D0FFE701990868F2
:1029600080221043086005E00199086880229043A6
:102970000860FFE702B0704782B001900091009AB2
:10298000019908699043086102B0704782B00190D4
:10299000684601700078002806D0FFE701990868B2
:1029A00001221043086005E0019908680122904364
:1029B0000860FFE702B0704782B00190684601707E
:1029C0000078002807D0FFE70199486C0122D20364
:1029D0001043486406E00199486C0122D2039043F9
:1029E0004864FFE702B0704783B0029001916846E7
:1029F00002700078002806D0FFE7019A0299C868A3
:102A00001043C86005E0019A0299C8689043C86005
:102A1000FFE703B0704783B002900191029801690B
:102A2000019A00201142009008D0FFE70298C06888
:102A300001990840411E88410090FFE7009801215C
:102A4000084003B07047000082B0019000910198E7
:102A5000C069702188430099097808430199C861C9
:102A60000198006A032109028843009A117A52787A
:102A700011430902084301990862009840680199CE
:102A8000C86301986549884205D0FFE70198654908
:102A900088421AD1FFE70198006A03218A02904315
:102AA000009B5A7A9B781A4312021043019A1062D3
:102AB0000198406809038843009A5189928911431B
:102AC0000901084301994860FFE702B07047C0461A
:102AD00083B0009101460098029101A90870029804
:102AE000C06908229043097808430299C86103B07D
:102AF000704781B0009000990020087000994870DC
:102B0000009988700099486000990872009948728D
:102B1000009948810099888101B0704782B0019086
:102B20000091019801218907884204D1FFE70098AC
:102B30000199C86304E0684600880199C863FFE70B
:102B400002B0704782B0019000910198012189077D
:102B5000884204D1FFE700980199486204E0684682
:102B6000008801994862FFE702B0704782B0019087
:102B7000009101980068032109028843009909899E
:102B800008430199086001982449884210D0FFE762
:102B900001980121890788420AD0FFE7019820495E
:102BA000884205D0FFE701981E4988420AD1FFE715
:102BB0000198006870218843009989780843019939
:102BC0000860FFE70198154988420FD0FFE7019898
:102BD000144988420AD0FFE701981349884205D07A
:102BE000FFE70198114988420AD1FFE70198006B7D
:102BF000FF2188430099897A401801990863FFE70B
:102C0000009840680199C86200980088019988621C
:102C100001990120486102B07047C046002C014074
:102C20000004004000080140004401400048014009
:102C300081B00090009A0020C14351600099088043
:102C400000990881009988700099887201B07047D6
:102C500002490868401C08607047C04678000020A0
:102C600080B505490878401C0870E64813214901E1
:102C70004058804780BDC046AD01002083B0009120
:102C800001460098029101A908700298806901220A
:102C90009043097808430299886103B0704783B074
:102CA000009101460098029101A90880029880686D
:102CB00009880840411E884103B0704780B584B040
:102CC00003900291002001900398C069302188434D
:102CD0000299097908430399C8610398C06944219E
:102CE00088430299897908430399C8610398C069A8
:102CF000032188430299097A08430399C86103981C
:102D00008069182188430299498908430399886199
:102D100003988069042188430299097B0843039939
:102D2000886103983449884204D1FFE7FFF740FCEB
:102D3000019003E0FFF72EFC0190FFE70198029954
:102D40000968FDF71BFB00090399086201980299C5
:102D50000968FDF713FB0F2108400399486204B08E
:102D600080BDC04682B0019068460180007801991C
:102D7000086002B0704781B0009000994B20C001FC
:102D8000086000993020087100990020887100992E
:102D90000872009A182151810099087301B0704798
:102DA00080B582B001900091FFE70098411E00912C
:102DB000002809D0FFE701980021405600F006F8EE
:102DC0000198401C0190F0E702B080BD80B582B050
:102DD00001A90870FFE708480121FFF760FF0028FC
:102DE00001D1FFE7F7E7002101A8405681B2024870
:102DF000FFF7B8FF02B080BD0038014080B582B057
:102E0000014668460170007854280DDCFFE76846EB
:102E1000007803214143FF20401AC9B2C0B200220A
:102E2000FFF720FC019024E068460078A92810DC18
:102E3000FFE7009955396846017000780321414346
:102E4000FF20401ACAB2C1B20020FFF70BFC01906C
:102E50000FE00099AA3968460170017803204843C1
:102E6000FF21091AC0B2CAB20021FFF7FBFB019093
:102E7000FFE7019802B080BD70B582B0024601A89C
:102E80000270009100214056002816D4FFE700246C
:102E900001A908570322D3431840174A80580957FD
:102EA0008C07E50EFF24AC40A043009CA401E4B2D3
:102EB000AC402043194088501AE001A908780F243B
:102EC000204008380322D34318400A4A805800257E
:102ED00049578D07EE0EFF25B540A843009DAD0173
:102EE000EDB2B54028432140083919408850FFE72A
:102EF00002B070BD1CED00E000E400E080B582B0DF
:102F0000FFF7CEF80D490968401A0D49884212D3DF
:102F1000FFE70C48019002780B480821FFF7AAF858
:102F200001990878401E421E90410870FFF7B8F8DA
:102F300002490860FFE702B080BDC046A80000203B
:102F4000E9030000AC000020000C004882B00190B2
:102F5000009100980199C86002B0704782B001905A
:102F60006846018000880199486002B070470000FF
:102F700080B586B0002005901F4800687D21C900FB
:102F8000FDF7FCF9FFF7B8FCFEF718FEE120400260
:102F9000FEF78EFFFEF716FEFFE717480368174897
:102FA0000390174A01210902FDF77CF90398FDF708
:102FB00099F901460398FFF7F3FEFFE7FFF71CF9C5
:102FC000104801901049114A00F0DEFA01991048AA
:102FD000029000F01FF80298642100F04DF8FFF70E
:102FE0005FF80490FFE7FFF789FF00F0B7FC08489F
:102FF00000F056F8F7E7C04600000020AD000020C2
:10300000883B0008B00100206D220008C1220008A2
:103010008000002080B584B003900291FFE714483F
:103020000190144A6421FDF73DF90198FDF75AF922
:1030300001460198FFF7B4FEFFE702980399486044
:1030400003990020087203994872039A64219172CF
:103050000399C860039908610399486103998861DD
:103060000399C861039908620399486204B080BD5E
:1030700060040020B33B000880B582B0019000914D
:1030800001990A20087200980199086101990020AD
:103090004872FFF705F80199486102B080BD000051
:1030A00080B59EB01D90FEF7FBFF1C901C981D99EB
:1030B0004969401A1B901D98007A0B900A2800D984
:1030C00045E20B98810001A040588746F93000087E
:1030D000FB3000081D31000867310008B1310008DD
:1030E000F73100087F320008093300086733000811
:1030F00011340008C534000829E21D9A5068517A3D
:10310000D26800F0D6FB1D98406800F019FC1C98AE
:103110001D9948611D990020087218E21B981D999D
:10312000896988421ED9FFE71D99C869401CC8619A
:103130001D99C869096A884207D3FFE71D99086A83
:10314000C8611D9900200872FFE71D994868097F32
:1031500000F044FA1D98406800F0F2FB1C981D999D
:103160004861FFE7F3E11B981D99896988421ED9E0
:10317000FFE71D99C869401EC8611D99C869496A61
:10318000884207D8FFE71D99486AC8611D99002049
:103190000872FFE71D994868097F00F01FFA1D9823
:1031A000406800F0CDFB1C981D994861FFE7CEE117
:1031B0001B981D99096988421CD9FFE71D98089042
:1031C000C168EA480022099200290A9001D00998B2
:1031D0000A9008990A98C8601D9A5068517AD26876
:1031E00000F067FB1D98406800F0AAFB1C981D9931
:1031F0004861FFE7ABE11B981D99096988423DD9F9
:10320000FFE71D99487A0002496899229200895C7B
:10321000FDF7B4F801461AA801700078FFF7EEFD3B
:103220001990FFE71D98437A19980090CD480790B0
:10323000CD4A6421FDF736F80798FDF753F80146AB
:103240000798FFF7ADFDFFE71D994868497A199A7D
:1032500000F02FFB1D98406800F072FB1D9906914D
:10326000487A401C496899229200895CFDF786F8EB
:10327000069841721C981D994861FFE767E11B9809
:103280001D99096988423ED9FFE71D990591487A41
:10329000401C496899229200895CFDF76FF80598F7
:1032A000417200201890FFE718981D9949689922EB
:1032B0009200895C88421EDAFFE718981D994A7AC5
:1032C00080180002496899229200895CFDF760F835
:1032D000014617A801700078FFF790FD16901D9821
:1032E000406818A90978169A00F0E3FAFFE71898E1
:1032F000401C1890D8E71D98406800F021FB1C98EE
:103300001D994861FFE722E11B981D9909698842D0
:1033100028D9FFE71D98C06815901D994868497A1B
:10332000159A00F0C6FA1D98406800F009FB1D9937
:10333000487A401C48721D99487A4968992292003F
:10334000895C88420ADBFFE71D99002048721D98BE
:10335000C068FEF7EDFE1D99C860FFE71C981D9937
:103360004861FFE7F3E01B981D99096988424ED92F
:10337000FFE71D98C0681490002013901290FFE79B
:1033800012981D99496899229200895C884221DA35
:10339000FFE712981D99497A41186F4848436F49D1
:1033A00040186F49884208D8FFE71D98406812A965
:1033B0000978149A00F07DFA07E01D98406812A978
:1033C0000978139A00F075FAFFE7FFE71298401C9E
:1033D0001290D5E71D98406800F0B2FA1D9804904D
:1033E000407A401C0321FCF7C9FF049841721D98E4
:1033F000407A002807D1FFE71D98C068FEF798FEC5
:103400001D99C860FFE71C981D994861FFE79EE081
:103410001B981D990969884253D9FFE71D980390AD
:10342000407A401C0321FCF7A9FF03984172002059
:103430001190FFE711981D99496899229200895CC3
:10344000884236DAFFE7119800021D990291496817
:1034500099229200895CFCF79BFF02994A7A0A2123
:103460005143411810A801700078FFF7C7FC0F9076
:1034700011981D99497A41183748484337494018EF
:103480003749884208D8FFE71D98406811A9097894
:103490000F9A00F00EFA07E01D98406811A909780C
:1034A000002200F006FAFFE7FFE71198401C119098
:1034B000C0E71D98406800F043FA1C981D994861C8
:1034C000FFE744E01B981D99096988423ED9FFE750
:1034D0001D980190407A401C0C21FCF74FFF019889
:1034E000417200200E90FFE70E981D9949689922BD
:1034F0009200895C884221DAFFE70E981D99497A8B
:1035000040180C21FCF744FF0D910D980322424313
:1035100010488118805C00044A781202801889786B
:1035200040180C901D9840680EA909780C9A00F07C
:10353000C0F9FFE70E98401C0E90D5E71D98406833
:1035400000F0FEF91C981D994861FFE7FFE71EB0E7
:1035500080BDC046643B0008ABAAAAAAAAAAAA2AB0
:1035600054555555C40400209F3B0008FFFFFF0041
:1035700080B582B0019001984B21C900415A2222A6
:10358000FCF7D2FE02B080BD80B584B003900291FA
:10359000019203984B210091C90041520298039A6D
:1035A00097239B00D0500198039A13235B01D050BE
:1035B000039A992083001920D0540398415A22225B
:1035C000FCF7B2FE00990398DA4A8018FCF7D1FEA6
:1035D0000398FFF7CDFF04B080BDC04610B598B08A
:1035E000179016A801700178FF2048436421FCF76A
:1035F000C5FE15A9088000201490FFE714980A90D2
:1036000017984B21C900405A1821FCF7B7FE014614
:103610000A98884200D3B3E01499182048431390C5
:103620001798149B03210A465A438018C14A825CAA
:1036300012A80270179B149C0A466243D218BE4B14
:10364000D25C11AB06931A70179A149B59438918D0
:10365000BA4A895C10AA07921170017815A80990DE
:1036600000884843FF210891FCF788FE069A0899D4
:10367000034609980FAC2380127800885043FCF76A
:103680007DFE079A0899034609980EAC23801278AC
:1036900000885043FCF772FE0DA9088000200B90B3
:1036A0000B90FFE70B9807281DDCFFE70EA80088AA
:1036B0000B9A0721891AC840C1074320222204928D
:1036C0000029059001D10498059005980CA908706F
:1036D0000C981799139A531C13938854FFE70B986F
:1036E000401C0B90DEE700200B90FFE70B980728AB
:1036F0001DDCFFE70FA800880B9A0721891AC84034
:10370000C1074320222202920029039001D102988E
:10371000039003980CA908700C981799139A531CDE
:1037200013938854FFE70B98401C0B90DEE70020B2
:103730000B90FFE70B9807281DDCFFE70DA800881A
:103740000B9A0721891AC840C10743202222009200
:103750000029019001D10098019001980CA90870EE
:103760000C981799139A531C13938854FFE70B98DE
:10377000401C0B90DEE7FFE71498401C14903DE7D7
:1037800018B010BDB0B590B00C4614990F900EA8AB
:1037900004700DAC22700CAA13700BAA1170007883
:1037A0000F9999229200895C884201DBFFE77EE055
:1037B0000F980EA9079109780DAA12780CAB1B7807
:1037C0000BAC2478009400F08BF80798017818204F
:1037D00048430A90002008900890FFE708980728BF
:1037E0001DDCFFE70CA80078089A0721891AC84059
:1037F000C1074320222205920029069001D1059895
:103800000690069809A9087009980F990A9A531CFE
:103810000A938854FFE70898401C0890DEE70020D0
:103820000890FFE7089807281DDCFFE70DA800783F
:10383000089A0721891AC840C1074320222203920F
:103840000029049001D103980490049809A90870F4
:1038500009980F990A9A531C0A938854FFE708980D
:10386000401C0890DEE700200890FFE70898072832
:103870001DDCFFE70BA80078089A0721891AC840C9
:10388000C1074320222201920029029001D1019810
:103890000290029809A9087009980F990A9A531C76
:1038A0000A938854FFE70898401C0890DEE710B0A0
:1038B000B0BD10B586B0029101460298059104A9E9
:1038C0000870039205980978039C220CD2B2230A4F
:1038D000DBB2E4B20094FFF755FF06B010BD000064
:1038E000B0B586B000930C46009903460A9805933C
:1038F00004AB1C7003AC227002AA117001A90870FD
:103900000398059A1D7803210C466C431219094C43
:1039100010550298059C1D780A466A431219064CF8
:1039200010550198059A1B7859438918034A885401
:1039300006B0B0BD6502000066020000670200002C
:1039400080B582B0019001989721890042584B219F
:10395000C900415A904702B080BD000080B5FEF713
:103960009FFB06490968401A0549884205D3FFE7CD
:10397000FEF796FB01490860FFE780BD280500209F
:10398000E9030000F8B5040C8BB2264682B25E4310
:10399000104658430D0C370C36040021801916468A
:1039A00079416E43370C36048019264679416E43BF
:1039B0008919F8BD4900CA020243100000D0042052
:1039C0004A0D01D001221043044A490D914201D110
:1039D00002210843012800D105207047FF0700009D
:1039E00030380A2801D201207047002070470000BB
:1039F00010B500290AD00878002807D00548784477
:103A0000FEF736F8002801D0002010BD02487844A7
:103A100010BD0000F2010000EA01000010B500290D
:103A20000AD00878002807D005487844FEF720F827
:103A3000002801D0002010BD0248784410BD0000CD
:103A4000E2010000DA01000003B402487844844631
:103A500003BC6047BDD2FFFF03B4024878448446EC
:103A600003BC604725D5FFFF0000000000000000F8
:103A700030313233343536373839414243444546A4
:103A8000403058003031323334353637383961629E
:103A900063646566403078000400000800000000A0
:103AA000000000020001000010303132333435369E
:103AB000373839616263646566787000303132335B
:103AC0003435363738394142434445465850000072
:103AD00002400000000000A00000000005400000BF
:103AE000000000C8000000000C4000000000409CE6
:103AF00000000000194000000020BCBE00000000D3
:103B000034400000BFC91B8E00000004B540000017
:103B1000504BCFD06607E2CF010000006C4100009F
:103B20003E8251AADFEEA73401000000D942000016
:103B3000DCB5A0E23A301F97FFFFFFFFB44500005D
:103B4000FD25A0C8E9A3C14FFFFFFFFFFF3F000015
:103B50000000008000000000FF3F00000000008027
:103B60000000000000FF0021DE0042BD00639C0059
:103B7000847B00A55A00C63900E71800F3000CD278
:103B8000002DB1004E90006F4D4355204672657177
:103B900075656E63793A20256420487A0D0A0052D3
:103BA00061696E626F773A2025642C203078255841
:103BB0000D0A004E656F706978656C20416E696D05
:103BC0006174696F6E20496E69740D0A000000000F
:103BD000203D00080000002018000000040100083B
:103BE000383D000818000020180B000020010008D4
:103BF0001C00000043000000F8FFFFFF0C00000065
:103C00000E0000000F0000002E0000001001000058
:103C100043000000F8FFFFFF0040404040404040AC
:103C2000404041414141414040404040404040408F
:103C30004040404040404040400502020202020233
:103C40000202020202020202022020202020202082
:103C50002020200202020202020290909090909096
:103C60001010101010101010101010101010101054
:103C700010101010020202020202888888888888C8
:103C800008080808080808080808080808080808B4
:103C900008080808020202024000000000000000BC
:103CA0000000000000000000000000000000000014
:103CB0000000000000000000000000000000000004
:103CC00000000000000000000000000000000000F4
:103CD00000000000000000000000000000000000E4
:103CE00000000000000000000000000000000000D4
:103CF00000000000000000000000000000000000C4
:103D000000000000000000000000000000000000B3
:103D100000000000000000000000000000000000A3
:103D200000D8B805000000000102030401020304EA
:083D300006070809000000006D
:04000005080000C12E
:00000001FF
