:020000040800F2
:10000000C807002099020008A7020008A9020008FA
:1000100000000000000000000000000000000000E0
:10002000000000000000000000000000AB0200081B
:100030000000000000000000AD020008C5470008F5
:10004000B1020008B1020008B1020008B1020008C4
:10005000B1020008B1020008B1020008B1020008B4
:10006000B1020008B1020008B1020008B1020008A4
:10007000B1020008B1020008B1020008B102000894
:10008000B1020008B1020008B1020008B102000884
:10009000B1020008B1020008B1020008B102000874
:1000A000B1020008B1020008B1020008B102000864
:1000B000B1020008B1020008B1020008000000000F
:1000C00000F002F800F0BDF80CA030C80838241881
:1000D0002D18671EA246AB4654465D46AC4201D180
:1000E00000F0AFF87E460F3EB6460FCC01263342F5
:1000F00000D0FB1A3343A246AB4618476C510000B0
:100100008C510000103A02D378C878C1FAD852074F
:1001100001D330C830C101D504680C6070470000BD
:100120000023002400250026103A01D378C1FBD813
:10013000520700D330C100D50B60704710B56E294F
:1001400002D100F0C7FB10BD702902D100F003FD01
:1001500010BD662902D104F06FFF10BD652902D1E0
:1001600004F06AFF10BD672902D104F065FF10BDDD
:10017000612902D104F068FF10BD03681B0A01D396
:1001800080231943692902D100F06EFB10BD642958
:1001900002D100F069FB10BD752902D100F064FBAB
:1001A00010BD6F2902D100F081FC10BD782902D169
:1001B00000F0BEFC10BDE92902D100F01DFC10BD0D
:1001C000E42902D100F018FC10BDF52902D100F09D
:1001D00013FC10BDEF2902D100F074FC10BDF8290A
:1001E00002D100F0B3FC10BD0368DB0901D380230A
:1001F0001943632902D101F096F910BD732902D188
:1002000001F099F910BDE32902D101F0A3F910BD65
:10021000F32902D101F0A6F910BD002010BD1FB5D1
:1002200001F000FA04000020002104F097FE401CB9
:1002300060600020002104F07BFEE0601FBD10B56F
:1002400010BD01F0C8F91146FFF7E9FF04F000FE08
:1002500001F05CFD03B4FFF7F2FF03BC01F0A6FD63
:1002600070B505460C46164602E00FCC0FC5103E91
:10027000102EFAD2082E02D303CC03C5083E042E5A
:1002800007D301CC01C5361F03E021782970641C17
:100290006D1C761EF9D270BD094880F308880948A4
:1002A000804709480047FEE7FEE7FEE7FEE7FEE776
:1002B000FEE7000005480649064A074B7047000064
:1002C000C8070020D1470008C1000008C80100206D
:1002D000C8070020C8030020C80300200FB41CB5C5
:1002E0000C0007AA009007D04142A14202D3001996
:1002F000401E01E00020C043074B7B44694601904B
:10030000069800F000FB0021002C01D0009A11702B
:100310001CBC08BC04B018472F06000030B5441CB4
:1003200003E00178401C00290DD08107F9D10B4B67
:10033000DD0104C8D11A91432940FAD0001B0A06F6
:1003400003D0C01E30BD001B30BD0A0401D0801E8A
:1003500030BD0902FCD0401E30BD0000010101018A
:10036000F8B5042A2CD3830712D00B78491C0370EC
:10037000401C521E83070BD00B78491C0370401C95
:10038000521E830704D00B78491C0370401C521E78
:100390008B079B0F05D0C91ADF002023DE1B08C97D
:1003A0000AE0FFF75DFFF8BD1D4608C9FD401C4689
:1003B000B4402C4310C0121F042AF5D2F308C91A06
:1003C000521EF0D40B78491C0370401C521EEAD414
:1003D0000B78491C0370401C012AE4D40978017091
:1003E000F8BD01E004C0091F0429FBD28B0701D529
:1003F0000280801CC90700D00270704700290BD012
:10040000C30702D00270401C491E022904D383078F
:1004100002D50280801C891EE3E70022EEE700225D
:10042000DFE70000002203098B422CD3030A8B4232
:1004300011D300239C464EE003460B433CD40022DC
:1004400043088B4231D303098B421CD3030A8B42EE
:1004500001D394463FE0C3098B4201D3CB01C01ABC
:10046000524183098B4201D38B01C01A5241430987
:100470008B4201D34B01C01A524103098B4201D375
:100480000B01C01A5241C3088B4201D3CB00C01AE2
:10049000524183088B4201D38B00C01A524143085A
:1004A0008B4201D34B00C01A5241411A00D201467F
:1004B0005241104670475DE0CA0F00D04942031018
:1004C00000D3404253409C46002203098B422DD367
:1004D000030A8B4212D38901FC2212BA030A8B420F
:1004E0000CD3890192118B4208D3890192118B425E
:1004F00004D389013AD0921100E08909C3098B42E3
:1005000001D3CB01C01A524183098B4201D38B0125
:10051000C01A524143098B4201D34B01C01A5241C8
:1005200003098B4201D30B01C01A5241C3088B420D
:1005300001D3CB00C01A524183088B4201D38B00F8
:10054000C01A5241D9D243088B4201D34B00C01A82
:100550005241411A00D201465241104663465B1097
:1005600001D34042002B00D54942704763465B10DF
:1005700000D3404201B50549002802DC491C08406F
:1005800000E00846C046C04602BD00BFFFFFFF7F37
:100590007047704770470000F0B5FF252D04C6096D
:1005A000C209FF2704462E400137CB093E4348408D
:1005B0002A402B400746002A6BD0002B69D0AA4264
:1005C00067D0AB4265D0002800DA32460125ED0540
:1005D00029432C4309022002090AD21A4B0C7F241A
:1005E000E31A434C000A7C44E35C7D242404121982
:1005F00014145B00A218884201D3521C00E0400092
:1006000049420C465C4324115C43DB016415E3184A
:10061000040A5C43C502200D0C4644436419250AB4
:100620005D432303EC0C0D46654300030019EB18F2
:100630004C42A34201D35B18401CD4052018002B68
:1006400007D05B00C91804D3401C002901D1400821
:1006500040003F2189048A4209D3002A08DC1106A0
:10066000090F04D0032149074018C00FC007F0BD8F
:1006700001224100120689187F2252069142F6D2C9
:1006800005214907C84201D59010F0BDFF20C005E3
:10069000F0BD002F00DA32461648AA4207D2AB421C
:1006A00005D21902090E17D0F80FC007F0BDFF25BB
:1006B00063002D06AB42F9D84900A942F6D8AB42F7
:1006C00001D1A942F2D0A94201D1002101E061008B
:1006D0004908D0050843F0BD1102090EFBD0FF20E8
:1006E0000243D005F0BD0A460146104654E700001B
:1006F0006E4A00000000C07F10B501469E24000233
:10070000CA15A307002A02D01843002A04DBA21A44
:10071000002A0CDDD04010BD1206120E01D140009F
:100720004008A21A03D4D04040420028F3DDFF2243
:1007300048001206904201D9002010BDC817C043DE
:10074000584010BD1F22030C02D10F2200041CD000
:10075000030E01D10002083A030F01D10001121F5C
:10076000830F01D18000921E002801DB4000521E41
:10077000D2055118021251181922904004D3491C75
:10078000002801D14908490008467047C10FC90730
:1007900000D04042012292071143D3E7012189078B
:1007A000D0E770B5044685690068C10601D53026DA
:1007B00000E02026C00707D070BD62683046A168FF
:1007C0009047206A401C20626D1EF6D570BD70B542
:1007D000044685690078C00707D170BD6268A168CA
:1007E00020209047206A401C20626D1EF6D570BD07
:1007F00009684A0501D540B27047C905FCD500B269
:10080000704709684A0501D5C0B27047C905FCD5D3
:1008100080B2704770B50C460546012A05D028788D
:10082000800600D5EA69002302E0012305E05B1C95
:10083000934202D2E05C0028F9D1A869E618C01AF8
:10084000A861286AC01828622846FFF7AAFF04E0BA
:100850006A682078A968641C9047B442F8D3284697
:10086000FFF7B5FF70BD0000F7B5002575291068CA
:10087000009914A611D0FFF7BBFF002802DA40420E
:1008800011A608E0009909688A0701D50FA602E0C1
:10089000490704D50EA6012501E0FFF7B2FF009F2E
:1008A0000024243704E000F082FE30313955641C06
:1008B0000028F8D12B4632462146009800F059FA1C
:1008C000FEBD0000000000002D0000002B00000015
:1008D0002000000011680268006A530501D5087005
:1008E00009E0D30501D5088005E0130602D5C2173B
:1008F00005C100E0086001207047000001694A1C42
:1009000002610878704700B58FB00291002105910F
:10091000054901937944039111460490684600F01B
:1009200027F90FB000BD0000E5FFFFFF0CC9083933
:100930009A4202D2531C0B6010707047F7B5044600
:10094000154686B02B487844002703C83E460090E1
:10095000019111E007986A467100415A02A800F01F
:1009600005FE411C07D02178890603D5E2693918B4
:1009700091420ED83F18761C2078800602D5E06997
:10098000B84206DDAE42E5DB07987100405A002808
:10099000E0D1A069C01BA0612046FFF702FF154807
:1009A00078445A3803C800900020019116E04100B5
:1009B0006A460798415A02A800F0D8FD0590401CED
:1009C0000AD0002505E0626802A8A168405D904752
:1009D0006D1C05988542F6D30498401CB0420490E3
:1009E000E5DB206AC01920622046FFF7F0FE09B05F
:1009F000F0BD00004E470000F7B5D21D0025D2081B
:100A000015A6D200F52905CA11D0002A05DA002161
:100A10004042914111A60A4608E0009909688B07F7
:100A200001D50FA602E0490701D50EA60125114602
:100A3000009F0024243704E000F05EF930323A557C
:100A4000641C02460A43F7D12B46324621460098E1
:100A500000F08FF9FEBD0000000000002D00000036
:100A60002B0000002000000070B504460021243453
:100A700008E05507D2086D0F303565545D072A43ED
:100A8000DB08491C15461D43F3D10468002310A25E
:100A9000250708D520252C400C4304D0C469012328
:100AA0000CA2641EC46100F064F970BD10B5044668
:100AB00021461068FFF7A5FE002302462046FFF7F7
:100AC000D3FF10BDD21DD108C9000CC9CCE700006E
:100AD0000000000030000000F8B50F46018809054D
:100AE00002D5224C7C4402E0204C7C440E34054666
:100AF0000021243508E016071209360FA65D6E5452
:100B00001E0732431B09491C16461E43F3D12246D9
:100B100004780023240705D5702F06D0002901D0C2
:100B20000223113200F025F9F8BD01231032F9E754
:100B300070B504460D4621461068FFF762FE00239B
:100B4000024629462046FFF7C7FF70BDD21DD308D5
:100B5000DB000CCBC0E730B40368202412682343C9
:100B600003600823C36130BC0023B5E7B84500002B
:100B7000F3B50446002081B020622046E168884732
:100B8000002872D0252802D06268A168ABE0594FD6
:100B900000267F442046E16888472028054608DB78
:100BA000312D06D2781920380078002801D006436C
:100BB000F0E7B00701D5042086430020E061074636
:100BC000A0612A2D0AD0284604F0AAF9002827D0CF
:100BD000B8000019303D0090856119E00298BA0014
:100BE000121902C8916102902046E1688847012FDE
:100BF000054617D1E06900281FDA202086431CE053
:100C000000980A218069484300994019303888616A
:100C10002046E1688847054604F082F90028EFD1B4
:100C2000012F0AD02E2D08D12046E16888470546BD
:100C3000202006437F1C022FC3DBA069002803DAB3
:100C40004042A06101200643F00701D010208643F6
:100C50006C2D0BD0682D09D04C2D3CD06A2D38D08E
:100C6000742D38D07A2D36D016E040E0E1682F465A
:100C700020468847B842054609D16C2F29D001206B
:100C80008002E168064320468847054604E06C2F51
:100C90001DD0FF2001300643002D28D028464138C2
:100CA000192803D80120C0020643203520462660BB
:100CB0002946029A1646FFF741FA002810D001286B
:100CC0000BD0F61DF008C0000830029055E7402018
:100CD000E1E78020D5E70020D3E7361D02964CE7F8
:100CE00062682846A1689047206A401C44E7206A51
:100CF000FEBD0000324500000B4670B50246890774
:100D00008008084319469D08141AA94125090807B7
:100D1000054308092C194841250A01060D43010A1B
:100D20002C194141200C0D0428430D0C00194D4194
:100D3000002140194D41C00869070843E908840FA4
:100D40008D002543840024184D4124196D41121B48
:100D5000AB4107E00925ED432C11521963410024F2
:100D6000401C61411C460A250026551BB441F1D2A6
:100D700070BDFFB504460D4681B024300090216857
:100D8000880604D51022E0699143216000E001202B
:100D9000A84201DD471B00E000270498A1697A19E9
:100DA0001018081AA0612078C00602D42046FFF768
:100DB000F8FC002608E003986268A168805D90470F
:100DC000206A401C761C206204988642F3DB20785F
:100DD000C0060AD52046FFF7E4FC06E06268A16879
:100DE00030209047206A401C206238467F1E002831
:100DF000F4DC07E000986268A168405D9047206AD3
:100E0000401C206228466D1E0028F3DC2046FFF7B8
:100E1000DEFC2078000602D5022005B0F0BD0120DE
:100E2000FBE70000FFB50C461E468FB003CA0890D2
:100E300009914F007D0D00D16D1E00210846002054
:100E4000C0460321099A89050840002A03DA820076
:100E5000801840080840800D01280A9002DD00201B
:100E6000C0430A90089807430DD0F048F04928186D
:100E700048430714189800281DD07542291E1DDD0F
:100E80000A9842421BE01898012802D00020302125
:100E900004E00020F24305E02154401CB042FBDB9B
:100EA00030460022189B002121540F998B600A6064
:100EB000486013B0F0BDBD1B6D1CDFE70A9A002926
:100EC00000DA69420BA800F0F5FB0BAB07CB03ABD4
:100ED00007C30899099800F059FC6B4607C30146FF
:100EE000D4480918002D00910BDDD24903980A9AC5
:100EF00049424018002303A90390684600F0B6FE5B
:100F000008E003990A9A0023081803A90390684689
:100F100000F056FE6B4607C30004000C03D000200F
:100F2000C043410800E01046189A002A03D000226E
:100F3000009215461EE0751E05D4FFF7DDFE303227
:100F400062556D1EF9D501220843079602D0002292
:100F50007F1C04E02078302801D100227F1E002A67
:100F6000069787D01EE0112D07DAFFF7C5FE303255
:100F700062556D1C02460A43F5D1084303D0009820
:100F8000002819D00EE00021681E05E0235C625C99
:100F900063542254401E491C8142F7DBA81B401EAB
:100FA00007950690079A18990020A0540F98079B60
:100FB000069A81600CC07CE711260020189059E742
:100FC000D21DF0B50D460446D10893B0C90003C93F
:100FD0000C900D9103F08EFF02460D98C00F01D0CA
:100FE0002D2007E02068810701D52B2002E0400773
:100FF000C00F4001032A0F9001D0072A05DB0346EA
:101000002946204600F012FB0EE12078800601D52B
:10101000E76900E006272846652D04D0662814D02D
:10102000672D69D12DE00020112F009001DB1123E5
:1010300000E07B1C0CAA03A910A8FFF7F3FE11998E
:10104000002610987D1C0E9142E001203B460CAA20
:10105000C0070B900120009003A910A8FFF7E2FE43
:10106000119D12981099002600280E9501D1781C28
:101070000D18781B02D446427D1C761EE81B00909A
:101080003AE0012F00DA01270020112F009001DD46
:10109000112300E03B460CAA03A910A8FFF7C2FEEB
:1010A00011993D46109800260E91217809070BD41E
:1010B0000E99A94200DA0D4603A9012D04DD4A1953
:1010C000203AD27F302A06D0B84201DA011D04DA74
:1010D000012100910FE06D1EEFE7002802DC861968
:1010E0002D1A03E0411CA94200DD0D46801B401C67
:1010F00000900120C0070B902078000705D40098CD
:10110000A84202DB0020C043009069460020C8725C
:101110000B98012102AF0337C907884225D002206E
:1011200010902B2011900B9800280BDA40420B9066
:101130002D20119006E00B9800F039FA30317F1E17
:101140000B9039701099481E00291090F3DC0B9811
:101150000028F0D111987F1E38702088000501D535
:10116000452000E065207F1E387001A8C01BC01D0F
:101170000B900F98002800D0012041190098C0174B
:1011800009180B980818A169081A401EA061207858
:10119000C00602D42046FFF704FB0F98002805D0B4
:1011A0006268A1689047206A401C20622078C006CF
:1011B00025D52046FFF7F5FA21E0002E07DB0E9833
:1011C000B04204DD03A86268805DA16802E0626845
:1011D000A16830209047206A761C401C206200984D
:1011E000401E002800900AD100F01CFAC068626816
:1011F0000168405CA1689047206A401C2062284634
:101200006D1E0028D9DC07E062683878A1687F1C71
:101210009047206A401C20620B99481E00290B90C1
:10122000F2DC2046FFF7D3FA032042E601FCFFFF81
:10123000104D0000E1DFFFFFD21DF0B504460D4662
:10124000D0088DB0C000466807683146384603F0C4
:1012500051FE0246F00F01D02D2307E020688107E0
:1012600001D52B2302E04007C00F43016846002B45
:10127000037001D0012000E00020032A0A9001D071
:10128000072A04DB2946204600F0D0F92DE120781A
:10129000800601D40D2500E0E5697000400D0D2D9C
:1012A00001904BDA300D00210B9008460020C0461B
:1012B000032189050840002E05DA82008018C20F3C
:1012C0001018401008408015012801DD0020C0439F
:1012D000A9000023182906D39C460A460123183A80
:1012E0001B07D34003E001221205CA4094460C318B
:1012F000202902D33A46203900E032468A400028AD
:1013000002DD002A06D119E0002817D10121C90702
:101310008A4213D3194663467F185E41002806D1DE
:101320000120C007824202D1084687439E430B98A2
:10133000310D814202D00198401C019020880005A7
:1013400002D57149794402E06F49794419396B46F5
:101350000A9830221A540A980A7C401C1A54401CDD
:101360000A900198002801DC302000E0312018723A
:10137000019A0120002A02D0644BD21804E07200C6
:101380003A4302D0614A521C0192002D02DC2278BD
:10139000120703D56A462E2050720220002286468C
:1013A00094460CE032033601120F6D1E8B5C02AACC
:1013B00013546246521C401C9446052A01DA002D43
:1013C000F0DC002202AE08E03B0F3F01CB5C521C78
:1013D0006D1E3354401C082A01DA002DF4DC23680A
:1013E0009A0601D511E0401E704504DD3218203AFE
:1013F000D27F302AF7D0002807DD3218203AD27F7A
:101400002E2A02D11A0700D4401E002D03DD3E22F1
:101410003254401C6D1E497C31540199401C0029F6
:1014200006DA2D21471C315401984042019003E017
:101430002B21471C315401987D21C900884206DBCD
:10144000FEF7FAFF3030F0557F1C019101E064286F
:1014500008DB01986421FEF7EFFF3030F0557F1C68
:10146000019101E00A2806DB01980A21FEF7E4FF5A
:101470003030F0557F1C01980A21FEF7DDFF303136
:10148000F1550A98A1697F1C7A191018081AA061F1
:101490002078C00602D42046FFF783F9216A6E4601
:1014A0000A980818206204E062683078A168761C07
:1014B00090470A98401E0A90401CF5D12078C0063B
:1014C00002D52046FFF76DF902AE09E03078761CB0
:1014D0003E280DD06268A1689047206A401C2062B7
:1014E0007F1EF3D22046FFF772F90DB00320F0BD46
:1014F000206A4019206203E06268A16830209047AA
:101500006D1EEDD3F8E70000A43D000001FCFFFFD5
:1015100010B54369002B02D0C046C04601E0FFF77A
:1015200079F9012010BD1278014624310A70002299
:101530004A700122ECE711680022D243E8E710B5B7
:101540004369002B02D0C046C04601E0FFF7F6F920
:10155000012010BD12880146243182840022C284F9
:101560000122ECE711680022D243E8E7F8B51646FD
:101570000C46054600F04EF80368FF200230C05CC0
:10158000012807D0FF2C0FD8185D00280CD00120AF
:101590002C70F8BDFF333246214608331868C7184F
:1015A00028460023B847F8BD0020C043F8BD0146D7
:1015B0008008081A02091018020A1018020C1018E4
:1015C000C008820012185200891A01E0401C0A3932
:1015D0000A29FBD27047754600F0A0FBAE46050015
:1015E00069465346C008C000854618B020B5FEF7CE
:1015F00061FE60BCB64600260027C0C5C0C5C0C598
:10160000C0C5C0C5C0C5C0C5C0C5403D490849002A
:101610008D46704710B500F005F8001D10BD00BFE5
:101620003D3900000048704738000020F8B51F46DB
:10163000044601230068DB02032601461840072AFE
:1016400005DB002801D017A506E017A504E0002857
:1016500001D016A500E016A5102081432160A069E5
:10166000C01E002FA06101D0401EA0612046FFF7E0
:1016700098F8002F09D038466268A1689047206A20
:10168000401C2062C01C206206E0206AFAE7626803
:101690002878A1686D1C9047761EF8D22046FFF787
:1016A00096F8F8BD4E414E006E616E00494E460000
:1016B000696E6600F7B516468AB0334878446C46C2
:1016C00003467C33C06F5A689B680DC42E4878442B
:1016D000763003AC0DC80DC43720C001081837217F
:1016E0001B30FEF7A9FE05460C46803D1B3C02D58B
:1016F0006442012000E000200027099010E0E0078C
:101700000CD00C2020497843794432464C3941189A
:101710006846012300F054FA6B4607C364107F1C2F
:10172000002CECD1184F7F442E3F16E0E80712D072
:101730002001C0190EC80691089307920068F04274
:1017400001D1981908903246012306A903A800F098
:1017500037FA03AB07C36D10641C002DE6D109985E
:10176000002806D032466946012303A800F07EFA1D
:1017700005E001233246694603A800F021FA0A9BDE
:1017800007C30DB0F0BD0000403A00000346400022
:101790000A4610B5400D0BD00121C9070F24A40241
:1017A00000191C0364082143540D2143D20207E0B1
:1017B00000210120F2E7D40F490021435200401ECE
:1017C0000029F8DADB0FDB07184310BDFFB50D4623
:1017D000144685B04868516803F074FB009101908D
:1017E000A868A16803F06EFB02910390A868616885
:1017F00003F068FB029A12188242029201D2012081
:1018000000E00020019A0B18D2180028019202D0A3
:101810008A4202D903E08A4201D2012000E000207E
:101820000099081800906868A16803F04BFB029AC1
:1018300012188242029201D2012000E00020019A97
:101840000B18D2180028019202D08A4202D903E074
:101850008A4201D2012000E000200099081800907F
:101860002868216840004900400849084018FA49A2
:10187000471814E001994000C90F084300900198EF
:1018800002994000C90F0843019002980399400053
:10189000C90F08430290039840007F1E03900098F0
:1018A0000028E7DA0898002801D0EC4E00E0002676
:1018B000B74201DA012000E00020002804902AD07D
:1018C000F71BF806C00E15D0029B2021091A039AB7
:1018D0008B401A430392029A019BC2408B401A43E9
:1018E0000292019A009BC2408B4000991A430192D8
:1018F000C14000917B110DD06F460320C11A03D562
:1019000000218200B95003E08A008100BA587A5061
:10191000401EF3D5374603980299002800D00120D5
:10192000014308980291002808460CD0002800D0F6
:1019300001200199019A490508430121D20AC902EF
:10194000D202019200E001210E9B0122D207012B5D
:1019500002D0002B03D013E0002807D120E09042F2
:1019600004D890420CD1019B0B4209D0019B59181D
:10197000019105D10099491C009101D17F1C009271
:1019800000280DD0102108460020C04604980028E9
:1019900006D00F98002803D0082108460020C04632
:1019A00028682168019B009A4840C10F0598C90723
:1019B00039430EC009B0F0BDFFB587B0099A089849
:1019C0000899536892684068896896460022039394
:1019D00017469446089A12685300099A5B081268E1
:1019E000520052089A1A9E4BD4180A9A002A01D023
:1019F000352200E04022069200220123154604927F
:101A0000DB07059324E0002D05D175460346039EB0
:101A10004D1BB34109D375466646039B491B049D84
:101A20009841059B7519AC465F4163463B4308D01E
:101A3000059B049EDD0776082E435B0804960593FC
:101A400001E0521E641EC50FED0749184041521CAB
:101A5000069B9A42D7DB002D04D17546039A6B1A78
:101A6000824101D203200CE0039A0B466B404240B6
:101A7000134303D0014303D0012002E0022000E021
:101A80000020614601910021009702910A990029E6
:101A900005D0614640020143704B019102E080078E
:101AA000002302909C4201DA012000E000200700A0
:101AB0003AD01A1BD006C00E15D0029D2021019CE1
:101AC000091AC5408C402543029C8C4000D001245B
:101AD0002543019C0295009DC4408D4000992C43F4
:101AE0000194C140009154111DD06D460221002285
:101AF00002290CD10320001B07E0002804DB86002C
:101B0000AE59002E00D00122401C0328F5DB081B33
:101B100002D588002A5004E08000285810438A002B
:101B2000A850491EE3D51C460A98002802980CD0FC
:101B3000002800D001200199019A4905084301219C
:101B4000D20AC902D202019200E00121109B0122B7
:101B5000D207012B02D0002B03D013E0002807D1BD
:101B60001FE0904204D890420CD1019B0B4209D057
:101B7000019B5918019105D10099491C009101D18F
:101B8000641C009200280CD0102108460020C0469A
:101B9000002F06D01198002803D008210846002005
:101BA000C04608980999019A009B00680968484056
:101BB000C10F0798C907214382600AC00BB0F0BD6E
:101BC00000B585B0019300920A460146002302A8A1
:101BD000FFF7FCFD02A807C805B000BDFFB50A4627
:101BE0001F4685B00799019301230091014602A881
:101BF000FFF7ECFD02990398049ECA0F4900D20733
:101C000000920F22490892028C1A0021002800DB62
:101C10000C46450013486D08844214D3079A002AE5
:101C200004DA441E0026104DF64302E004460D4639
:101C30000E46102108460020C046002F03D0042184
:101C400008460020C0462005E90A084300990843D9
:101C50006905F20A1143ADE602C0FFFF013C000036
:101C6000FF3F0000FF070000FFFFFF7F00B585B0CA
:101C7000019300920A460146002302A8FFF79CFE4A
:101C800002A807C8A8E7FFB50A461F4685B007990E
:101C9000019301230091014602A8FFF78DFE0299EE
:101CA0000398049ECA0F4900D20700920F224908E8
:101CB00092028C1A0021002800DB0C4645001148D6
:101CC0006D08844214D3079A002A04DA441E0026C1
:101CD0000D4DF64302E004460D460E46102108461F
:101CE0000020C046002F03D0042108460020C04633
:101CF0002005E90A0843009908436905F20A1143DF
:101D000058E60000FF070000FFFFFF7F10B5044604
:101D1000C046C0462046FEF79DFA10BD00487047F9
:101D200018000020024670B50A4392072AD11E4DC2
:101D3000EE0104C808C9541B9443344017D0D0B2F4
:101D4000D9B2401A2106014310D190B299B2401A7B
:101D5000210401430AD110021902000A090A401A9B
:101D60002102014302D1100E190E401A70BD9A4291
:101D7000DFD010BA19BA884201D9012070BD002005
:101D8000C04370BD02780B78401C491C002A09D062
:101D90009A4207D102780B78401C491C002A01D0D6
:101DA0009A42EFD0D01A70BD0101010101491820FB
:101DB000ABBEFEE726000200704784B0029001A887
:101DC0000170694600200870FFE76846007801A9A5
:101DD0000978884211DAFFE7029869460978405C81
:101DE000002804D0FFE703A90020087009E0FFE7FE
:101DF0000098401C69460870E7E703A901200870B5
:101E0000FFE703A8007804B0704780B58AB0099056
:101E10000891079206930898029001A90020087083
:101E20000490FFE70498032847D8FFE700200590B7
:101E3000FFE705983F2835D8FFE709990598401C2A
:101E400048430499491CFEF7EDFA0390039808995A
:101E5000884205D9FFE703980899401A009004E0EA
:101E600008980399401A0090FFE7009803900298A1
:101E70000399884209D9FFE70398029005980799CA
:101E80000870049806990870FFE70298002804D1AA
:101E9000FFE701A90120087004E0FFE70598401C56
:101EA0000590C6E701A80078002801D0FFE704E00C
:101EB000FFE70498401C0490B4E702980AB080BD84
:101EC00080B500F02FF880BD80B500F003F800F079
:101ED0003DF880BD80B584B003A8029000F068F999
:101EE0000D204004012102F02BF9029908200880FE
:101EF00003200090887010200190C870074800F0FF
:101F0000A7F8009A0198029920230B808A70C87064
:101F1000034800F09DF804B080BDC046000C0048A6
:101F20000008004880B582B00121880402F008F959
:101F30001648009009210022019200F011F9009842
:101F4000019A082100F00CF902B080BD80B584B080
:101F500001210091880402F0F3F80098400203A9DF
:101F600002910880032088701820C87007480190EB
:101F700000F06EF8009A0198029912020A80042279
:101F8000CA7000F065F804B080BDC0460004004887
:101F90001A4800687047C04683B002901749002075
:101FA0000860029AD200164B1A60164A106005208B
:101FB0000860FFE7114800680190FFE7002001A9D1
:101FC0000978C9070029009008D0FFE701A88078A8
:101FD00001210840414248410090FFE70098C007B6
:101FE0000028E7D1FFE7054908680122904308600F
:101FF00004490020086003B07047C04610E000E0CC
:1020000014E000E018E000E080B588B007900121FE
:102010000291880302F0C2F803A8009002F06BFE60
:10202000009907980390302088800020C88008819C
:102030008881182048810548019002F0FFFD019831
:10204000029902F0DBFD08B080BDC04600380140B7
:1020500087B0069005910598C0780F210840009040
:102060000598C078C006002806D5FFE70598817856
:10207000009808430090FFE70698019003A900200C
:102080000870FFE703A80078072820DCFFE7039823
:10209000800004A908700598008803A90978C84041
:1020A000C00700280DD0FFE70198006804A90A784E
:1020B0000F2191408843009991400843019908609D
:1020C000FFE7FFE70398401C03A90870DAE70698CA
:1020D000001D019005984078029003A90020087027
:1020E000FFE703A8007807281FDCFFE703988000BC
:1020F00004A90870029803A90978C840C0070028FD
:102100000DD0FFE70198006804A90A780F219140DB
:10211000884300999140084301990860FFE7FFE771
:102120000398401C03A90870DBE70598C0782828AD
:1021300007D1FFE70598028806994869104348616E
:102140000CE00598C078482807D1FFE70598028879
:102150000699086910430861FFE7FFE707B0704779
:1021600086B0059004A8017003A90A700178490798
:10217000C90E02AA11700078072804DCFFE7059851
:102180002030009003E0059824300090FFE700988D
:1021900001900199086802AA13780F229A4090438F
:1021A00003AA12789A401043086006B070470000F6
:1021B00081B000900099054808800099012088703E
:1021C00000990420C87001B07047C046FFFF0000AE
:1021D00083B0029001A80180684602700078002850
:1021E00005D0FFE701A800880299086104E001A872
:1021F000008802994861FFE703B0704710B588B0C6
:102200000790069105920698808804900798049993
:10221000884210D2FFE70698417A0124204688437D
:1022200002AB187007980499059A1B78234000F0B8
:1022300017F8039011E00698407A0124204001AB82
:10224000187007980499401A0699C988059A1B784E
:10225000234000F005F80390FFE7039808B010BD95
:1022600010B588B007900691059204A800900370FD
:102270000799059848430699FEF7D4F80146009857
:1022800003910078C007002807D0FFE70398404378
:102290000599FEF7C7F802900AE005980399401ADD
:1022A0000190019840430599FEF7BCF80290FFE7C2
:1022B000029808B010BD80B588B0079006910592CD
:1022C0000698808804900698C08803900698008934
:1022D000029006984089019007980499884208D294
:1022E000FFE707980499059A0123FFF7B9FF0090CB
:1022F0002FE007980499039A8918884203D2FFE7D0
:102300000598009024E007980499039A8918019A87
:10231000891888420CD2FFE707980499401A03995C
:10232000401A0199059A0023FFF79AFF00900EE0EA
:1023300007980499039A8918019A8918029A8918AA
:10234000884203D2FFE700200090FFE7FFE7FFE7A6
:10235000FFE7009808B080BD044800687047C04699
:1023600002490868401C08607047C046BC00002055
:1023700082B000900098002804D1FFE701A9042052
:10238000087024E00098006800280AD0FFE7009851
:102390004068002805D0FFE700988068002804D135
:1023A000FFE701A90420087011E00098007B0128D4
:1023B00005DBFFE70098007B062804DBFFE701A9A7
:1023C0000620087003E001A900200870FFE701A8BB
:1023D000007802B0704780B58AB0089007910898DD
:1023E000002805D0FFE708984068002804D1FFE7DF
:1023F00009A9042008705AE00898807CC0070028CA
:1024000004D1FFE709A90020087050E0089840684F
:1024100006900898C068002808D1FFE70798089937
:10242000C8600698007A08994874FFE707980899E9
:10243000C968401A05900698C1888088484304906E
:1024400005980499FDF7EEFF039103980699C98852
:10245000FDF7E8FF0290069800680299890040584D
:1024600001900898019900F014FA06980821405646
:10247000401C002817D0FFE70598049A0699082306
:10248000C956514388420ED3FFE70899002088744B
:10249000089800F0D6FF08980C2100F028F9089958
:1024A00001200874FFE709A900200870FFE709A8C8
:1024B00000780AB080BD80B586B00490039104987E
:1024C000002805D0FFE704984068002804D1FFE702
:1024D00005A9042008704CE0049840680290049814
:1024E000807CC007002804D1FFE705A90020087000
:1024F0003FE00498C068002808D1FFE703980499DA
:10250000C8600298807904994874FFE70398049999
:10251000C968401A0190019802998988884212D3AB
:10252000FFE703980499C860049802990622895627
:10253000002200F0AFFC0C2804D1FFE70499012031
:102540000874FFE711E001980299898849088842D8
:1025500004D3FFE7049800F074FF05E004980299A3
:10256000096800F096F9FFE7FFE705A90020087069
:10257000FFE705A8007806B080BDD0B502AF90B0E7
:102580006E46F21D0932B2600246B0688262416254
:10259000806A002806D0FFE7B068806A406800289B
:1025A00005D1FFE7F11D35310420087098E0B068CF
:1025B000806A807CC007002805D1FFE7F11D353116
:1025C000002008708CE0B068816A49680162806A06
:1025D000C068002809D1FFE7B168486A8A6AD060FC
:1025E000086A007A896A4874FFE7B168486A8A6AAB
:1025F000D268801AC8610A6A9088D2888018886177
:10260000C8698969FDF70EFFB0684161806A00689A
:10261000007B00F073FBB168086108696A46CA6014
:102620004200D31D072293436A46D21A7260954630
:10263000886000204860FFE7B168486809698842FF
:102640001ED2FFE7B068016A09684268895C806A47
:102650000068C0894843FF21FDF7E4FEB2681060BE
:102660005069116A1268FFF7C9FDB2687168526853
:1026700052008852FFE7B1684868401C4860DBE7B9
:10268000B0687168806A00F03FF9B168C86989690B
:1026900088421DD3FFE7B168486A8A6AD060086A39
:1026A000427A012318469043F21D05321070886A61
:1026B000096A0824095712781A4000F0EBFB0C282D
:1026C00005D1FFE7B068816A01200874FFE7FFE7E2
:1026D000B068F21D353200211170C0688546FFE7F1
:1026E000F01D35300078FC1F013CA546D0BD80B5FB
:1026F00082B001906846017001988068002807D078
:10270000FFE701988268007C694609789047FFE7F7
:1027100002B080BD10B592B010900F9110980028B3
:1027200005D0FFE710984068002804D1FFE711A901
:1027300004200870A9E01098807CC007002804D10C
:10274000FFE711A9002008709FE0109840680E90E4
:102750001098C068002808D1FFE70F981099C8604A
:102760000E98807A10994874FFE70F981099C968FD
:10277000401A0D900E99C888098940180C9010983D
:1027800011214056401C002806D0FFE71098112167
:102790004056022806DBFFE70C990E9880884843D4
:1027A000029007E00C9A0E9988885043C988401A15
:1027B0000290FFE702980B900D980C99FDF732FEFE
:1027C0000A910D980C99FDF72DFE0E998988FDF759
:1027D00029FE09910998401C0E998988FDF722FE6F
:1027E00008910E98006809998900405807900E9842
:1027F000006808998900405806900A980E9909893E
:10280000884210D2FFE71098079900F042F801467D
:1028100005A801700078002804D0FFE7059811A9E9
:10282000087032E00EE00A980E990989401A049067
:10283000109804990E9AD288079B069C009400F089
:10284000D1FBFFE70D980B9988421AD3FFE70F9849
:102850001099C8600E98C17A01231846884303AACC
:10286000107010980E990A24095712781A4000F037
:1028700011FB0C2804D1FFE7109901200874FFE731
:10288000FFE711A900200870FFE711A8007812B037
:1028900010BD80B586B0049003910498002804D040
:1028A000FFE70398002804D1FFE705A9042008707A
:1028B00026E0049800680068804702A90091002083
:1028C000087004980068007B00F018FA01900498E2
:1028D0000399019A01F06AFD0146009801700078A1
:1028E000002809D0FFE7049802A90978FFF7FFFE46
:1028F000049901200874FFE7029805A90870FFE712
:1029000005A8007806B080BD80B586B0049003911C
:102910000498002804D0FFE70398002804D1FFE7BB
:1029200005A90420087026E002A900910020087083
:10293000049800680068804704980068007B00F0F5
:10294000DDF9019004980399019A01F097FD014681
:10295000009801700078002809D0FFE7049802A9C8
:102960000978FFF7C4FE049901200874FFE7029874
:1029700005A90870FFE705A8007806B080BDD0B5AE
:1029800002AF8CB06E46F21D013272600246706872
:102990000262C161006A002806D0FFE77068006A21
:1029A0004068002805D1FFE7F11D2531042008709B
:1029B00087E07068006A807CC007002805D1FFE7C7
:1029C000F11D2531002008707BE07068016A4968BC
:1029D0008161006AC068002809D1FFE77168C86991
:1029E0000A6AD06088698079096A4874FFE770686C
:1029F000C169026AD268891A4161006A0068007B75
:102A000000F07CF97168086108696A46CA60420092
:102A1000D31D072293436A46D21A326095468860D6
:102A200000204860FFE7716848680969884220D241
:102A3000FFE77068816909684268895C006A00681C
:102A4000C0894843FF21FDF7EDFC726810605069B2
:102A50009169898812680123FFF702FC7268316866
:102A6000526852008852FFE771684868401C48600D
:102A7000D9E770683168006AFFF746FF71684869F6
:102A800089698988884214D3FFE77168C8690A6A2E
:102A9000D060086A896906228956002200F0FAF996
:102AA0000C2805D1FFE77068016A01200874FFE770
:102AB000FFE77068F21D253200211170C06885465D
:102AC000FFE7F01D25300078FC1F013CA546D0BD76
:102AD000D0B502AF8CB06E46F21D01327260024674
:102AE00070680262C161006A002806D0FFE7706862
:102AF000006A4068002805D1FFE7F11D2531042058
:102B0000087087E07068006A807CC007002805D1E3
:102B1000FFE7F11D2531002008707BE07068016A35
:102B200049688161006AC068002809D1FFE77168BF
:102B3000C8690A6AD06088698079096A4874FFE7C1
:102B40007068C169026AD268891A4161006A0068C6
:102B5000007B00F0D3F87168086108696A46CA60B2
:102B60004200D31D072293436A46D21A326095462B
:102B7000886000204860FFE77168486809698842FA
:102B800020D2FFE77068816909684268895C006A41
:102B90000068C0894843FF21FDF744FC726810605B
:102BA00050699169898812680023FFF759FB7268A0
:102BB0003168526852008852FFE771684868401CCB
:102BC0004860D9E770683168006AFFF79DFE716858
:102BD000486989698988884214D3FFE77168C869A0
:102BE0000A6AD060086A896906228956012200F0C3
:102BF00051F90C2805D1FFE77068016A01200874BB
:102C0000FFE7FFE77068F21D253200211170C068F0
:102C10008546FFE7F01D25300078FC1F013CA546E6
:102C2000D0BD80B586B0049003910498002805D0EB
:102C3000FFE704984068002804D1FFE705A90420B5
:102C4000087057E00498406802900498807CC007A0
:102C5000002804D1FFE705A9002008704AE0049885
:102C6000C068002808D1FFE703980499C86002985B
:102C7000007A04994874FFE703980499C968401AD8
:102C8000019002998888C98840186946088001988F
:102C900002998988884206D2FFE704980299096858
:102CA000FFF7F7FD0AE0019869460988884204D2D7
:102CB000FFE7049800F0C5FBFFE7FFE701986946CE
:102CC0000988884212D3FFE703980499C8600498E2
:102CD000029908228956002200F0DCF80C2804D161
:102CE000FFE7049901200874FFE7FFE705A900202A
:102CF0000870FFE705A8007806B080BD83B00146E4
:102D000001A8017000780090062828D8009881005A
:102D100001A040588746C0465D2D0008352D0008AB
:102D20003D2D0008452D00084D2D0008552D0008AB
:102D30005D2D000802A90320087014E002A90320F9
:102D4000087010E002A9042008700CE002A901201C
:102D5000087008E002A90220087004E0FFE702A959
:102D600000200870FFE702A8007803B0704780B524
:102D700084B002900191684602700298002804D045
:102D8000FFE70198002804D1FFE703A90420087099
:102D90000AE00198029913316A461278FDF7E0FAC9
:102DA00003A900200870FFE703A8007804B080BDE5
:102DB00010B58CB00A9009A80170089207A803709A
:102DC0000A98002809D0FFE70898002805D0FFE7F7
:102DD00007A80078002804D1FFE70BA90420087099
:102DE00054E009A80078009002280AD0FFE7009874
:102DF000C01E07280BD3FFE700980A3802281FD30C
:102E00003CE0089807A90978FDF707FB3AE00A9823
:102E1000069006980068059000200490FFE704984B
:102E200007A9097888420AD2FFE70598049A805CCE
:102E300008998854FFE70498401C0490EFE721E0CC
:102E40000A980390039800680068029001A9002086
:102E50000880FFE701A8008807A9097888420CDAF2
:102E6000FFE7029801A90A88805C08998854FFE767
:102E70000198401C01A90880ECE703E00BA905209C
:102E8000087003E00BA900200870FFE70BA800788A
:102E90000CB010BD80B584B00290019168460270FC
:102EA0000198401C002807D0FFE70299487C401E8B
:102EB0004874FFE7FFE7FFE702981121405600281A
:102EC00015D1FFE702990020887402980C21FFF7C2
:102ED0000EFC68460078C007002804D0FFE702987F
:102EE00000F0AFFAFFE703A90C20087003E003A984
:102EF00000200870FFE703A8007804B080BD80B50B
:102F000086B00490039102920498002804D1FFE750
:102F100005A90420087023E00398FFF729FA014669
:102F200001A801700078002804D0FFE7019805A9E6
:102F3000087015E00398049908600499012008744A
:102F4000049900204860049988740499C860029824
:102F500004998860FFE7FFE705A900200870FFE7F4
:102F600005A8007806B080BD81B0009000990020CF
:102F7000887401B0704780B584B002900298002830
:102F800004D1FFE703A90420087027E00298807CA1
:102F9000C007002804D1FFE703A9002008701DE046
:102FA00002980C21FFF7A3FB02980146133101910F
:102FB0000068007BFFF7A2FE01460198FDF72DFA9D
:102FC000029801461331FFF764FC029900208874CF
:102FD000029A0121117403A90870FFE703A8007881
:102FE00004B080BDF0B503AF91B06E46F41D0D3452
:102FF000346104463069BD68C46281624262036222
:10300000C06A0068007BFFF779FE3169F21D293242
:103010001070886A496AFDF705FA084631698861C7
:103020008A697D20C0005043496AFDF7FBF90146DB
:103030003069416140693049884205D3FFE7316911
:103040007D20C0004861FFE730694069FDF7A6FBBD
:103050002A49FDF7A1FA0146306901610169084674
:1030600001F092FF3169C860F01D293000786A468E
:103070008A60C31D072293436A46D21AF2609546BE
:103080004860F11D0D3100200870FFE7F01D0D3084
:103090000078F11D29310978884221DAFFE730698B
:1030A000006AF11D0D310A787260815CB160B86808
:1030B000805C401AFDF76AFB3169C96801F064FF62
:1030C000FDF71AFB7268F1680346B068C0188854AF
:1030D000FFE730690068401CF11D0D310870D5E72D
:1030E0003069F168C06AFFF7D4FB306980688546B3
:1030F000FC1F053CA546F0BDE903000000007A4432
:10310000D0B502AF92B06E46F21D01327260024637
:10311000706882634163806B002806D0FFE77068A7
:10312000806B4068002805D1FFE7F11D3D31042088
:1031300008709EE07068806B807CC007002805D115
:10314000FFE7F11D3D310020087092E07068816B4F
:1031500049680163806BC068002809D1FFE7716886
:10316000486B8A6BD060086B007B896B4874FFE703
:103170007168086B8088C862086BC0888862086BB9
:1031800000894862086B40890862486B8A6BD26884
:10319000801AC861C86A8A6A80180A6A80184A6AEE
:1031A00080188861C8698969FDF73CF970684161D8
:1031B000806B0068007BFFF7A1FD716808610869FA
:1031C0006A46CA604200D31D072293436A46D21A58
:1031D00032609546886000204860FFE77168486863
:1031E000096988421ED2FFE77068016B096842686E
:1031F000895C806B0068C0894843FF21FDF712F9A4
:10320000726810605069116B1268FFF754F87268A9
:103210003168526852008852FFE771684868401C64
:103220004860DBE770683168806BFFF76DFB7168A1
:10323000C8698969884214D3FFE77168486B8A6B53
:10324000D060886B096B0C2289560022FFF722FEA2
:103250000C2805D1FFE77068816B01200874FFE737
:10326000FFE77068F21D3D3200211170C06885468D
:10327000FFE7F01D3D300078FC1F013CA546D0BDA6
:1032800084B002900191684602700298002804D12F
:10329000FFE703A9042008700EE000980299087463
:1032A000019802994860029900208874FFE7FFE7BF
:1032B00003A900200870FFE703A8007804B0704756
:1032C00086B0024604A8027003910078801E009028
:1032D000092833D80098810001A040588746C0468D
:1032E00035330008093300080933000809330008A2
:1032F000233300083533000835330008093300084C
:10330000093300081133000805A90120087019E0ED
:10331000039802900298C07A0121084005A908701C
:1033200010E0039801900198407A0121084005A916
:10333000087007E005A90020087003E005A9002037
:103340000870FFE705A8007806B0704780B586B022
:10335000049003910498002805D0FFE70498406882
:10336000002804D1FFE705A90420087047E004986D
:10337000406802900498807CC007002804D1FFE7D1
:1033800005A9002008703AE00498C068002814D10C
:10339000FFE703980499C860049802990968FFF749
:1033A00078FA014601A801700078002804D0FFE7F0
:1033B000019805A9087022E0FFE703980499C968FD
:1033C000401A009002984068002814D0FFE7009847
:1033D0000299496888420ED3FFE704990020887457
:1033E000049800F02EF804980C21FFF780F9049956
:1033F00001200874FFE705A900200870FFE705A871
:10340000007806B080BD80B582B00190694600208A
:1034100008700198002804D1FFE76946042008706D
:10342000FFE701990120887401990020C860019884
:103430000B21FFF75CF9FFE7FFE76846007802B071
:1034400080BD80B584B002900298002804D1FFE7C7
:1034500003A90420087017E00298006840688047BC
:1034600002980146133101910068007BFFF746FC8A
:1034700001460198FCF7D1FF029801461331FFF78E
:1034800008FA03A90870FFE703A8007804B080BD1C
:1034900080B588B00690059104A9002008705448B2
:1034A00000680599884204D1FFE707A90020087049
:1034B00099E00698002804D1FFE707A904200870C6
:1034C00091E00698017C0020012903900DDBFFE7C5
:1034D0000698017C0120002201920C29029001DB58
:1034E0000198029002980390FFE70398C007002814
:1034F00004D1FFE707A90520087074E00698007C56
:10350000401E00900A2866D80098810001A040580B
:103510008746C046413500084D350008593500083A
:10352000753500086735000883350008AD3500089B
:10353000913500089F350008BB350008C9350008E3
:103540000698FFF711FD04A9087045E00698FFF7FB
:1035500012FD04A908703FE006980599FFF7F6FEF2
:1035600004A9087038E006980599FFF75AFB04A9EA
:10357000087031E006980599FEF79DFF04A90870D0
:103580002AE006980599FEF7F8FF04A9087023E0E1
:1035900006980599FFF7F3F904A908701CE006984E
:1035A0000599FFF795FA04A9087015E006980599A2
:1035B000FFF7A6FD04A908700EE006980599FEF72E
:1035C0000AFF04A9087007E006980599FFF7A2F81A
:1035D00004A9087000E0FFE7059805490860049811
:1035E00007A90870FFE707A8007808B080BDC046AB
:1035F0009800002083B002AA107001A80170007822
:103600000B38009004281ED80098810001A0405873
:103610008746C046293600082F3600083B3600088A
:103620004136000835360008FFE7FFE719E0FFE7FD
:10363000FFE716E0FFE7FFE713E0FFE7FFE710E033
:10364000FFE7FFE70DE001A80078012808DBFFE7AE
:1036500001A800780A2803DCFFE7FFE7FFE7FFE7A0
:10366000FFE703B07047000080B586B001200290EC
:10367000020305A904910A801022CA7088700920EB
:10368000C006FEF7E5FC0299049A91701820D070EC
:103690001948039000F09AFD03980D21062201922B
:1036A000FEF75EFD029A0398049952030A80FEF722
:1036B000CFFC0299039800F089FD019A03980E212E
:1036C000FEF74EFD029A0398049992030A80FEF7D2
:1036D000BFFC0299039800F079FD019A03980F212D
:1036E000FEF73EFD029A03980499D2030A80FEF782
:1036F000AFFC06B080BDC0460008004880B582B06F
:103700000190019801F0B6F90199702008700199B3
:1037100001204870019A00219170019A1172019A5A
:103720005172019A5181019A9181019A51600199D6
:103730008007009001F0CCF80098019901F012F98F
:103740000098019901F052F902B080BD80B58AB0AD
:1037500007A8019001F042FA01210291084600F009
:1037600005FD019902982F220A80504A08920022F2
:103770000A818A708A72800701F0CEF903A8FFF7E8
:10378000BDFF0AB080BDC04680B582B00121019165
:103790008807009001F06EF80098019A002101F06E
:1037A00053F80098019A042101F04EF80098019A0C
:1037B000082101F049F80098019901F071F802B070
:1037C00080BD80B582B00020019000F037F80198EC
:1037D00000F018F8019800F04DF8019901208007D9
:1037E000009001F047F80098019901F059F802B0F3
:1037F00080BD80B5FFF7AAFFFFF736FFFFF7E1FFB7
:1038000080BD000080B582B0014601A8018000881B
:10381000C0087D2803D3FFE72448009003E001A8F7
:1038200000880090FFE7009901A80180018801202D
:10383000800701F048F902B080BDC04680B582B073
:10384000014601A801800088C0087D2803D3FFE756
:103850001648009003E001A800880090FFE7009957
:1038600001A8018001880120800701F018F902B049
:1038700080BDC04680B582B0014601A801800088A5
:10388000C0087D2803D3FFE70848009003E001A8A3
:1038900000880090FFE7009901A8018001880120BD
:1038A000800701F024F902B080BDC046E7030000A4
:1038B00080B582B0019068460170019840688068C8
:1038C000002808D0FFE7019840688268007C6946BC
:1038D00009789047FFE702B080BDB0B586B00446D6
:1038E0000A980494039102A90A7001A90B70694611
:1038F00008800498002804D1FFE705A90420087077
:1039000036E00498406840680399884213D1FFE785
:1039100004984068007C02A9097888420BD1FFE72F
:1039200004984068807CC007002804D0FFE705A900
:10393000002008701CE00498407D012814D1FFE7A6
:1039400003980499886002980499C87401980499AE
:1039500008750098049908820498022100F026F95D
:1039600005A90020087003E005A909200870FFE7F9
:1039700005A8007806B0B0BD80B584B002900020E4
:103980000190FFE701980299897C88422CD2FFE7D9
:1039900002980068019A0C21514340180090009849
:1039A0000068029949684968884218D1FFE7009881
:1039B000406802998968884211D1FFE70098007A2F
:1039C000029908750099087A498900F003F902996B
:1039D0000882FFE7FFE703A90120087008E0FFE77E
:1039E0000198401C0190CDE703A900200870FFE773
:1039F00003A8007804B080BD82B000900098C07C1D
:103A0000012816DBFFE70098C07C0B2811DCFFE7DC
:103A10000098007D01280BDBFFE70098007D04285B
:103A200006DCFFE7FFE7FFE701A90120087004E0DB
:103A3000FFE701A900200870FFE701A8007802B0A5
:103A4000704780B586B00590059840680068007B97
:103A5000FFF754F90490FFE7FFE70599486816312E
:103A600004AA00921278FFF782F9009B059A9068E9
:103A7000D17C1A321B78FFF79BF90599C87C8968BD
:103A8000FFF71EFC014603A801700078C00700285C
:103A900019D1FFE7FFE7FFE702A900200870FFE761
:103AA00002A80078049988420CD2FFE7059802A981
:103AB0000978411800208876FFE70298401C02A987
:103AC0000870EDE7FFE701A900200870FFE701A8F3
:103AD00000780499884208D2FFE7FFE7FFE7FFE795
:103AE0000198401C01A90870F1E70598406800683A
:103AF0000068804706B080BD83B0019000910198B6
:103B0000002804D0FFE70098002804D1FFE702A9AD
:103B10000420087016E0019900200860019988745B
:103B20000099019A5160019A0121517501998860AB
:103B30000199C87401990875FFE7FFE702A9002001
:103B40000870FFE702A8007803B0704781B00090CA
:103B5000FFE7FFE70099022008750099C820088256
:103B600001B0704784B00290019100920298002841
:103B700008D0FFE70198002804D0FFE7009800284C
:103B800004D1FFE703A9042008700BE00198029913
:103B90000860009802998874FFE7FFE703A90020F6
:103BA0000870FFE703A8007804B0704782B0019066
:103BB000684601700078012809DBFFE76846007855
:103BC000042804DCFFE7009801994875FFE702B07C
:103BD0007047000087B0024605A8027004AA118051
:103BE0000078401E0390032841D80398810001A06B
:103BF00040588746053C00080D3C00082D3C000855
:103C00004D3C000806A90020088034E004A8008884
:103C1000002803D1FFE7C820029003E004A8008831
:103C20000290FFE7029806A9088024E004A8008813
:103C3000002803D1FFE71248019003E004A80088A0
:103C40000190FFE7019806A9088014E004A8008805
:103C5000002804D1FFE77D200001009003E004A8C4
:103C600000880090FFE7009806A9088003E006A9F5
:103C700000200880FFE706A8008807B07047C0460C
:103C80008813000080B582B0019001980E21FFF7E3
:103C90000FFE019A50689168D27CFFF7F1FA019803
:103CA0004068FFF7B0FB01990020009088600199FF
:103CB000C8740199087501980121FFF777FF0098F2
:103CC00002B080BD81B00090002001B070470000BC
:103CD000D0B502AF8AB06E46F21D0932B26002461C
:103CE000B0684261016101694269D268891AC160A4
:103CF0004069007D401EF060032800D996E0F0681E
:103D0000810001A040588746193D0008293D000860
:103D1000653D0008A73D0008FFE7FFE7B068406980
:103D20000421FFF743FF84E0B168C8684969098A44
:103D3000884208D3FFE7FFE7FFE7B0684069042146
:103D4000FFF734FF0DE0B1684C696068C968228AEA
:103D5000234616331A3482B00094FFF743F902B0B9
:103D6000FFE766E0B168C8684969098A884208D9EE
:103D7000FFE7FFE7FFE7B06840690421FFF716FFA0
:103D800010E0B06840694068807CC007002808D116
:103D9000FFE7FFE7FFE7B06840690421FFF706FF90
:103DA000FFE7FFE745E0B068406940680068007BD6
:103DB000FEF7A4FF0146B068F21D113232601170A7
:103DC000137869464160DC1D07218C436946091B55
:103DD00071608D460360406940681278FEF7C7FF46
:103DE000316870680978FDF7E8FF002809D0FFE71F
:103DF000FFE7FFE7FFE7B06840690421FFF7D6FE61
:103E000010E0B168C8684969098A884209D9FFE7A2
:103E1000FFE7FFE7FFE7B06840690421FFF7C6FE50
:103E2000FFE7FFE7B0684068854602E0FFE7FFE78D
:103E3000FFE70020FC1F013CA546D0BD80B584B043
:103E4000039002910398FFF7D7FD014601A8017086
:103E50000078C007002810D1FFE70398FFF78CFD1A
:103E60000146684601700078C007002804D1FFE7CA
:103E70000398FFF76BFEFFE7FFE70398007D02283A
:103E800004D1FFE70398FFF7DCFDFFE702980399F1
:103E9000C86003980D21FFF70BFD03980321FFF77E
:103EA00085FE002004B080BD80B584B0FEF754FAD2
:103EB00035490968401A354988425DD3FFE7FEF766
:103EC0004BFA31490860FFE7314803789A4803907C
:103ED000304A01210902FCF701FA0398FCF71EFAA7
:103EE0000146039800F01CFFFFE729480078029084
:103EF000042836D80298810001A040588746C04661
:103F0000153F0008253F0008353F0008453F0008E1
:103F1000553F0008864823494B229300022200F0B7
:103F200081F81FE082481D494B229300022200F0D5
:103F30003BF8FFE77E481A494B229300022200F02B
:103F40005CF80FE07A4814494B229300022200F0FB
:103F500069F8FFE776484B218A00022100F039F822
:103F600000E0FFE70A4801900078401C0521FCF7BB
:103F700059FA01980170FFE7FEF7EEF901466C4827
:103F800000F066F804B080BDA0000020B90B00006E
:103F90009C0000202A52000808520008CC5100085A
:103FA000E85100081052000810B586B0019303468E
:103FB00001980593049103AB1A7002AA108005982A
:103FC00004991B78128800920522FFF786FC06B040
:103FD00010BD80B586B0029202460298059204AAEE
:103FE000117003A9088005981378098800910021B1
:103FF0000222FFF772FC06B080BD10B586B00193B7
:10400000034601980593049103AB1A7002AA10802D
:10401000059804991B78128800920722FFF75DFC2F
:1040200006B010BD10B586B0019303460198059304
:10403000049103AB1A7002AA1080059804991B78AA
:10404000128800920322FFF748FC06B010BD000062
:1040500080B584B0029001910298002804D1FFE756
:1040600003A90420087035E00298407D401E0090AE
:1040700003281FD80098810001A040588746C046F9
:104080009140000899400008A3400008AD40000896
:104090000298FFF717FE0EE002980199FFF7CEFE97
:1040A00009E002980199FFF713FE04E00298FFF778
:1040B000E9FD00E0FFE70298007D022806D0FFE757
:1040C000029840680199FFF7E3F9FFE703A9002090
:1040D0000870FFE703A8007804B080BD80B584B005
:1040E000104802901049114AFEF709FF0299104842
:1040F0000390FFF701FD03980E490322FFF732FDFD
:10410000FFE70D4801900D4A01210902FCF7E6F88E
:104110000198FCF703F90146019800F001FEFFE762
:1041200004B080BDA4000020BC510008F535000893
:104130007800002098510008C50000203A5200087D
:1041400082B00190684601700078002806D0FFE731
:10415000019A584908681043086005E0019A5549DA
:10416000086890430860FFE702B0704782B0019092
:10417000684601700078002806D0FFE7019A0649DA
:1041800008681043086005E0019A034908689043F5
:104190000860FFE702B070471C10024082B0019037
:1041A000684601700078002806D0FFE7019A0649AA
:1041B00008681043086005E0019A034908689043C5
:1041C0000860FFE702B070471810024083B0029009
:1041D00001A80170029800900921C90688420FD0F9
:1041E000FFE70098304988421ED0FFE700982F492A
:1041F00088422DD0FFE700982D4988423CD04FE0FF
:1042000001A80078002807D0FFE72A4908680122A2
:1042100052041043086006E026490868012252044F
:1042200090430860FFE73CE001A80078002807D031
:10423000FFE720490868012292041043086006E065
:104240001C4908680122920490430860FFE728E0B7
:1042500001A80078002807D0FFE716490868012266
:10426000D2041043086006E0124908680122D20413
:1042700090430860FFE714E001A80078002807D009
:10428000FFE70C490868012212051043086006E0A8
:10429000084908680122120590430860FFE700E022
:1042A000FFE703B07047C04600040048000800481C
:1042B000000C00481410024080B500F027F8374980
:1042C0000968C9B20A091049895CC84080BDC04666
:1042D00080B5FFF7F1FF314909680722120211404A
:1042E0000A0A0949895CC84080BDC04680B5FFF70D
:1042F000E3FF2A4909680722D2021140CA0A02498B
:10430000895CC84080BDC0460800002080B588B0E8
:10431000224800680C2108400390042804D0FFE7DD
:104320000398082803D032E01E48079032E01C486A
:104330000068C00700280ED0FFE719480068810711
:104340001948184A01920029029001D4019802905C
:104350000298009002E013480090FFE70098069052
:104360000F480168FF2212041140090C491C0591F5
:104370000068072109020840000A401C04900699C1
:10438000059848430499FCF74DF8079002E0F5487A
:104390000790FFE7079808B080BDC04604100240B0
:1043A0005010024000127A0000093D0080B588B02C
:1043B000069005910492069800688068039006981C
:1043C00000280DD0FFE706980068002808D0FFE716
:1043D0000398002804D0FFE70598002804D1FFE7E0
:1043E00007A90420087045E00498052804D3FFE7D6
:1043F00007A9072008703DE000200290FFE702981F
:104400000499884232D2FFE705980299405CFF2860
:1044100004DDFFE707A9082008702BE00598029942
:10442000415C06980068C0894843FF21FBF7FAFF0A
:1044300001900598029A805C06998918C8740398BF
:10444000029989004058002804D1FFE707A90420F9
:1044500008700FE0039802998900415801A800886C
:104460008847FFE70298401C0290C8E707A9002090
:104470000870FFE707A8007808B080BD80B58AB053
:10448000089007910692089800688068059008983F
:1044900000280DD0FFE708980068002808D0FFE743
:1044A0000598002804D0FFE70798002804D1FFE70B
:1044B00009A9042008704EE00698052804D3FFE7F8
:1044C00009A90720087046E000200490FFE704983F
:1044D000069988423BD2FFE7079804994900405A61
:1044E00008990968C989884204DDFFE709A90820FD
:1044F000087030E0079804994900405A03900598E5
:10450000049989004058002804D1FFE709A9042034
:10451000087020E0059804998900415803A8008894
:1045200088470798049901914900415AFF20484360
:10453000089902910968C989FBF774FF019A0299E9
:104540008918C874FFE70498401C0490BFE709A9C4
:1045500000200870FFE709A800780AB080BD80B588
:1045600000F002F880BD000010B590B000200C9063
:104570000B90A9490868012210430860FFE7A6488C
:1045800000688007002801D4FFE7F8E7A24908681F
:1045900001221204104308600520FDF7FDFCFFE72F
:1045A0009D4800680121490408400B900B980028A1
:1045B00001D0FFE709E00C98401C0C900C98400AD1
:1045C000192801D3FFE7BDE0EAE7934800688003BC
:1045D000002803D4FFE700200B90B3E001200B90EC
:1045E0000520FDF7D9FC5848089058490160584A01
:1045F000079211681023194311601168072306936D
:10460000994311600068401E5249FBF70BFF069961
:10461000079A034608980F930F9B0B4011681943A4
:1046200011607E4A11684C4B19401160116890234B
:10463000194311601168116000684849884207D326
:10464000FFE77649086805221202104308600DE072
:104650003D4800684249884207D3FFE76F49086830
:104660000122920210430860FFE7FFE73648016825
:104670003C480AAA049209AB0393FDF7C6FB039BCF
:104680000498394905910A680324A2430A600C681A
:10469000012214430C601B78072423400D930078FB
:1046A0007F2318400E90314B186814072043186080
:1046B00008682F4B184008600E9803040D980002FC
:1046C000034308681843086008683C23984308605F
:1046D00008681843086050490868120610430860CB
:1046E000FFE74D4800688001002802D4FFE700BFC3
:1046F000F7E74A49086803229043086008680222E5
:1047000010430860FFE7454800680C21084008286E
:1047100002D0FFE700BFF6E701200290FDF73CFC66
:1047200002983E4A01921168102399431160FDF7E7
:1047300033FC019A02981168802399431160FDF7B8
:104740002BFCFFE710B010BD0400002000D8B80516
:104750000020024000366E010FC0FFFF01A24A0494
:104760000151250200127A00501002401C10024034
:10477000FFF800FF80B584B002900298401E000E42
:10478000002803D0FFE70120039011E00298401EAB
:104790000949086000200190C043032100F0EEFAAF
:1047A000019806490860064A072111600390FFE757
:1047B000039804B080BDC04614E000E018E000E0BB
:1047C00010E000E080B5FDF7E3FBFDF7C9FD80BD1B
:1047D00010B5114908680123184308600F4A106892
:1047E0000F4C2040106008680E4C2040086008689C
:1047F0009B04984308601068C3231B04984310600F
:104800000868094A104008609F20000407490860B2
:10481000FFF7A5FE10BDC046001002400410024084
:104820000CC0FFF8FFFFF6FEFFFF8F0008100240EC
:1048300080B582B001900021C84300F09FFA019832
:10484000FFF798FF02B080BD84B000920246009846
:10485000039202AA117001A908700398006A1278E5
:1048600001239340984309789140084303990862D3
:1048700004B0704782B0019068460170007800284B
:1048800006D0FFE70199086801221043086005E09F
:1048900001990868012290430860FFE702B0704761
:1048A00082B00190684601700078002807D0FFE7C9
:1048B0000199486C0122D2031043486406E0019933
:1048C000486C0122D20390434864FFE702B070476E
:1048D00082B001900091019880697021884300990D
:1048E00009780843019988610198006A0321884387
:1048F000009A117A5278114308430199086200988E
:104900004068019948630198AF4988420FD0FFE79A
:104910000198AF4988420AD0FFE70198AD49884223
:1049200005D0FFE70198AC49884218D1FFE701980C
:10493000006A0C218843009A517A92781143084307
:104940000199086201984068032109028843009A8E
:10495000518992891143084301994860FFE702B0E9
:104960007047C04682B0019000910198806907218C
:10497000090388430099097809020843019988616D
:104980000198006A30218843009A117A52781143C5
:1049900009010843019908620098406801998863F9
:1049A00001988949884205D0FFE7019888498842E3
:1049B0001AD1FFE70198006AC0218843009A517A12
:1049C00092781143090108430199086201984068EF
:1049D000032189028843009A5189928911438900F1
:1049E000084301994860FFE702B0704782B0019028
:1049F00000910198C06970218843009909780843A3
:104A00000199C8610198006A032109028843009A4C
:104A1000117A5278114309020843019908620098FB
:104A200040680199C86301986749884205D0FFE74B
:104A30000198674988421AD1FFE70198006A03216B
:104A40008A029043009B5A7A9B781A4312021043C1
:104A5000019A10620198406809038843009A5189BD
:104A6000928911430901084301994860FFE702B0A8
:104A70007047C04681B000900099002008700099EE
:104A800048700099887000994860009908720099F0
:104A90004872009948810099888101B0704782B0BE
:104AA00001900091019801218907884204D1FFE714
:104AB00000980199486304E06846008801994863BA
:104AC000FFE702B0704782B0019000910198012188
:104AD0008907884204D1FFE700980199886304E0C0
:104AE0006846008801998863FFE702B0704782B08A
:104AF00001900091019801218907884204D1FFE7C4
:104B000000980199C86304E0684600880199C86369
:104B1000FFE702B07047000082B001900091019859
:104B20000068032109028843009909890843019913
:104B3000086001982449884210D0FFE701980121BC
:104B4000890788420AD0FFE701982049884205D0AA
:104B5000FFE701981E4988420AD1FFE701980068E3
:104B60007021884300998978084301990860FFE71C
:104B70000198154988420FD0FFE7019814498842EF
:104B80000AD0FFE701981349884205D0FFE7019852
:104B9000114988420AD1FFE70198006BFF21884341
:104BA0000099897A401801990863FFE700984068E6
:104BB0000199C862009800880199886201990120D2
:104BC000486102B07047C046002C0140000400401C
:104BD00000080140004401400048014081B00090BD
:104BE000009A0020C1435160009908800099088113
:104BF000009988700099887201B0704783B0009165
:104C000001460098029101A908700298806901226A
:104C10009043097808430299886103B0704783B0D4
:104C2000009101460098029101A9088002988068CD
:104C300009880840411E884103B0704780B584B0A0
:104C400003900291002001900398C06930218843AD
:104C50000299097908430399C8610398C0694421FE
:104C600088430299897908430399C8610398C06908
:104C7000032188430299097A08430399C86103987C
:104C800080691821884302994989084303998861FA
:104C900003988069042188430299097B084303999A
:104CA000886103983449884204D1FFE7FFF71EFB6F
:104CB000019003E0FFF70CFB0190FFE701980299D8
:104CC0000968FBF7AFFB0009039908620198029994
:104CD0000968FBF7A7FB0F2108400399486204B05D
:104CE00080BDC04682B0019068460180007801997D
:104CF000086002B0704781B0009000994B20C0015D
:104D0000086000993020087100990020887100998E
:104D10000872009A182151810099087301B07047F8
:104D200080B582B001900091FFE70098411E00918C
:104D3000002809D0FFE701980021405600F006F84E
:104D40000198401C0190F0E702B080BD80B582B0B0
:104D500001A90870FFE708480121FFF760FF00285C
:104D600001D1FFE7F7E7002101A8405681B20248D0
:104D7000FFF7B8FF02B080BD0038014070B582B0C7
:104D8000024601A80270009100214056002816D466
:104D9000FFE7002401A908570322D3431840174A0C
:104DA000805809578C07E50EFF24AC40A043009CB7
:104DB000A401E4B2AC402043194088501AE001A994
:104DC00008780F24204008380322D34318400A4AA9
:104DD0008058002549578D07EE0EFF25B540A843A2
:104DE000009DAD01EDB2B54028432140083919407E
:104DF0008850FFE702B070BD1CED00E000E400E069
:104E000080B582B0FDF7A8FA0D490968401A0D492E
:104E1000884212D3FFE70C48019002780B48082122
:104E2000FDF7D6F901990878401E421E904108709E
:104E3000FDF792FA02490860FFE702B080BDC04664
:104E4000C0000020E9030000C4000020000C00485E
:104E500080B584B000200390174800687D21C90008
:104E6000FBF7E0FAFFF7E4FCFDF72AF8E120400247
:104E7000FDF7CAF8FDF728F8FFE70F4803680F4869
:104E800001900F4A01210902FBF728FA0198FBF76C
:104E900045FA01460198FFF743FFFFE7FEF7A9FC3B
:104EA000FFF71CF9FDF758FA0290FFE7FEF7FCFF49
:104EB000FFF7A6FFFAE7C04604000020C500002067
:104EC00050520008F8B5040C8BB2264682B25E43FD
:104ED000104658430D0C370C360400218019164635
:104EE00079416E43370C36048019264679416E436A
:104EF0008919F8BD4900CA020243100000D00420FD
:104F00004A0D01D001221043044A490D914201D1BA
:104F100002210843012800D105207047FF07000047
:104F200030380A2801D20120704700207047000065
:104F300010B500290AD00878002807D00548784421
:104F4000FCF7F0FE002801D0002010BD0248784494
:104F500010BD00004A0300004203000010B5002904
:104F60000AD00878002807D005487844FCF7DAFE14
:104F7000002801D0002010BD0248784410BD000078
:104F80003A0300003203000070B5420064414B0058
:104F90005C41120E39D01B0E38D0FF2A3CD0FF2BBB
:104FA0003AD0D2187F3A40024902400A490A4518CD
:104FB000ED0106004E43000A090A48430104731A32
:104FC0004019190C4318990F04D05B0801214907B7
:104FD0005B1A521CD80904D3401CF50301D19D066D
:104FE00007D0FF2A08D2D50506D0E4072043401990
:104FF00070BD0125A843F4E7002A01DCE00770BD7D
:105000002402FF202043C00570BD1B0EFF2A03D0E1
:10501000FF2B01D0E00770BDFF2636064500B542E4
:1050200006D84D00B54203D8D218FF2A00D0E7E7D2
:10503000004870BD0000C07F03B402487844844635
:1050400003BC604781BFFFFF03B402487844844635
:1050500003BC6047E9C1FFFF81828384858687881E
:10506000898B8C8D8E8F919293959697999A9C9D12
:105070009FA0A2A3A5A7A8AAACAEB0B2B3B5B7B97A
:10508000BCBEC0C2C5C7C9CCCED1D4D7D9DCDFE243
:10509000E6E9ECF0F3F7FAFE000000000000000083
:1050A000303132333435363738394142434445465E
:1050B0004030580030313233343536373839616258
:1050C000636465664030780004000008000000005A
:1050D0000000000200010000103031323334353658
:1050E0003738396162636465667870003031323315
:1050F000343536373839414243444546585000002C
:1051000002400000000000A0000000000540000078
:10511000000000C8000000000C4000000000409C9F
:1051200000000000194000000020BCBE000000008C
:1051300034400000BFC91B8E00000004B5400000D1
:10514000504BCFD06607E2CF010000006C41000059
:105150003E8251AADFEEA73401000000D9420000D0
:10516000DCB5A0E23A301F97FFFFFFFFB445000017
:10517000FD25A0C8E9A3C14FFFFFFFFFFF3F0000CF
:105180000000008000000000FF3F000000000080E1
:105190000000000000800000E8510008F8510008FD
:1051A00004002413F8510008D85100080400241307
:1051B000D851000808520008040024138937000859
:1051C000C3370008185200080200E8032452000800
:1051D000C80096000500000094510008FC08C800B3
:1051E0006400FC08FF00000024520008FC08C8000E
:1051F0006400FC08FF00000027520008FC08C800FB
:105200006400FC08FF00000094510008000000004A
:1052100000000020000000003D38000805380008AC
:1052200075380008FF0000FFFF005472616E73695B
:1052300074696F6E2025640D0A004C454420547239
:10524000616E736974696F6E20546573740D0A0022
:105250004D4355204672657175656E63793A202518
:105260006420487A0D0A0000B853000800000020AE
:105270001800000004010008D053000818000020A6
:10528000B0070000200100081C00000043000000DF
:10529000F8FFFFFF0C0000000E0000000F000000F0
:1052A0002E0000001001000043000000F8FFFFFF87
:1052B0000040404040404040404041414141414029
:1052C00040404040404040404040404040404040DE
:1052D000400502020202020202020202020202026D
:1052E0000220202020202020202020020202020272
:1052F00002029090909090901010101010101010CA
:1053000010101010101010101010101002020202D5
:105310000202888888888888080808080808080819
:105320000808080808080808080808080202020215
:10533000400000000000000000000000000000002D
:10534000000000000000000000000000000000005D
:10535000000000000000000000000000000000004D
:10536000000000000000000000000000000000003D
:10537000000000000000000000000000000000002D
:10538000000000000000000000000000000000001D
:10539000000000000000000000000000000000000D
:1053A00000000000000000000000000000000000FD
:1053B000000000000000000080A8000000D8B80530
:1053C00000000000010203040102030406070809AB
:04000005080000C12E
:00000001FF
