:020000040800F2
:10000000200A002099020008A7020008A90200089F
:1000100000000000000000000000000000000000E0
:10002000000000000000000000000000AB0200081B
:100030000000000000000000AD020008916600080A
:10004000B1020008B1020008B1020008B1020008C4
:10005000B1020008B1020008B1020008B1020008B4
:10006000B1020008B1020008B1020008B1020008A4
:10007000B1020008B1020008B1020008B102000894
:10008000B1020008B1020008B1020008B102000884
:10009000B1020008B1020008B1020008B102000874
:1000A000B1020008B1020008B1020008B102000864
:1000B000B1020008B1020008B1020008000000000F
:1000C00000F002F800F0BDF80CA030C80838241881
:1000D0002D18671EA246AB4654465D46AC4201D180
:1000E00000F0AFF87E460F3EB6460FCC01263342F5
:1000F00000D0FB1A3343A246AB461847007E0000EF
:10010000207E0000103A02D378C878C1FAD852078E
:1001100001D330C830C101D504680C6070470000BD
:100120000023002400250026103A01D378C1FBD813
:10013000520700D330C100D50B60704710B56E294F
:1001400002D100F0C7FB10BD702902D100F003FD01
:1001500010BD662902D107F021F810BD652902D132
:1001600007F01CF810BD672902D107F017F810BD81
:10017000612902D107F01AF810BD03681B0A01D3E8
:1001800080231943692902D100F06EFB10BD642958
:1001900002D100F069FB10BD752902D100F064FBAB
:1001A00010BD6F2902D100F081FC10BD782902D169
:1001B00000F0BEFC10BDE92902D100F01DFC10BD0D
:1001C000E42902D100F018FC10BDF52902D100F09D
:1001D00013FC10BDEF2902D100F074FC10BDF8290A
:1001E00002D100F0B3FC10BD0368DB0901D380230A
:1001F0001943632902D101F096F910BD732902D188
:1002000001F099F910BDE32902D101F0A3F910BD65
:10021000F32902D101F0A6F910BD002010BD1FB5D1
:1002200001F000FA04000020002106F049FF401C04
:1002300060600020002106F02DFFE0601FBD10B5BA
:1002400010BD01F0C8F91146FFF7E9FF06F0A6FE60
:1002500001F05CFD03B4FFF7F2FF03BC01F0A6FD63
:1002600070B505460C46164602E00FCC0FC5103E91
:10027000102EFAD2082E02D303CC03C5083E042E5A
:1002800007D301CC01C5361F03E021782970641C17
:100290006D1C761EF9D270BD094880F308880948A4
:1002A000804709480047FEE7FEE7FEE7FEE7FEE776
:1002B000FEE7000005480649064A074B7047000064
:1002C000200A00209D660008C100000820040020CC
:1002D000200A002020060020200600200FB41CB5B4
:1002E0000C0007AA009007D04142A14202D3001996
:1002F000401E01E00020C043074B7B44694601904B
:10030000069800F000FB0021002C01D0009A11702B
:100310001CBC08BC04B018472F06000030B5441CB4
:1003200003E00178401C00290DD08107F9D10B4B67
:10033000DD0104C8D11A91432940FAD0001B0A06F6
:1003400003D0C01E30BD001B30BD0A0401D0801E8A
:1003500030BD0902FCD0401E30BD0000010101018A
:10036000F8B5042A2CD3830712D00B78491C0370EC
:10037000401C521E83070BD00B78491C0370401C95
:10038000521E830704D00B78491C0370401C521E78
:100390008B079B0F05D0C91ADF002023DE1B08C97D
:1003A0000AE0FFF75DFFF8BD1D4608C9FD401C4689
:1003B000B4402C4310C0121F042AF5D2F308C91A06
:1003C000521EF0D40B78491C0370401C521EEAD414
:1003D0000B78491C0370401C012AE4D40978017091
:1003E000F8BD01E004C0091F0429FBD28B0701D529
:1003F0000280801CC90700D00270704700290BD012
:10040000C30702D00270401C491E022904D383078F
:1004100002D50280801C891EE3E70022EEE700225D
:10042000DFE70000002203098B422CD3030A8B4232
:1004300011D300239C464EE003460B433CD40022DC
:1004400043088B4231D303098B421CD3030A8B42EE
:1004500001D394463FE0C3098B4201D3CB01C01ABC
:10046000524183098B4201D38B01C01A5241430987
:100470008B4201D34B01C01A524103098B4201D375
:100480000B01C01A5241C3088B4201D3CB00C01AE2
:10049000524183088B4201D38B00C01A524143085A
:1004A0008B4201D34B00C01A5241411A00D201467F
:1004B0005241104670475DE0CA0F00D04942031018
:1004C00000D3404253409C46002203098B422DD367
:1004D000030A8B4212D38901FC2212BA030A8B420F
:1004E0000CD3890192118B4208D3890192118B425E
:1004F00004D389013AD0921100E08909C3098B42E3
:1005000001D3CB01C01A524183098B4201D38B0125
:10051000C01A524143098B4201D34B01C01A5241C8
:1005200003098B4201D30B01C01A5241C3088B420D
:1005300001D3CB00C01A524183088B4201D38B00F8
:10054000C01A5241D9D243088B4201D34B00C01A82
:100550005241411A00D201465241104663465B1097
:1005600001D34042002B00D54942704763465B10DF
:1005700000D3404201B50549002802DC491C08406F
:1005800000E00846C046C04602BD00BFFFFFFF7F37
:100590007047704770470000F0B5FF252D04C6096D
:1005A000C209FF2704462E400137CB093E4348408D
:1005B0002A402B400746002A6BD0002B69D0AA4264
:1005C00067D0AB4265D0002800DA32460125ED0540
:1005D00029432C4309022002090AD21A4B0C7F241A
:1005E000E31A434C000A7C44E35C7D242404121982
:1005F00014145B00A218884201D3521C00E0400092
:1006000049420C465C4324115C43DB016415E3184A
:10061000040A5C43C502200D0C4644436419250AB4
:100620005D432303EC0C0D46654300030019EB18F2
:100630004C42A34201D35B18401CD4052018002B68
:1006400007D05B00C91804D3401C002901D1400821
:1006500040003F2189048A4209D3002A08DC1106A0
:10066000090F04D0032149074018C00FC007F0BD8F
:1006700001224100120689187F2252069142F6D2C9
:1006800005214907C84201D59010F0BDFF20C005E3
:10069000F0BD002F00DA32461648AA4207D2AB421C
:1006A00005D21902090E17D0F80FC007F0BDFF25BB
:1006B00063002D06AB42F9D84900A942F6D8AB42F7
:1006C00001D1A942F2D0A94201D1002101E061008B
:1006D0004908D0050843F0BD1102090EFBD0FF20E8
:1006E0000243D005F0BD0A460146104654E700001B
:1006F000D26B00000000C07F10B501469E240002AE
:10070000CA15A307002A02D01843002A04DBA21A44
:10071000002A0CDDD04010BD1206120E01D140009F
:100720004008A21A03D4D04040420028F3DDFF2243
:1007300048001206904201D9002010BDC817C043DE
:10074000584010BD1F22030C02D10F2200041CD000
:10075000030E01D10002083A030F01D10001121F5C
:10076000830F01D18000921E002801DB4000521E41
:10077000D2055118021251181922904004D3491C75
:10078000002801D14908490008467047C10FC90730
:1007900000D04042012292071143D3E7012189078B
:1007A000D0E770B5044685690068C10601D53026DA
:1007B00000E02026C00707D070BD62683046A168FF
:1007C0009047206A401C20626D1EF6D570BD70B542
:1007D000044685690078C00707D170BD6268A168CA
:1007E00020209047206A401C20626D1EF6D570BD07
:1007F00009684A0501D540B27047C905FCD500B269
:10080000704709684A0501D5C0B27047C905FCD5D3
:1008100080B2704770B50C460546012A05D028788D
:10082000800600D5EA69002302E0012305E05B1C95
:10083000934202D2E05C0028F9D1A869E618C01AF8
:10084000A861286AC01828622846FFF7AAFF04E0BA
:100850006A682078A968641C9047B442F8D3284697
:10086000FFF7B5FF70BD0000F7B5002575291068CA
:10087000009914A611D0FFF7BBFF002802DA40420E
:1008800011A608E0009909688A0701D50FA602E0C1
:10089000490704D50EA6012501E0FFF7B2FF009F2E
:1008A0000024243704E000F082FE30313955641C06
:1008B0000028F8D12B4632462146009800F059FA1C
:1008C000FEBD0000000000002D0000002B00000015
:1008D0002000000011680268006A530501D5087005
:1008E00009E0D30501D5088005E0130602D5C2173B
:1008F00005C100E0086001207047000001694A1C42
:1009000002610878704700B58FB00291002105910F
:10091000054901937944039111460490684600F01B
:1009200027F90FB000BD0000E5FFFFFF0CC9083933
:100930009A4202D2531C0B6010707047F7B5044600
:10094000154686B02B487844002703C83E460090E1
:10095000019111E007986A467100415A02A800F01F
:1009600005FE411C07D02178890603D5E2693918B4
:1009700091420ED83F18761C2078800602D5E06997
:10098000B84206DDAE42E5DB07987100405A002808
:10099000E0D1A069C01BA0612046FFF702FF154807
:1009A00078445A3803C800900020019116E04100B5
:1009B0006A460798415A02A800F0D8FD0590401CED
:1009C0000AD0002505E0626802A8A168405D904752
:1009D0006D1C05988542F6D30498401CB0420490E3
:1009E000E5DB206AC01920622046FFF7F0FE09B05F
:1009F000F0BD0000B2680000F7B5D21D0025D20896
:100A000015A6D200F52905CA11D0002A05DA002161
:100A10004042914111A60A4608E0009909688B07F7
:100A200001D50FA602E0490701D50EA60125114602
:100A3000009F0024243704E000F05EF930323A557C
:100A4000641C02460A43F7D12B46324621460098E1
:100A500000F08FF9FEBD0000000000002D00000036
:100A60002B0000002000000070B504460021243453
:100A700008E05507D2086D0F303565545D072A43ED
:100A8000DB08491C15461D43F3D10468002310A25E
:100A9000250708D520252C400C4304D0C469012328
:100AA0000CA2641EC46100F064F970BD10B5044668
:100AB00021461068FFF7A5FE002302462046FFF7F7
:100AC000D3FF10BDD21DD108C9000CC9CCE700006E
:100AD0000000000030000000F8B50F46018809054D
:100AE00002D5224C7C4402E0204C7C440E34054666
:100AF0000021243508E016071209360FA65D6E5452
:100B00001E0732431B09491C16461E43F3D12246D9
:100B100004780023240705D5702F06D0002901D0C2
:100B20000223113200F025F9F8BD01231032F9E754
:100B300070B504460D4621461068FFF762FE00239B
:100B4000024629462046FFF7C7FF70BDD21DD308D5
:100B5000DB000CCBC0E730B40368202412682343C9
:100B600003600823C36130BC0023B5E71C670000A5
:100B7000F3B50446002081B020622046E168884732
:100B8000002872D0252802D06268A168ABE0594FD6
:100B900000267F442046E16888472028054608DB78
:100BA000312D06D2781920380078002801D006436C
:100BB000F0E7B00701D5042086430020E061074636
:100BC000A0612A2D0AD0284606F05CFA002827D01A
:100BD000B8000019303D0090856119E00298BA0014
:100BE000121902C8916102902046E1688847012FDE
:100BF000054617D1E06900281FDA202086431CE053
:100C000000980A218069484300994019303888616A
:100C10002046E1688847054606F034FA0028EFD1FF
:100C2000012F0AD02E2D08D12046E16888470546BD
:100C3000202006437F1C022FC3DBA069002803DAB3
:100C40004042A06101200643F00701D010208643F6
:100C50006C2D0BD0682D09D04C2D3CD06A2D38D08E
:100C6000742D38D07A2D36D016E040E0E1682F465A
:100C700020468847B842054609D16C2F29D001206B
:100C80008002E168064320468847054604E06C2F51
:100C90001DD0FF2001300643002D28D028464138C2
:100CA000192803D80120C0020643203520462660BB
:100CB0002946029A1646FFF741FA002810D001286B
:100CC0000BD0F61DF008C0000830029055E7402018
:100CD000E1E78020D5E70020D3E7361D02964CE7F8
:100CE00062682846A1689047206A401C44E7206A51
:100CF000FEBD0000966600000B4670B502468907EF
:100D00008008084319469D08141AA94125090807B7
:100D1000054308092C194841250A01060D43010A1B
:100D20002C194141200C0D0428430D0C00194D4194
:100D3000002140194D41C00869070843E908840FA4
:100D40008D002543840024184D4124196D41121B48
:100D5000AB4107E00925ED432C11521963410024F2
:100D6000401C61411C460A250026551BB441F1D2A6
:100D700070BDFFB504460D4681B024300090216857
:100D8000880604D51022E0699143216000E001202B
:100D9000A84201DD471B00E000270498A1697A19E9
:100DA0001018081AA0612078C00602D42046FFF768
:100DB000F8FC002608E003986268A168805D90470F
:100DC000206A401C761C206204988642F3DB20785F
:100DD000C0060AD52046FFF7E4FC06E06268A16879
:100DE00030209047206A401C206238467F1E002831
:100DF000F4DC07E000986268A168405D9047206AD3
:100E0000401C206228466D1E0028F3DC2046FFF7B8
:100E1000DEFC2078000602D5022005B0F0BD0120DE
:100E2000FBE70000FFB50C461E468FB003CA0890D2
:100E300009914F007D0D00D16D1E00210846002054
:100E4000C0460321099A89050840002A03DA820076
:100E5000801840080840800D01280A9002DD00201B
:100E6000C0430A90089807430DD0F048F04928186D
:100E700048430714189800281DD07542291E1DDD0F
:100E80000A9842421BE01898012802D00020302125
:100E900004E00020F24305E02154401CB042FBDB9B
:100EA00030460022189B002121540F998B600A6064
:100EB000486013B0F0BDBD1B6D1CDFE70A9A002926
:100EC00000DA69420BA800F0F5FB0BAB07CB03ABD4
:100ED00007C30899099800F059FC6B4607C30146FF
:100EE000D4480918002D00910BDDD24903980A9AC5
:100EF00049424018002303A90390684600F0B6FE5B
:100F000008E003990A9A0023081803A90390684689
:100F100000F056FE6B4607C30004000C03D000200F
:100F2000C043410800E01046189A002A03D000226E
:100F3000009215461EE0751E05D4FFF7DDFE303227
:100F400062556D1EF9D501220843079602D0002292
:100F50007F1C04E02078302801D100227F1E002A67
:100F6000069787D01EE0112D07DAFFF7C5FE303255
:100F700062556D1C02460A43F5D1084303D0009820
:100F8000002819D00EE00021681E05E0235C625C99
:100F900063542254401E491C8142F7DBA81B401EAB
:100FA00007950690079A18990020A0540F98079B60
:100FB000069A81600CC07CE711260020189059E742
:100FC000D21DF0B50D460446D10893B0C90003C93F
:100FD0000C900D9106F040F802460D98C00F01D01C
:100FE0002D2007E02068810701D52B2002E0400773
:100FF000C00F4001032A0F9001D0072A05DB0346EA
:101000002946204600F012FB0EE12078800601D52B
:10101000E76900E006272846652D04D0662814D02D
:10102000672D69D12DE00020112F009001DB1123E5
:1010300000E07B1C0CAA03A910A8FFF7F3FE11998E
:10104000002610987D1C0E9142E001203B460CAA20
:10105000C0070B900120009003A910A8FFF7E2FE43
:10106000119D12981099002600280E9501D1781C28
:101070000D18781B02D446427D1C761EE81B00909A
:101080003AE0012F00DA01270020112F009001DD46
:10109000112300E03B460CAA03A910A8FFF7C2FEEB
:1010A00011993D46109800260E91217809070BD41E
:1010B0000E99A94200DA0D4603A9012D04DD4A1953
:1010C000203AD27F302A06D0B84201DA011D04DA74
:1010D000012100910FE06D1EEFE7002802DC861968
:1010E0002D1A03E0411CA94200DD0D46801B401C67
:1010F00000900120C0070B902078000705D40098CD
:10110000A84202DB0020C043009069460020C8725C
:101110000B98012102AF0337C907884225D002206E
:1011200010902B2011900B9800280BDA40420B9066
:101130002D20119006E00B9800F039FA30317F1E17
:101140000B9039701099481E00291090F3DC0B9811
:101150000028F0D111987F1E38702088000501D535
:10116000452000E065207F1E387001A8C01BC01D0F
:101170000B900F98002800D0012041190098C0174B
:1011800009180B980818A169081A401EA061207858
:10119000C00602D42046FFF704FB0F98002805D0B4
:1011A0006268A1689047206A401C20622078C006CF
:1011B00025D52046FFF7F5FA21E0002E07DB0E9833
:1011C000B04204DD03A86268805DA16802E0626845
:1011D000A16830209047206A761C401C206200984D
:1011E000401E002800900AD100F01CFAC068626816
:1011F0000168405CA1689047206A401C2062284634
:101200006D1E0028D9DC07E062683878A1687F1C71
:101210009047206A401C20620B99481E00290B90C1
:10122000F2DC2046FFF7D3FA032042E601FCFFFF81
:10123000104D0000E1DFFFFFD21DF0B504460D4662
:10124000D0088DB0C000466807683146384605F0C2
:1012500003FF0246F00F01D02D2307E0206881072D
:1012600001D52B2302E04007C00F43016846002B45
:10127000037001D0012000E00020032A0A9001D071
:10128000072A04DB2946204600F0D0F92DE120781A
:10129000800601D40D2500E0E5697000400D0D2D9C
:1012A00001904BDA300D00210B9008460020C0461B
:1012B000032189050840002E05DA82008018C20F3C
:1012C0001018401008408015012801DD0020C0439F
:1012D000A9000023182906D39C460A460123183A80
:1012E0001B07D34003E001221205CA4094460C318B
:1012F000202902D33A46203900E032468A400028AD
:1013000002DD002A06D119E0002817D10121C90702
:101310008A4213D3194663467F185E41002806D1DE
:101320000120C007824202D1084687439E430B98A2
:10133000310D814202D00198401C019020880005A7
:1013400002D57149794402E06F49794419396B46F5
:101350000A9830221A540A980A7C401C1A54401CDD
:101360000A900198002801DC302000E0312018723A
:10137000019A0120002A02D0644BD21804E07200C6
:101380003A4302D0614A521C0192002D02DC2278BD
:10139000120703D56A462E2050720220002286468C
:1013A00094460CE032033601120F6D1E8B5C02AACC
:1013B00013546246521C401C9446052A01DA002D43
:1013C000F0DC002202AE08E03B0F3F01CB5C521C78
:1013D0006D1E3354401C082A01DA002DF4DC23680A
:1013E0009A0601D511E0401E704504DD3218203AFE
:1013F000D27F302AF7D0002807DD3218203AD27F7A
:101400002E2A02D11A0700D4401E002D03DD3E22F1
:101410003254401C6D1E497C31540199401C0029F6
:1014200006DA2D21471C315401984042019003E017
:101430002B21471C315401987D21C900884206DBCD
:10144000FEF7FAFF3030F0557F1C019101E064286F
:1014500008DB01986421FEF7EFFF3030F0557F1C68
:10146000019101E00A2806DB01980A21FEF7E4FF5A
:101470003030F0557F1C01980A21FEF7DDFF303136
:10148000F1550A98A1697F1C7A191018081AA061F1
:101490002078C00602D42046FFF783F9216A6E4601
:1014A0000A980818206204E062683078A168761C07
:1014B00090470A98401E0A90401CF5D12078C0063B
:1014C00002D52046FFF76DF902AE09E03078761CB0
:1014D0003E280DD06268A1689047206A401C2062B7
:1014E0007F1EF3D22046FFF772F90DB00320F0BD46
:1014F000206A4019206203E06268A16830209047AA
:101500006D1EEDD3F8E70000085F000001FCFFFF4F
:1015100010B54369002B02D0C046C04601E0FFF77A
:1015200079F9012010BD1278014624310A70002299
:101530004A700122ECE711680022D243E8E710B5B7
:101540004369002B02D0C046C04601E0FFF7F6F920
:10155000012010BD12880146243182840022C284F9
:101560000122ECE711680022D243E8E7F8B51646FD
:101570000C46054600F04EF80368FF200230C05CC0
:10158000012807D0FF2C0FD8185D00280CD00120AF
:101590002C70F8BDFF333246214608331868C7184F
:1015A00028460023B847F8BD0020C043F8BD0146D7
:1015B0008008081A02091018020A1018020C1018E4
:1015C000C008820012185200891A01E0401C0A3932
:1015D0000A29FBD27047754600F0A0FBAE46050015
:1015E00069465346C008C000854618B020B5FEF7CE
:1015F00061FE60BCB64600260027C0C5C0C5C0C598
:10160000C0C5C0C5C0C5C0C5C0C5403D490849002A
:101610008D46704710B500F005F8001D10BD00BFE5
:10162000A15A00000048704710010020F8B51F467D
:10163000044601230068DB02032601461840072AFE
:1016400005DB002801D017A506E017A504E0002857
:1016500001D016A500E016A5102081432160A069E5
:10166000C01E002FA06101D0401EA0612046FFF7E0
:1016700098F8002F09D038466268A1689047206A20
:10168000401C2062C01C206206E0206AFAE7626803
:101690002878A1686D1C9047761EF8D22046FFF787
:1016A00096F8F8BD4E414E006E616E00494E460000
:1016B000696E6600F7B516468AB0334878446C46C2
:1016C00003467C33C06F5A689B680DC42E4878442B
:1016D000763003AC0DC80DC43720C001081837217F
:1016E0001B30FEF7A9FE05460C46803D1B3C02D58B
:1016F0006442012000E000200027099010E0E0078C
:101700000CD00C2020497843794432464C3941189A
:101710006846012300F054FA6B4607C364107F1C2F
:10172000002CECD1184F7F442E3F16E0E80712D072
:101730002001C0190EC80691089307920068F04274
:1017400001D1981908903246012306A903A800F098
:1017500037FA03AB07C36D10641C002DE6D109985E
:10176000002806D032466946012303A800F07EFA1D
:1017700005E001233246694603A800F021FA0A9BDE
:1017800007C30DB0F0BD0000A45B0000034640009D
:101790000A4610B5400D0BD00121C9070F24A40241
:1017A00000191C0364082143540D2143D20207E0B1
:1017B00000210120F2E7D40F490021435200401ECE
:1017C0000029F8DADB0FDB07184310BDFFB50D4623
:1017D000144685B04868516805F026FC00910190D8
:1017E000A868A16805F020FC02910390A8686168D0
:1017F00005F01AFC029A12188242029201D20120CC
:1018000000E00020019A0B18D2180028019202D0A3
:101810008A4202D903E08A4201D2012000E000207E
:101820000099081800906868A16805F0FDFB029A0D
:1018300012188242029201D2012000E00020019A97
:101840000B18D2180028019202D08A4202D903E074
:101850008A4201D2012000E000200099081800907F
:101860002868216840004900400849084018FA49A2
:10187000471814E001994000C90F084300900198EF
:1018800002994000C90F0843019002980399400053
:10189000C90F08430290039840007F1E03900098F0
:1018A0000028E7DA0898002801D0EC4E00E0002676
:1018B000B74201DA012000E00020002804902AD07D
:1018C000F71BF806C00E15D0029B2021091A039AB7
:1018D0008B401A430392029A019BC2408B401A43E9
:1018E0000292019A009BC2408B4000991A430192D8
:1018F000C14000917B110DD06F460320C11A03D562
:1019000000218200B95003E08A008100BA587A5061
:10191000401EF3D5374603980299002800D00120D5
:10192000014308980291002808460CD0002800D0F6
:1019300001200199019A490508430121D20AC902EF
:10194000D202019200E001210E9B0122D207012B5D
:1019500002D0002B03D013E0002807D120E09042F2
:1019600004D890420CD1019B0B4209D0019B59181D
:10197000019105D10099491C009101D17F1C009271
:1019800000280DD0102108460020C04604980028E9
:1019900006D00F98002803D0082108460020C04632
:1019A00028682168019B009A4840C10F0598C90723
:1019B00039430EC009B0F0BDFFB587B0099A089849
:1019C0000899536892684068896896460022039394
:1019D00017469446089A12685300099A5B081268E1
:1019E000520052089A1A9E4BD4180A9A002A01D023
:1019F000352200E04022069200220123154604927F
:101A0000DB07059324E0002D05D175460346039EB0
:101A10004D1BB34109D375466646039B491B049D84
:101A20009841059B7519AC465F4163463B4308D01E
:101A3000059B049EDD0776082E435B0804960593FC
:101A400001E0521E641EC50FED0749184041521CAB
:101A5000069B9A42D7DB002D04D17546039A6B1A78
:101A6000824101D203200CE0039A0B466B404240B6
:101A7000134303D0014303D0012002E0022000E021
:101A80000020614601910021009702910A990029E6
:101A900005D0614640020143704B019102E080078E
:101AA000002302909C4201DA012000E000200700A0
:101AB0003AD01A1BD006C00E15D0029D2021019CE1
:101AC000091AC5408C402543029C8C4000D001245B
:101AD0002543019C0295009DC4408D4000992C43F4
:101AE0000194C140009154111DD06D460221002285
:101AF00002290CD10320001B07E0002804DB86002C
:101B0000AE59002E00D00122401C0328F5DB081B33
:101B100002D588002A5004E08000285810438A002B
:101B2000A850491EE3D51C460A98002802980CD0FC
:101B3000002800D001200199019A4905084301219C
:101B4000D20AC902D202019200E00121109B0122B7
:101B5000D207012B02D0002B03D013E0002807D1BD
:101B60001FE0904204D890420CD1019B0B4209D057
:101B7000019B5918019105D10099491C009101D18F
:101B8000641C009200280CD0102108460020C0469A
:101B9000002F06D01198002803D008210846002005
:101BA000C04608980999019A009B00680968484056
:101BB000C10F0798C907214382600AC00BB0F0BD6E
:101BC00000B585B0019300920A460146002302A8A1
:101BD000FFF7FCFD02A807C805B000BDFFB50A4627
:101BE0001F4685B00799019301230091014602A881
:101BF000FFF7ECFD02990398049ECA0F4900D20733
:101C000000920F22490892028C1A0021002800DB62
:101C10000C46450013486D08844214D3079A002AE5
:101C200004DA441E0026104DF64302E004460D4639
:101C30000E46102108460020C046002F03D0042184
:101C400008460020C0462005E90A084300990843D9
:101C50006905F20A1143ADE602C0FFFF013C000036
:101C6000FF3F0000FF070000FFFFFF7F00B585B0CA
:101C7000019300920A460146002302A8FFF79CFE4A
:101C800002A807C8A8E7FFB50A461F4685B007990E
:101C9000019301230091014602A8FFF78DFE0299EE
:101CA0000398049ECA0F4900D20700920F224908E8
:101CB00092028C1A0021002800DB0C4645001148D6
:101CC0006D08844214D3079A002A04DA441E0026C1
:101CD0000D4DF64302E004460D460E46102108461F
:101CE0000020C046002F03D0042108460020C04633
:101CF0002005E90A0843009908436905F20A1143DF
:101D000058E60000FF070000FFFFFF7F10B5044604
:101D1000C046C0462046FEF79DFA10BD00487047F9
:101D2000F0000020024670B50A4392072AD11E4DEA
:101D3000EE0104C808C9541B9443344017D0D0B2F4
:101D4000D9B2401A2106014310D190B299B2401A7B
:101D5000210401430AD110021902000A090A401A9B
:101D60002102014302D1100E190E401A70BD9A4291
:101D7000DFD010BA19BA884201D9012070BD002005
:101D8000C04370BD02780B78401C491C002A09D062
:101D90009A4207D102780B78401C491C002A01D0D6
:101DA0009A42EFD0D01A70BD0101010101491820FB
:101DB000ABBEFEE726000200704785B0039002A884
:101DC000017001A80270694600200870FFE76846AC
:101DD000007802A90978884213DAFFE70398694678
:101DE0000978405C01A90978884204DDFFE704A96D
:101DF0000020087009E0FFE70098401C6946087061
:101E0000E5E704A901200870FFE704A8007805B001
:101E1000704780B58AB00990089107920693089898
:101E2000029001A9002008700490FFE7049803289D
:101E300047D8FFE700200590FFE705983F2835D8F1
:101E4000FFE709990598401C48430499491CFEF78F
:101E5000E9FA039003980899884205D9FFE70398A7
:101E60000899401A009004E008980399401A0090DD
:101E7000FFE70098039002980399884209D9FFE789
:101E800003980290059807990870049806990870BD
:101E9000FFE70298002804D1FFE701A9012008709C
:101EA00004E0FFE70598401C0590C6E701A800780C
:101EB000002801D0FFE704E0FFE70498401C0490ED
:101EC000B4E702980AB080BD81B0009001B07047BD
:101ED00082B00190009100980199886102B070472A
:101EE00082B00190009100980199086102B070479A
:101EF00080B590B00F900EA801700F98408901280E
:101F000005DBFFE70F994889401E4881FFE70F98DE
:101F1000007A0190042800D95AE10198810001A0BB
:101F200040588746391F0008A71F000849200008AD
:101F3000A52000089B2100080EA80078C0070028F3
:101F40000CD0FFE70F990DA8012202700F9A12889A
:101F50004280408848810D98088123E00F980079DD
:101F6000C00700281DD0FFE70F98007BC00700289E
:101F700015D0FFE70F98408900280ED1FFE70F9991
:101F8000002008730F980069002804D0FFE70F981D
:101F90000069804700E0FFE71BE1FFE700E0FFE7A3
:101FA000FFE7FFE715E10EA80078C00700281CD066
:101FB000FFE70F984089002815D1FFE70F98C06907
:101FC000002804D0FFE70F98C0698047FFE70F990A
:101FD0000CA8022202700F9A5288428040884881E1
:101FE0000C98088100E0FFE72DE00F980079C0070A
:101FF00000281DD0FFE70F98007BC00700280CD0F9
:10200000FFE70F990BA8002202700F9A52894280B5
:10201000408848810B98088109E00F990AA800229E
:1020200002704280408848810A980881FFE709E0F1
:102030000F9909A8002202704280408848810998BF
:102040000881FFE7FFE7C4E00EA80078C00700287A
:102050001BD0FFE70F984089002814D1FFE70F98A5
:102060008069002804D0FFE70F9880698047FFE768
:102070000F9908A8042202700022428040884881FB
:102080000898088100E0FFE70BE00F9907A80322FA
:1020900002700F9A12884280408848810798088110
:1020A000FFE796E00EA80078C007002868D1FFE798
:1020B0000F984089002861D1FFE70F980079C00789
:1020C00000283ED0FFE70F98007BC00700281FD0F4
:1020D000FFE70F99002008730F98006A002804D0CA
:1020E000FFE70F98006A8047FFE70F9840690028D4
:1020F00004D0FFE70F9840698047FFE70F9906A8D3
:10210000002202704280408848810698088117E0CA
:102110000F99012008730F98006A002804D0FFE788
:102120000F98006A8047FFE70F9905A80022027008
:102130000F9AD28842804088488105980881FFE73D
:102140001BE00F98006A002804D0FFE70F98006A90
:102150008047FFE70F980069002804D0FFE70F9839
:1021600000698047FFE70F9904A8002202704280AF
:102170004088488104980881FFE700E0FFE70BE012
:102180000F9903A8022202700F9A52884280408859
:10219000488103980881FFE71BE00EA80078C0077C
:1021A000002813D1FFE70F98006A002804D0FFE74A
:1021B0000F98006A8047FFE70F9902A8002202707B
:1021C0004280408848810298088100E0FFE700E0F3
:1021D000FFE710B080BD81B000900099002008702A
:1021E00001B0704780B584B00390029103980078E5
:1021F0000190002804D0FFE7019801282AD04AE086
:1022000003984088012805DBFFE703994888401EB2
:1022100048801EE003980079C007002807D0FFE738
:102220000399C888488003990120087010E003983A
:10223000807BC00700280AD0FFE70399081D0E31F4
:102240000A22FEF78DF8039900208873FFE7FFE765
:10225000FFE721E003984088012805DBFFE70399A9
:102260004888401E488015E003980A2140560228FD
:1022700008DBFFE70399887A401E88720399088972
:10228000488003E0039900200871FFE703990020CC
:102290000870FFE700E0FFE7039880890299488013
:1022A000039800780299087004B080BDB0B585B07D
:1022B00004460998049403AC218002A90A7001A97C
:1022C0000B80694608800499012088730199049A5B
:1022D00011820099049A51820399049AD182029939
:1022E000049A117505B0B0BD80B500F02FF880BD1F
:1022F00080B500F003F800F03DF880BD80B584B0F3
:1023000003A8029000F084F90D204004012103F09D
:102310007DFE02990820088003200090887010201C
:102320000190C870074800F0B1F8009A019802992E
:1023300020230B808A70C870034800F0A7F804B00F
:1023400080BDC046000C00480008004880B582B03F
:102350000121880403F05AFE16480090092100224A
:10236000019200F01BF90098019A082100F016F97B
:1023700002B080BD80B584B001210091880403F0D3
:1023800045FE0098400203A902910880032088704E
:102390001820C8700748019000F078F8009A01985A
:1023A000029912020A800422CA7000F06FF804B089
:1023B00080BDC04600040048704781B0694608806F
:1023C00001B070471A4800687047C04683B0029059
:1023D000174900200860029AD200164B1A60164A6C
:1023E000106005200860FFE7114800680190FFE7D2
:1023F000002001A90978C9070029009008D0FFE74B
:1024000001A8807801210840414248410090FFE73F
:102410000098C0070028E7D1FFE7054908680122B6
:102420009043086004490020086003B07047C0462C
:1024300010E000E014E000E018E000E081B000905F
:1024400001B0704780B588B00790012102918803E0
:1024500003F00AFE03A8009004F0B3FB009907986C
:102460000390302088800020C8800881888118204F
:1024700048810548019004F047FB0198029904F057
:1024800023FB08B080BDC0460038014087B00690ED
:1024900005910598C0780F21084000900598C078F4
:1024A000C006002806D5FFE7059881780098084304
:1024B0000090FFE70698019003A900200870FFE74D
:1024C00003A80078072820DCFFE70398800004A910
:1024D00008700598008803A90978C840C00700283B
:1024E0000DD0FFE70198006804A90A780F219140F8
:1024F000884300999140084301990860FFE7FFE78E
:102500000398401C03A90870DAE70698001D0190A3
:1025100005984078029003A900200870FFE703A8FF
:10252000007807281FDCFFE70398800004A90870E3
:10253000029803A90978C840C00700280DD0FFE71A
:102540000198006804A90A780F21914088430099F6
:102550009140084301990860FFE7FFE70398401C9A
:1025600003A90870DBE70598C078282807D1FFE7A2
:102570000598028806994869104348610CE005985F
:10258000C078482807D1FFE70598028806990869AE
:1025900010430861FFE7FFE707B0704786B005907A
:1025A00004A8017003A90A7001784907C90E02AA9C
:1025B00011700078072804DCFFE7059820300090B0
:1025C00003E0059824300090FFE7009801900199FE
:1025D000086802AA13780F229A40904303AA12783F
:1025E0009A401043086006B0704782B00190684678
:1025F000018000880199486102B0704782B0019063
:102600006846018000880199086102B070470000A7
:1026100081B00090009905480880009901208870D9
:1026200000990420C87001B07047C046FFFF000049
:1026300083B0029001A801806846027000780028EB
:1026400005D0FFE701A800880299086104E001A80D
:10265000008802994861FFE703B0704710B588B061
:10266000079006910592069880880490079804992F
:10267000884210D2FFE70698417A01242046884319
:1026800002AB187007980499059A1B78234000F054
:1026900017F8039011E00698407A0124204001AB1E
:1026A000187007980499401A0699C988059A1B78EA
:1026B000234000F005F80390FFE7039808B010BD31
:1026C00010B588B007900691059204A80090037099
:1026D0000799059848430699FDF7A4FE014600981E
:1026E00003910078C007002807D0FFE70398404314
:1026F0000599FDF797FE02900AE005980399401AA4
:102700000190019840430599FDF78CFE0290FFE788
:10271000029808B010BD80B588B007900691059268
:102720000698808804900698C088039006980089CF
:10273000029006984089019007980499884208D22F
:10274000FFE707980499059A0123FFF7B9FF009066
:102750002FE007980499039A8918884203D2FFE76B
:102760000598009024E007980499039A8918019A23
:10277000891888420CD2FFE707980499401A0399F8
:10278000401A0199059A0023FFF79AFF00900EE086
:1027900007980499039A8918019A8918029A891846
:1027A000884203D2FFE700200090FFE7FFE7FFE742
:1027B000FFE7009808B080BD044800687047C04635
:1027C00002490868401C08607047C04600020020AB
:1027D00082B000900098002804D1FFE701A90420EE
:1027E000087024E00098006800280AD0FFE70098ED
:1027F0004068002805D0FFE700988068002804D1D1
:10280000FFE701A90420087011E00098007B01286F
:1028100005DBFFE70098007B062804DBFFE701A942
:102820000620087003E001A900200870FFE701A856
:10283000007802B0704780B58AB008900791089878
:10284000002805D0FFE708984068002804D1FFE77A
:1028500009A9042008705AE00898807CC007002865
:1028600004D1FFE709A90020087050E008984068EB
:1028700006900898C068002808D1FFE707980899D3
:10288000C8600698007A08994874FFE70798089985
:10289000C968401A05900698C1888088484304900A
:1028A00005980499FDF7BEFD039103980699C98820
:1028B000FDF7B8FD0290069800680299890040581B
:1028C00001900898019900F015FA069808214056E1
:1028D000401C002817D0FFE70598049A06990823A2
:1028E000C956514388420ED3FFE7089900208874E7
:1028F000089801F002F808980B2100F028F90899CF
:1029000001200874FFE709A900200870FFE709A863
:1029100000780AB080BD80B586B004900391049819
:10292000002805D0FFE704984068002804D1FFE79D
:1029300005A9042008704CE00498406802900498AF
:10294000807CC007002804D1FFE705A9002008709B
:102950003FE00498C068002808D1FFE70398049975
:10296000C8600298807904994874FFE70398049935
:10297000C968401A0190019802998988884212D347
:10298000FFE703980499C8600498029906228956C3
:10299000002200F0B1FC0B2804D1FFE704990120CC
:1029A0000874FFE711E00198029989884908884274
:1029B00004D3FFE7049800F0A0FF05E00498029913
:1029C000096800F097F9FFE7FFE705A90020087004
:1029D000FFE705A8007806B080BDD0B502AF90B083
:1029E0006E46F21D0932B2600246B06882624162F0
:1029F000806A002806D0FFE7B068806A4068002837
:102A000005D1FFE7F11D35310420087098E0B0686A
:102A1000806A807CC007002805D1FFE7F11D3531B1
:102A2000002008708CE0B068816A49680162806AA1
:102A3000C068002809D1FFE7B168486A8A6AD06097
:102A4000086A007A896A4874FFE7B168486A8A6A46
:102A5000D268801AC8610A6A9088D2888018886112
:102A6000C8698969FDF7DEFCB0684161806A006869
:102A7000007B00F075FBB168086108696A46CA60AE
:102A80004200D31D072293436A46D21A72609546CC
:102A9000886000204860FFE7B1684868096988429B
:102AA0001ED2FFE7B068016A09684268895C806AE3
:102AB0000068C0894843FF21FDF7B4FCB26810608C
:102AC0005069116A1268FFF7C9FDB26871685268EF
:102AD00052008852FFE7B1684868401C4860DBE755
:102AE000B0687168806A00F040F9B168C8698969A6
:102AF00088421DD3FFE7B168486A8A6AD060086AD5
:102B0000427A012318469043F21D05321070886AFC
:102B1000096A0824095712781A4000F0EDFB0B28C7
:102B200005D1FFE7B068816A01200874FFE7FFE77D
:102B3000B068F21D353200211170C0688546FFE78C
:102B4000F01D35300078FC1F013CA546D0BD80B596
:102B500082B001906846017001988068002808D012
:102B6000FFE7019A9368107C694609785268984794
:102B7000FFE702B080BD10B592B010900F91109891
:102B8000002805D0FFE710984068002804D1FFE72F
:102B900011A904200870A9E01098807CC0070028C3
:102BA00004D1FFE711A9002008709FE01098406849
:102BB0000E901098C068002808D1FFE70F98109970
:102BC000C8600E98807A10994874FFE70F981099A2
:102BD000C968401A0D900E99C888098940180C9050
:102BE000109811214056401C002806D0FFE710988D
:102BF00011214056022806DBFFE70C990E988088C9
:102C00004843029007E00C9A0E9988885043C9887F
:102C1000401A0290FFE702980B900D980C99FDF76F
:102C200001FC0A910D980C99FDF7FCFB0E9989881F
:102C3000FDF7F8FB09910998401C0E998988FDF76A
:102C4000F1FB08910E980068099989004058079097
:102C50000E98006808998900405806900A980E99C5
:102C60000989884210D2FFE71098079900F042F8CE
:102C7000014605A801700078002804D0FFE70598F8
:102C800011A9087032E00EE00A980E990989401ADD
:102C90000490109804990E9AD288079B069C009481
:102CA00000F0D2FBFFE70D980B9988421AD3FFE79B
:102CB0000F981099C8600E98C17A0123184688436E
:102CC00003AA107010980E990A24095712781A4016
:102CD00000F012FB0B2804D1FFE7109901200874C3
:102CE000FFE7FFE711A900200870FFE711A80078AF
:102CF00012B010BD80B586B00490039104980028EE
:102D000004D0FFE70398002804D1FFE705A90420B9
:102D1000087026E0049800680068804702A90091C6
:102D20000020087004980068007B00F019FA0190F8
:102D300004980399019A03F09FFA014600980170E4
:102D40000078002809D0FFE7049802A90978FFF766
:102D5000FEFE049901200874FFE7029805A9087097
:102D6000FFE705A8007806B080BD80B586B0049066
:102D700003910498002804D0FFE70398002804D1A9
:102D8000FFE705A90420087026E002A900910020B1
:102D90000870049800680068804704980068007B09
:102DA00000F0DEF9019004980399019A03F0CCFA3F
:102DB0000146009801700078002809D0FFE70498C8
:102DC00002A90978FFF7C3FE049901200874FFE700
:102DD000029805A90870FFE705A8007806B080BD35
:102DE000D0B502AF8CB06E46F21D01327260024661
:102DF00070680262C161006A002806D0FFE770684F
:102E0000006A4068002805D1FFE7F11D2531042044
:102E1000087087E07068006A807CC007002805D1D0
:102E2000FFE7F11D2531002008707BE07068016A22
:102E300049688161006AC068002809D1FFE77168AC
:102E4000C8690A6AD06088698079096A4874FFE7AE
:102E50007068C169026AD268891A4161006A0068B3
:102E6000007B00F07DF97168086108696A46CA60F4
:102E70004200D31D072293436A46D21A3260954618
:102E8000886000204860FFE77168486809698842E7
:102E900020D2FFE77068816909684268895C006A2E
:102EA0000068C0894843FF21FDF7BCFA72681060D2
:102EB00050699169898812680123FFF701FC7268E3
:102EC0003168526852008852FFE771684868401CB8
:102ED0004860D9E770683168006AFFF746FF71689B
:102EE000486989698988884214D3FFE77168C8698D
:102EF0000A6AD060086A896906228956002200F0B1
:102F0000FBF90B2805D1FFE77068016A01200874FE
:102F1000FFE7FFE77068F21D253200211170C068DD
:102F20008546FFE7F01D25300078FC1F013CA546D3
:102F3000D0BDD0B502AF8CB06E46F21D01327260CA
:102F4000024670680262C161006A002806D0FFE78D
:102F50007068006A4068002805D1FFE7F11D25313F
:102F60000420087087E07068006A807CC007002831
:102F700005D1FFE7F11D2531002008707BE0706866
:102F8000016A49688161006AC068002809D1FFE7C9
:102F90007168C8690A6AD06088698079096A48746A
:102FA000FFE77068C169026AD268891A4161006AE4
:102FB0000068007B00F0D4F87168086108696A460F
:102FC000CA604200D31D072293436A46D21A326078
:102FD0009546886000204860FFE771684868096985
:102FE000884220D2FFE77068816909684268895C7D
:102FF000006A0068C0894843FF21FDF713FA726830
:10300000106050699169898812680023FFF758FBA6
:1030100072683168526852008852FFE771684868E8
:10302000401C4860D9E770683168006AFFF79DFE70
:103030007168486989698988884214D3FFE7716893
:10304000C8690A6AD060086A89690622895601221D
:1030500000F052F90B2805D1FFE77068016A0120E2
:103060000874FFE7FFE77068F21D25320021117038
:10307000C0688546FFE7F01D25300078FC1F013C45
:10308000A546D0BD80B586B0049003910498002871
:1030900005D0FFE704984068002804D1FFE705A9A0
:1030A0000420087057E00498406802900498807CDF
:1030B000C007002804D1FFE705A9002008704AE0F6
:1030C0000498C068002808D1FFE703980499C860F5
:1030D0000298007A04994874FFE703980499C96834
:1030E000401A019002998888C9884018694608806A
:1030F000019802998988884206D2FFE704980299CC
:103100000968FFF7F7FD0AE00198694609888842D7
:1031100004D2FFE7049800F0F0FBFFE7FFE7019817
:1031200069460988884212D3FFE703980499C8606A
:103130000498029908228956002200F0DDF80B2835
:1031400004D1FFE7049901200874FFE7FFE705A910
:1031500000200870FFE705A8007806B080BD0000D9
:1031600083B0014601A8017000780090062828D895
:103170000098810001A040588746C046C131000830
:1031800099310008A1310008A9310008B1310008C7
:10319000B9310008C131000802A90320087014E009
:1031A00002A90320087010E002A9042008700CE0B6
:1031B00002A90120087008E002A90220087004E0BA
:1031C000FFE702A900200870FFE702A8007803B01B
:1031D000704780B584B002900191684602700298F1
:1031E000002804D0FFE70198002804D1FFE703A9D5
:1031F000042008700AE00198029913316A46127897
:10320000FDF7AEF803A900200870FFE703A80078D7
:1032100004B080BD10B58CB00A9009A80170089266
:1032200007A803700A98002809D0FFE7089800282B
:1032300005D0FFE707A80078002804D1FFE70BA915
:103240000420087054E009A80078009002280AD0F1
:10325000FFE70098C01E07280BD3FFE700980A3845
:1032600002281FD33CE0089807A90978FDF7D5F894
:103270003AE00A98069006980068059000200490AD
:10328000FFE7049807A9097888420AD2FFE7059862
:10329000049A805C08998854FFE70498401C0490C5
:1032A000EFE721E00A980390039800680068029015
:1032B00001A900200880FFE701A8008807A9097874
:1032C00088420CDAFFE7029801A90A88805C089915
:1032D0008854FFE70198401C01A90880ECE703E04F
:1032E0000BA90520087003E00BA900200870FFE778
:1032F0000BA800780CB010BD80B584B0029001918D
:10330000684602700198401C002807D0FFE7029928
:10331000487C401E4874FFE7FFE7FFE70298112151
:103320004056002815D1FFE70299002088740298C2
:103330000B21FFF70CFC68460078C007002804D07A
:10334000FFE7029800F0D9FAFFE703A90B20087005
:1033500003E003A900200870FFE703A8007804B089
:1033600080BD80B586B00490039102920498002835
:1033700004D1FFE705A90420087023E00398FFF7B4
:1033800027FA014601A801700078002804D0FFE761
:10339000019805A9087015E003980499086004993C
:1033A00001200874049900204860049988740499E5
:1033B000C860029804998860FFE7FFE705A900202C
:1033C0000870FFE705A8007806B080BD81B00090C6
:1033D00000990020887401B0704780B584B00290D5
:1033E0000298002804D1FFE703A90420087027E011
:1033F0000298807CC007002804D1FFE703A90020C1
:1034000008701DE002980B21FFF7A1FB029801460E
:10341000133101910068007BFFF7A2FE014601987D
:10342000FCF7FBFF029801461331FFF763FC02999A
:1034300000208874029A0121117403A90870FFE723
:1034400003A8007804B080BDF0B503AF91B06E461C
:10345000F41D0D34346104463069BD68C462816274
:1034600042620362C06A0068007BFFF779FE31693F
:10347000F21D29321070886A496AFCF7D3FF0846AA
:10348000316988618A697D20C0005043496AFCF730
:10349000C9FF01463069416140693049884205D31E
:1034A000FFE731697D20C0004861FFE7306940696E
:1034B000FDF774F92A49FDF76FF80146306901619B
:1034C0000169084603F012FE3169C860F01D293019
:1034D00000786A468A60C31D072293436A46D21A5F
:1034E000F26095464860F11D0D3100200870FFE73D
:1034F000F01D0D300078F11D29310978884221DA5C
:10350000FFE73069006AF11D0D310A787260815C55
:10351000B160B868805C401AFDF738F93169C96854
:1035200003F0E4FDFDF7E8F87268F1680346B0685F
:10353000C0188854FFE730690068401CF11D0D3148
:103540000870D5E73069F168C06AFFF7D3FB3069CE
:1035500080688546FC1F053CA546F0BDE9030000D8
:1035600000007A44D0B502AF92B06E46F21D01322F
:1035700072600246706882634163806B002806D0E7
:10358000FFE77068806B4068002805D1FFE7F11DF8
:103590003D31042008709EE07068806B807CC0071D
:1035A000002805D1FFE7F11D3D310020087092E0B1
:1035B0007068816B49680163806BC068002809D11D
:1035C000FFE77168486B8A6BD060086B007B896B82
:1035D0004874FFE77168086B8088C862086BC08810
:1035E0008862086B00894862086B40890862486BF2
:1035F0008A6BD268801AC861C86A8A6A80180A6AA7
:1036000080184A6A80188861C8698969FCF70AFFCE
:1036100070684161806B0068007BFFF7A1FD7168F5
:10362000086108696A46CA604200D31D07229343B5
:103630006A46D21A32609546886000204860FFE7EB
:1036400071684868096988421ED2FFE77068016B9B
:1036500009684268895C806B0068C0894843FF2123
:10366000FCF7E0FE726810605069116B1268FFF79A
:1036700052F872683168526852008852FFE77168E8
:103680004868401C4860DBE770683168806BFFF772
:103690006CFB7168C8698969884214D3FFE7716857
:1036A000486B8A6BD060886B096B0C2289560022AC
:1036B000FFF722FE0B2805D1FFE77068816B012020
:1036C0000874FFE7FFE77068F21D3D3200211170BA
:1036D000C0688546FFE7F01D3D300078FC1F013CC7
:1036E000A546D0BD84B00290019168460270029850
:1036F000002804D1FFE703A9042008700EE0009819
:10370000029908740198029948600299002088740F
:10371000FFE7FFE703A900200870FFE703A8007890
:1037200004B0704786B0024604A802700391007886
:10373000801E0090092833D80098810001A04058CD
:103740008746C046993700086D3700086D37000876
:103750006D37000887370008993700089937000847
:103760006D3700086D3700087537000805A901207E
:10377000087019E0039802900298C07A012108406D
:1037800005A9087010E0039801900198407A012182
:10379000084005A9087007E005A90020087003E0AB
:1037A00005A900200870FFE705A8007806B070475B
:1037B00080B586B0049003910498002805D0FFE7F7
:1037C00004984068002804D1FFE705A90420087088
:1037D00047E00498406802900498807CC007002865
:1037E00004D1FFE705A9002008703AE00498C068FA
:1037F000002814D1FFE703980499C860049802993F
:103800000968FFF777FA014601A8017000780028DF
:1038100004D0FFE7019805A9087022E0FFE70398AC
:103820000499C968401A009002984068002814D092
:10383000FFE700980299496888420ED3FFE7049990
:1038400000208874049800F058F804980B21FFF7C2
:103850007EF9049901200874FFE705A9002008708B
:10386000FFE705A8007806B080BD80B582B0019062
:103870006946002008700198002804D1FFE76946D6
:1038800004200870FFE70199012088740199002045
:10389000C86001980A21FFF75AF9FFE7FFE7684679
:1038A000007802B080BD80B584B0039002A801709A
:1038B00001A9002008700398002804D1FFE701A99E
:1038C00004200870FFE703980E21FFF740F902A8D3
:1038D0000078C007002804D1FFE7039800F00DF836
:1038E000FFE7039900208874039901200874FFE71B
:1038F000FFE701A8007804B080BD80B584B00290D5
:103900000298002804D1FFE703A90420087017E0FB
:10391000029800684068804702980146133101917F
:103920000068007BFFF71CFC01460198FCF775FD61
:10393000029801461331FFF7DDF903A90870FFE78C
:1039400003A8007804B080BD80B588B006900591CA
:1039500004A900200870544800680599884204D1E1
:10396000FFE707A90020087099E00698002804D115
:10397000FFE707A90420087091E00698017C002069
:10398000012903900DDBFFE70698017C012000224E
:1039900001920C29029001DB019802900298039099
:1039A000FFE70398C007002804D1FFE707A9052017
:1039B000087074E00698007C401E00900A2866D8C3
:1039C0000098810001A040588746C046F939000898
:1039D000053A0008113A00082D3A00081F3A00087D
:1039E0003B3A0008653A0008493A0008573A00088F
:1039F000733A0008813A00080698FFF7E7FC04A92B
:103A0000087045E00698FFF7E8FC04A908703FE05D
:103A100006980599FFF7CCFE04A9087038E00698CF
:103A20000599FFF72FFB04A9087031E00698059966
:103A3000FEF771FF04A908702AE006980599FEF7C1
:103A4000CCFF04A9087023E006980599FFF7C8F990
:103A500004A908701CE006980599FFF76AFA04A902
:103A6000087015E006980599FFF77CFD04A9087019
:103A70000EE006980599FEF7DEFE04A9087007E03F
:103A800006980599FFF777F804A9087000E0FFE7AA
:103A9000059805490860049807A90870FFE707A87A
:103AA000007808B080BDC0469C01002080B592B06F
:103AB00011AB187010A801700F9200780A380E90A0
:103AC000042800D9E3E00E98810001A04058874601
:103AD000E53A00083B3B0008093C0008693C000847
:103AE000E33B0008FFE77A4803687A480D90844A70
:103AF00001210902FCF7F2FB0D98FCF70FFC0146CF
:103B00000D9803F073F8FFE70F987549884213D1B9
:103B1000FFE7FFE76E4803686E480C90794A012181
:103B20000902FCF7DBFB0C98FCF7F8FB01460C984C
:103B300003F05CF8FFE7FFE7C7E0FFE764480368CE
:103B400064480B90694A01210902FCF7C7FB0B98F6
:103B5000FCF7E4FB01460B9803F048F8FFE76448E4
:103B60000078C00700283BD0FFE7614900200870BB
:103B7000FFE75748006809905E4800F053FB099B37
:103B8000009054480A905C4A01210902FCF7A6FB08
:103B90000A98FCF7C3FB01460A9803F027F8FFE7F1
:103BA000FFE74B48036853484268D07C117D527D43
:103BB00002920191009047480890504A0121090261
:103BC000FCF78CFB0898FCF7A9FB0146089803F06A
:103BD0000DF8FFE7012081026F48FEF706FDFFE7C1
:103BE00073E0FFE73A4803683A4807903E4A0121EC
:103BF0000902FCF773FB0798FCF790FB0146079856
:103C000002F0F4FFFFE760E0FFE731480368314866
:103C10000690324A01210902FCF760FB0698FCF786
:103C20007DFB0146069802F0E1FFFFE70F982C4963
:103C3000884213D1FFE7FFE7254803682548059030
:103C4000284A01210902FCF749FB0598FCF766FBAD
:103C50000146059802F0CAFFFFE7FFE70120810255
:103C60004D48FEF7CBFC30E0FFE7194803681948E0
:103C70000490194A01210902FCF730FB0498FCF773
:103C80004DFB0146049802F0B1FFFFE71DE010A8CC
:103C90000078012818DBFFE710A80078092813DC5A
:103CA000FFE7FFE70A4803680A480390164A012124
:103CB0000902FCF713FB0398FCF730FB014603985D
:103CC00002F094FFFFE7FFE7FFE712B080BDC046B8
:103CD000D400002018030020F4780008457900087B
:103CE00068730008327C0008AE780008D0780008BD
:103CF000FD0100207C010020687B0008457B000856
:103D000023790008FD7B0008BB7A000880B586B0E7
:103D100001200290820205A904910A801022CA7033
:103D200088701D480390FEF7B1FB02990398049B2D
:103D300099701822DA7002F0AFF903980D2106226B
:103D40000192FEF72BFC029A0398049952030A8011
:103D5000FEF79CFB0299039802F09EF9019A0398E2
:103D60000E21FEF71BFC029A0398049992030A8025
:103D7000FEF78CFB0299039802F08EF9019A0398E2
:103D80000F21FEF70BFC029A03980499D2030A80D4
:103D9000FEF77CFB06B080BD0008004880B582B00D
:103DA0000190019802F0CCFD0199702008700199F2
:103DB00001204870019A00219170019A1172019AB4
:103DC0005172019A5181019A9181019A5160019930
:103DD0008007009002F0E2FC0098019902F028FDB3
:103DE0000098019902F068FD02B080BD80B58AB0EC
:103DF00007A8019002F058FE01210291084602F046
:103E00001BF9019902982F220A80504A0892002239
:103E10000A818A708A72800702F0E4FD03A8FFF726
:103E2000BDFF0AB080BDC04680B582B001210191BE
:103E30008807009002F084FC0098019A002102F0AB
:103E400069FC0098019A042102F064FC0098019A30
:103E5000082102F05FFC0098019902F087FC02B093
:103E600080BD80B582B00020019000F037F8019845
:103E700000F018F8019800F04DF801990120800732
:103E8000009002F05DFC0098019902F06FFC02B016
:103E900080BD80B5FFF7AAFFFFF738FFFFF7E1FF0E
:103EA00080BD000080B582B0014601A80180008875
:103EB000C0087D2803D3FFE72448009003E001A851
:103EC00000880090FFE7009901A801800188012087
:103ED000800702F05EFD02B080BDC04680B582B0B2
:103EE000014601A801800088C0087D2803D3FFE7B0
:103EF0001648009003E001A800880090FFE70099B1
:103F000001A8018001880120800702F02EFD02B087
:103F100080BDC04680B582B0014601A801800088FE
:103F2000C0087D2803D3FFE70848009003E001A8FC
:103F300000880090FFE7009901A801800188012016
:103F4000800702F03AFD02B080BDC046E7030000E2
:103F500080B582B001906846017001984068806821
:103F6000002809D0FFE7019A50688368007C694601
:103F7000097892689847FFE702B080BDB0B586B077
:103F800004460A980494039102A90A7001A90B70CF
:103F9000694608800498002804D1FFE705A9042099
:103FA000087036E00498406840680399884213D14D
:103FB000FFE704984068007C02A9097888420BD189
:103FC000FFE704984068807CC007002804D0FFE722
:103FD00005A9002008701CE00498407D012814D138
:103FE000FFE703980499886002980499C8740198BF
:103FF000049908750098049908820498022100F039
:1040000074F905A90020087003E005A909200870CB
:10401000FFE705A8007806B0B0BD80B586B0029273
:10402000024602980592049103AA1070059804991B
:10403000127800230093FFF7A1FF06B080BD80B582
:1040400084B0029000200190FFE701980299897CDA
:1040500088422CD2FFE702980068019A0C21514354
:1040600040180090009800680299496849688842A1
:1040700018D1FFE70098406802998968884211D1F9
:10408000FFE70098007A029908750099087A498933
:1040900000F03EF902990882FFE7FFE703A901203B
:1040A000087008E0FFE70198401C0190CDE703A9E4
:1040B00000200870FFE703A8007804B080BD82B03C
:1040C00000900098C07C012816DBFFE70098C07CB8
:1040D0000B2811DCFFE70098007D01280BDBFFE7D0
:1040E0000098007D042806DCFFE7FFE7FFE701A951
:1040F0000120087004E0FFE701A900200870FFE735
:1041000001A8007802B0704780B586B00590059888
:1041100040680068007BFFF723F80490FFE7FFE7A3
:1041200005994868163104AA00921278FFF751F8F1
:10413000009B059A9068D17C1A321B78FFF76AF8C9
:104140000599C87C8968FFF7EDFA014603A801705C
:104150000078C007002819D1FFE7FFE7FFE702A9B1
:1041600000200870FFE702A80078049988420CD26A
:10417000FFE7059802A90978411800208876FFE733
:104180000298401C02A90870EDE7FFE701A9002092
:104190000870FFE701A800780499884208D2FFE779
:1041A000FFE7FFE7FFE70198401C01A90870F1E76E
:1041B0000598406800680068804706B080BD83B0FD
:1041C000019000910198002804D0FFE70098002892
:1041D00004D1FFE702A90420087016E0019900202D
:1041E0000860019988740099019A5160019A01212F
:1041F0005175019988600199C87401990875FFE7A4
:10420000FFE702A900200870FFE702A8007803B0CA
:10421000704781B000900098407D401E411E88414B
:1042200001B07047D0B502AF88B06E46F11D0931BC
:10423000F1600146F068C160C06840680068007BBA
:10424000FEF78EFF0146F068F21D113272601170A8
:10425000137869464160DC1D07218C436946091BC0
:10426000B1608D460360C06840681278FEF7B1FF08
:104270007168B06809780022FDF79FFDF168496810
:104280008D46FC1F013CA546D0BD81B00090FFE7E4
:10429000FFE70099022008750099C820088201B044
:1042A000704784B00290019100920298002808D0D3
:1042B000FFE70198002804D0FFE70098002804D108
:1042C000FFE703A9042008700BE001980299086039
:1042D000009802998874FFE7FFE703A9002008709F
:1042E000FFE703A8007804B0704782B001906846E9
:1042F00001700078012809DBFFE768460078042890
:1043000004DCFFE7009801994875FFE702B07047A9
:1043100087B0024605A8027004AA11800078401EEA
:104320000390032841D80398810001A04058874694
:1043300041430008494300086943000889430008D5
:1043400006A90020088034E004A80088002803D1D2
:10435000FFE7C820029003E004A800880290FFE76E
:10436000029806A9088024E004A80088002803D148
:10437000FFE71248019003E004A800880190FFE7DE
:10438000019806A9088014E004A80088002804D138
:10439000FFE77D200001009003E004A80088009062
:1043A000FFE7009806A9088003E006A9002008801E
:1043B000FFE706A8008807B07047C04688130000D2
:1043C00080B582B0019001980D21FFF7C1FD019ADF
:1043D00050689168D27CFFF785F901984068FFF733
:1043E00044FA01990020009088600199C8740199ED
:1043F000087501980121FFF778FF009802B080BD91
:1044000081B00090002001B070470000D0B502AF2D
:104410008AB06E46F21D0932B2600246B06842614F
:10442000016101694269D268891AC1604069007DF1
:10443000401EF060032800D997E0F068810001A0D9
:10444000405887465544000865440008A1440008C8
:10445000E3440008FFE7FFE7B06840690421FFF785
:1044600044FF85E0B168C8684969098A884208D371
:10447000FFE7FFE7FFE7B06840690421FFF735FF7A
:104480000DE0B1684C696068C968228A234616331A
:104490001A3482B00094FEF7D7FF02B0FFE767E05E
:1044A000B168C8684969098A884208D9FFE7FFE707
:1044B000FFE7B06840690421FFF717FF10E0B0681C
:1044C00040694068807CC007002808D1FFE7FFE70B
:1044D000FFE7B06840690421FFF707FFFFE7FFE748
:1044E00046E0B068406940680068007BFEF738FE2F
:1044F0000146B068F21D11323260117013786946BE
:104500004160DC1D07218C436946091B71608D46A3
:104510000360406940681278FEF75BFE316870689E
:1045200009780022FDF749FC002809D0FFE7FFE7E2
:10453000FFE7FFE7B06840690421FFF7D6FE10E00F
:10454000B168C8684969098A884209D9FFE7FFE765
:10455000FFE7FFE7B06840690421FFF7C6FEFFE709
:10456000FFE7B0684068854602E0FFE7FFE7FFE746
:104570000020FC1F013CA546D0BD80B584B003904F
:1045800002910398FFF79BFD014601A80170007896
:10459000C007002810D1FFE70398FFF750FD014640
:1045A000684601700078C007002804D1FFE703982F
:1045B000FFF76BFEFFE7FFE70398007D022804D1B9
:1045C000FFE70398FFF7A0FDFFE702980399C86093
:1045D00003980C21FFF7BCFC03980321FFF785FE2D
:1045E000002004B080BD80B584B002900298407D68
:1045F000012804D1FFE703A9012008700DE002980B
:10460000406801210191FFF74EF901990298FFF7E7
:104610006CFE019803A90870FFE703A8007804B0B6
:1046200080BD10B586B001930346019805930491AF
:1046300003AB1A7002AA1080059804991B7812889F
:1046400000920522FFF79AFC06B010BD80B586B037
:10465000029202460298059204AA117003A90880EA
:10466000059813780988009100210222FFF786FC43
:1046700006B080BD10B586B001930346019805933E
:10468000049103AB1A7002AA1080059804991B7854
:10469000128800920322FFF771FC06B010BD0000E3
:1046A00080B584B0029001910298002804D1FFE700
:1046B00003A90420087035E00298407D401E009058
:1046C00003281FD80098810001A040588746C046A3
:1046D000E1460008E9460008F3460008FD460008E8
:1046E0000298FFF78DFE0EE002980199FFF745FF53
:1046F00009E002980199FFF789FE04E00298FFF7AC
:104700005FFE00E0FFE70298007D022806D0FFE789
:10471000029840680199FFF717F9FFE703A9002005
:104720000870FFE703A8007804B080BD7047000060
:10473000154800787047C0460E4800787047C0465C
:1047400002480078012108407047C046D800002088
:1047500002480078012108407047C046DA00002076
:1047600010480078012108407047C04601490020E8
:10477000087070471804002081B0694608700098DE
:104780000149087001B07047D900002081B001468E
:10479000684601700078012108400249087001B0A4
:1047A0007047C0460902002081B06946087001B018
:1047B000704701207047704738490888202210430D
:1047C00008807047354908880122104308807047E7
:1047D0003249088840221043088070472F490888D2
:1047E00002221043088070472C4908888022104319
:1047F00008807047294908880422104308807047C0
:104800002649088801221202104308807047C046DA
:104810002249088808221043088070471F490888E9
:1048200001225202104308807047C0461B49088885
:10483000102210430880704780B582B0FFF77CFFDC
:104840006946087012480078C007002806D0FFE7C4
:1048500000980121084369460870FFE76846007820
:1048600000F01EF80146B848417411214056401C22
:10487000002804D0FFE701A90120087003E001A986
:1048800000200870FFE701A8007802B080BDC04694
:10489000750100200149002008807047FE010020BA
:1048A00084B0014602A8017001AA002111700078AD
:1048B000002804D1FFE703A9FF20087023E0694620
:1048C00001200870FFE768460078802816DCFFE7C3
:1048D00002A8007869460978084204D0FFE70198E9
:1048E00003A908700FE00198401C01A90870FFE7B8
:1048F000FFE70098400069460870E4E7FFE703A976
:10490000FF200870FFE7002103A8405604B070475D
:1049100080B58CB08C49002008748C480490FDF759
:10492000D3FA04983949FDF7DBFA04983849FDF7C2
:10493000CFFA87480590FDF7C7FA05983549FDF786
:10494000CFFA05983449FDF7C3FA82480690FDF77F
:10495000BBFA06983149FDF7C3FA06983049FDF7CE
:10496000B7FA7D480790FDF7AFFA07982D49FDF794
:10497000B7FA07982C49FDF7ABFA78480890FDF78D
:10498000A3FA08982949FDF7ABFA08982849FDF7DA
:104990009FFA2848FDF752FDFFE72748036827489C
:1049A0000390274A01210902FBF798FC0398FBF7C3
:1049B000B5FC0146039802F019F9FFE72148019080
:1049C0002149224AFEF7CDFC019921480290FFF7C8
:1049D000F6FB02981F490322FFF763FC7148FDF7BD
:1049E000FAFBFDF7E9FC09AA0020107056490B7884
:1049F0005370194B0A9310720B9888600A9848609C
:104A000009980860012008740CB080BDC5470008F3
:104A1000B9470008DD470008D1470008F5470008FE
:104A2000E947000811480008014800082D4800081F
:104A30001D480008B8000020D40000201803002002
:104A400070760008A001002020730008AD3A00082D
:104A50007C010020FC7200088813000070470000F1
:104A600080B588B007A90020087006A9087005A9BC
:104A7000087004A9087003A908703348807C401EA0
:104A800002900F2838D80298810001A0405887462C
:104A9000D14A0008D94A0008F94A0008E14A00084A
:104AA000F94A0008F94A0008F94A0008E94A0008EA
:104AB000F94A0008F94A0008F94A0008F94A0008CA
:104AC000F94A0008F94A0008F94A0008F14A0008C2
:104AD00007A90120087010E006A9012008700CE069
:104AE00005A90120087008E004A90120087004E06D
:104AF00003A90120087000E0FFE707A80178012062
:104B0000019001401148FDF7F3F9019806A90978D1
:104B100001400F48FDF7ECF9019805A9097801401B
:104B20000C48FDF7E5F9019804A9097801400A4805
:104B3000FDF7DEF9019803A9097801400748FDF760
:104B4000D7F908B080BDC046D8010020040000207D
:104B5000280000204C00002070000020940000205D
:104B600080B582B00F4801A90091FDF73BFB009989
:104B70000D4800780978884211D0FFE701A8007835
:104B8000012805D1FFE701A84088FDF716FC02E0E7
:104B9000FDF712FCFFE7019803490870FFE702B038
:104BA00080BDC0465A0100207201002080B594B03B
:104BB000FFF7C6FD002800D17CE2FFF7D1FD0028F9
:104BC00000D18EE1FD4901200870FD490870FD48C3
:104BD00000781390002809D0FFE71398012872D0BD
:104BE000FFE71398022800D1BDE078E1F64800788D
:104BF000C007002832D0FFE7F24902200870F349CD
:104C0000F3480880FFE7F3480368F3481290F34A3B
:104C100001210902FBF762FB1298FBF77FFB0146BB
:104C2000129801F0E3FFFFE7FFE7EA480368EA486C
:104C30001190EB4A01210902FBF750FB1198FBF799
:104C40006DFB0146119801F0D1FFFFE7E548E64909
:104C50004B2293000222FFF70DFD33E0D748007886
:104C6000C00700282DD0FFE7D64901200870FFE7D4
:104C7000D8480368D8481090DC4A01210902FBF7A4
:104C80002DFB1098FBF74AFB0146109801F0AEFF90
:104C9000FFE7FFE7CF480368CF480F90D44A0121D0
:104CA0000902FBF71BFB0F98FBF738FB01460F9837
:104CB00001F09CFFFFE7CF48407F012101F064F83D
:104CC000FFE7FFE70CE1CB48407F002101F05CF8F3
:104CD000BD480078C007002832D0FFE7FA4902201B
:104CE0000870BA49BA480880FFE7FC480368FC48E6
:104CF0000E90C14A01210902FBF7F0FA0E98FBF76A
:104D00000DFB01460E9801F071FFFFE7FFE7F34846
:104D10000368F3480D90B94A01210902FBF7DEFA56
:104D20000D98FBF7FBFA01460D9801F05FFFFFE7D6
:104D3000E848FC494B2293000222FFF79BFC11E05C
:104D4000E2480078C007002801D0FFE709E0DE490B
:104D500000200870DF484B218A000221FFF776FC13
:104D6000FFE7FFE7BCE0E8480078C007002800D173
:104D700098E0FC480078022813D1FFE7FFE7D74806
:104D80000368D7480C90E64A01210902FBF7A6FA0E
:104D90000C98FBF7C3FA01460C9801F027FFFFE7D8
:104DA0007FE0CB480078C00700284ED0FFE7CF480F
:104DB0000078C00700281FD1FFE7FFE7C748036856
:104DC000C7480B90D44A01210902FBF787FA0B98D8
:104DD000FBF7A4FA01460B9801F008FFFFE7E14852
:104DE000407F01210A9101F02BF80A98C14AC2497B
:104DF0001180BE490870FFE7BE480088012805DB26
:104E0000FFE7BC490888401E08801DE0FFE7B34863
:104E10000368B3480990C14A01210902FBF75EFA11
:104E20000998FBF77BFA0146099801F0DFFEFFE7DE
:104E3000A8484B218A000221FFF708FCA449002062
:104E40000870B3490880FFE72AE0B14800880128CC
:104E500005DBFFE7AE490888401E08801FE0FFE73A
:104E60009E4803689E480890AA4A01210902FBF760
:104E700035FA0898FBF752FA0146089801F0B6FE99
:104E8000FFE79448FFF7CEF9002807D1FFE79148E4
:104E90004B218A000221FFF7D9FBFFE7FFE7FFE77D
:104EA000FFE71BE0FFE78D4803688D480790974AAE
:104EB00001210902FBF712FA0798FBF72FFA0146C6
:104EC000079801F093FEFFE7E848407F0121069133
:104ED00000F05AFF06987C490870FFE700E0FFE702
:104EE000E7E0794900200870784908707848007830
:104EF000C007002800D1A1E07C480078C007002846
:104F00001FD1FFE7FFE77548036875480590784AA9
:104F100001210902FBF7E2F90598FBF7FFF90146C9
:104F2000059801F063FEFFE7D048407F012104911E
:104F300000F086FF04986F4A6F4911806B49087032
:104F4000FFE76C480088012805DBFFE7694908880E
:104F5000401E088071E0C5480078022850D1FFE764
:104F6000FFE75E4803685E480390654A0121090235
:104F7000FBF7B4F90398FBF7D1F90146039801F068
:104F800035FEFFE7FFE755480368554802905D4A44
:104F900001210902FBF7A2F90298FBF7BFF90146CC
:104FA000029801F023FEFFE74A484B218A000221C4
:104FB000FFF74CFB4C49012008703AE058010020F3
:104FC000CD00002073010020740100205601002054
:104FD000B80B0000D400002018030020A3760008BE
:104FE000847400087C01002078730008537A00085C
:104FF0004B750008D8010020E8760008C17400084D
:10500000FFE736480368364801903C4A012109020F
:10501000FBF764F90198FBF781F90146019801F06B
:10502000E5FDFFE72B484B218A000221FFF70EFB2D
:10503000FFE7274900200870FFE739E08B48007838
:10504000022826D1FFE724480078C00700281FD097
:10505000FFE7FFE72148036821480090214A01212A
:105060000902FBF73BF90098FBF758F90146009855
:1050700001F0BCFDFFE717484B218A000221FFF732
:10508000E5FA194901200870134900200870FFE76C
:105090000DE01048FFF7C6F8002807D1FFE70D48DC
:1050A0004B218A000221FFF7D1FAFFE7FFE7FFE774
:1050B000FFE707E06D480078022801D1FFE700E034
:1050C000FFE7FFE714B080BD730100205801002006
:1050D000F80100207C010020CD000020D400002039
:1050E00018030020DF7D0008FD010020F9010020E9
:1050F000C9750008FA010020B80B000058780008B4
:105100007E7B0008377E00087401002002750008CD
:1051100056010020C7770008817500080F78000845
:10512000297D00087873000880B55048007CC007CE
:10513000002801D1FFE714E000F060FF00F09EF8C6
:10514000FFF734FDFFF70CFD00F000FE4748406814
:10515000002805D0FFE745494868401E4860FFE742
:10516000FFE780BDD801002084B003A908703F4844
:10517000407D0290002804D0FFE70298012819D052
:105180006EE003A800780190032811D801988100EF
:1051900001A040588746C046A9510008AB510008FD
:1051A000AD510008AF51000803E002E001E000E06B
:1051B000FFE756E02E480088012805DBFFE72C4971
:1051C0000888401E088012E02A4802780121914395
:1051D00001700078C007002804D0FFE72449264862
:1051E000088003E02249FA200880FFE7FFE703A8D0
:1051F00000780090032831D80098810001A0405821
:105200008746C04615520008275200083952000848
:105210004B52000817480078C007002801D0FFE76C
:1052200000E0FFE71BE013480078C007002801D02A
:10523000FFE700E0FFE712E00E480078C007002813
:1052400001D0FFE700E0FFE709E00A480078C00767
:10525000002801D0FFE700E0FFE700E0FFE700E003
:10526000FFE703980149087704B07047D801002090
:105270007601002078010020EE02000080B5C0B069
:1052800000F08AFE3FA90880FFF762FA002849D0A3
:10529000FFE7FFF74DFA0146304801700021405604
:1052A000642816D1FFE7FFE72D4803682D481B90BF
:1052B0002D4A01210902FBF711F81B98FBF72EF884
:1052C00001461B9801F092FCFFE728490120087075
:1052D00003E0264900200870FFE700211F484056E0
:1052E000002816D1FFE7FFE71D4803681D481A9004
:1052F0001F4A01210902FAF7F1FF1A98FBF70EF88D
:1053000001461A9801F072FCFFE71A490120087063
:1053100003E0184900200870FFE71048007800F00B
:10532000FBFD03E00D49FF200870FFE712480078FD
:105330001990052801D900F0E4FC1998810001A01A
:10534000405887467D530008475500089D56000881
:105350000F5B0008815B0008AF5C000800000020C4
:10536000D4000020180300205A76000874010020A1
:105370008C76000859010020D8010020ED48007A01
:10538000C007002874D1FFE7FFF715FAE949189123
:10539000FF204874FFF7CAF9189901200872E64AFD
:1053A00000201070E54A108048750875E449E5480A
:1053B0000880FFF7C5F9002840D0FFE7FFF7D0F9D4
:1053C000002821D0FFE7E0480078C007002819D066
:1053D000FFE7FFE7DD480368DD481790DD4A01215C
:1053E0000902FAF77BFF1798FAF798FF014617981A
:1053F00001F0FCFBFFE7D8484B218A000221FFF7B0
:1054000025F900E0FFE718E0FFE7D0480368D0483F
:105410001690D24A01210902FAF760FF1698FAF7AE
:105420007DFF0146169801F0E1FBFFE7CA484B21DA
:105430008A000221FFF70AF9FFE718E0FFE7C348F7
:105440000368C3481590C64A01210902FAF746FFCE
:105450001598FAF763FF0146159801F0C7FBFFE7BF
:10546000BD484B218A000221FFF7F0F8FFE7FFE774
:105470003FA80088002864D0FFE7AE49B9484860DB
:105480003FA80088202823D1FFE7FFE7AF48036843
:10549000AF481490B44A01210902FAF71FFF14988B
:1054A000FAF73CFF0146149801F0A0FBFFE73CAA85
:1054B000012010709F490878507000203D901072B4
:1054C0003E9888603D9848603C98086000F01AFC5F
:1054D0003FA80088012832D1FFE7FFF731F9002803
:1054E00019D0FFE7A14901200870A14900200870E8
:1054F000FFE796480368964813909E4A01210902E7
:10550000FAF7ECFE1398FAF709FF0146139801F039
:105510006DFBFFE712E0FFE78C4803688C481290B0
:10552000954A01210902FAF7D9FE1298FAF7F6FE18
:105530000146129801F05AFBFFE7FFE7FFE7FFE79C
:1055400000E0FFE7DEE3FFF734F9002800D1A3E035
:105550008649002008708048FEF764FE00286DD060
:10556000FFE7FFE77948036879481190834A0121F2
:105570000902FAF7B3FE1198FAF7D0FE0146119826
:1055800001F034FBFFE7FFF7EBF8002839D0FFE725
:105590006D480078C00700281AD0FFE7FFE76B4886
:1055A00003686B481090764A01210902FAF796FECB
:1055B0001098FAF7B3FE0146109801F017FBFFE7C9
:1055C000654870494B2293000222FFF753F817E019
:1055D000FFE75E4803685E480F906B4A01210902AD
:1055E000FAF77CFE0F98FAF799FE01460F9801F042
:1055F000FDFAFFE74F48407F012100F0C5FBFFE7C0
:105600001BE0FFE75148036851480E905F4A0121B3
:105610000902FAF763FE0E98FAF780FE01460E982B
:1056200001F0E4FAFFE74C484B218A000221FFF722
:105630000DF8574901200870FFE700E0FFE7FFE79A
:105640004248036842480D90524A01210902FAF784
:1056500045FE0D98FAF762FE01460D9801F0C6FA74
:10566000FFE700200C9000904B4819210B014B499B
:105670000122FCF71BFE0C9839AA022111702D495A
:105680000B785370464B3A9310723B9888603A9867
:1056900048603998086000E0FFE733E338A900204C
:1056A00008702448007AC00700280CD1FFE73D4964
:1056B000002008701F4901220A72C87408773A490D
:1056C00048718871FFE7FFF73BF8002800D19AE0A6
:1056D00036480078C007002800D193E0FFE71B4858
:1056E00003681B480B90324A01210902FAF7F6FDC4
:1056F0000B98FAF713FE01460B9801F077FAFFE7D3
:10570000FFF759F827480078C007002807D1FFE7BE
:1057100024490120087027492748086071E025487E
:10572000006800284AD0FFE722490868401E086048
:1057300066E0C046D80100207801002076010020F4
:1057400056010020B80B000074010020D400002096
:1057500018030020A07E00087C010020777E00084E
:10576000C97E000888130000DB7A0008F8010020D9
:10577000F9010020A57C0008C37B0008B37D000868
:105780003177000878730008857700081E760008D6
:10579000FD0100208F7A00085A0100202D0800002A
:1057A00080EE360054010020B8010020590100208D
:1057B0001A7A0008500100201027000034AA0020A7
:1057C0001070F6490B785370F54B3593107236987C
:1057D00088603598486034980860FFE7F1480368AE
:1057E000F1480A90F14A01210902FAF777FD0A9877
:1057F000FAF794FD01460A9801F0F8F9FFE7FFE790
:10580000FFE7FFE7FFE7FFF717F8002824D0FFE7DF
:10581000FFE7E4480368E4480990E54A01210902EA
:10582000FAF75CFD0998FAF779FD0146099801F04D
:10583000DDF9FFE7FFF72EF831AA04201070D749F1
:105840000878507000203290107233988860329837
:1058500048603198086055E23FA80088002805D1CB
:10586000FFE7FEF77DFF002804D0FFE7CB49D148D2
:105870004860FFE73FA80088202805D0FFE7C74819
:105880004068002833D1FFE73FA8008820280AD1CC
:10589000FFE700200090C84819210B01C7490122E9
:1058A000FCF704FDFFE7FEF786FF2EAA002010702C
:1058B000BA490B785370BA4B2F93107230988860A6
:1058C0002F9848602E980860FFE7B6480368B648EE
:1058D0000890BB4A01210902FAF700FD0898FAF77F
:1058E0001DFD0146089801F081F9FFE7C9E03FA8D6
:1058F000008801281FD1FFE7FEF722FF002819D0FA
:10590000FFE7B04901200870AF4900200870FFE7A9
:10591000FD480368FD480790AC4A01210902FAF7E7
:10592000DDFC0798FAF7FAFC0146079801F05EF9EA
:10593000FFE7FFE7A4E03FA8008802280BD1FFE7BC
:10594000F3490020C8740090FB489C490122C823F9
:10595000FCF7ACFC93E03FA80088402810D1FFE79B
:10596000EB4A0020D074517D4B4259411175009093
:10597000F14819210B01F3490122FCF797FC7DE066
:105980003FA8008804280BD1FFE7E1480122C27438
:1059900000200090E848EA49C823FCF787FC6CE047
:1059A0003FA80088802810D1FFE7D9490122CA7496
:1059B000487D43425841087500200090DE48192177
:1059C0000B01DF49FCF772FC56E03FA8008808286D
:1059D0000CD1FFE7CE490220C87400200090D648C1
:1059E000D6490122C823FCF761FC44E03FA80088A7
:1059F00001210902884211D1FFE7C5490220C8747C
:105A0000487D42425041087500200090CA48192143
:105A10000B01CA490122FCF749FC2BE03FA8008892
:105A200010280CD1FFE7BA490320C8743220009037
:105A3000C148C2490222C823FCF738FC19E03FA83C
:105A4000008801214902884211D1FFE7B0490320B3
:105A5000C874487D42425041087532200090B648D3
:105A600019210B01B5490222FCF720FC00E0FFE7F9
:105A7000FFE7FFE7FFE7FFE7FFE7FFE7FFE7FFE7F6
:105A8000FFE7A3480590C07CFFF76EFB0598C07C3C
:105A9000FEF78AFE0598407D0690002804D0FFE7B7
:105AA000069801280CD030E09948007D012806D1E5
:105AB000FFE7974901204875A3488861FFE725E083
:105AC0009348806900280DD0FFE791488169491EFD
:105AD0008161007D002804D1FFE78D4900204875D1
