:020000040800F2
:10000000F00A002099020008A7020008A9020008CF
:1000100000000000000000000000000000000000E0
:10002000000000000000000000000000AB0200081B
:100030000000000000000000AD0200089D5E000806
:10004000B1020008B1020008B1020008B1020008C4
:10005000B1020008B1020008B1020008B1020008B4
:10006000B102000819230008B1020008B10200081B
:10007000B1020008B1020008B1020008215F0008C7
:10008000B1020008B1020008B1020008B102000884
:10009000B1020008B1020008B1020008B102000874
:1000A000B1020008B1020008B1020008B102000864
:1000B000B1020008B1020008B1020008000000000F
:1000C00000F002F800F0BDF80CA030C80838241881
:1000D0002D18671EA246AB4654465D46AC4201D180
:1000E00000F0AFF87E460F3EB6460FCC01263342F5
:1000F00000D0FB1A3343A246AB461847E06C000021
:10010000006D0000103A02D378C878C1FAD85207BF
:1001100001D330C830C101D504680C6070470000BD
:100120000023002400250026103A01D378C1FBD813
:10013000520700D330C100D50B60704710B56E294F
:1001400002D100F0C7FB10BD702902D100F003FD01
:1001500010BD662902D106F0EFFB10BD652902D162
:1001600006F0EAFB10BD672902D106F0E5FB10BDE1
:10017000612902D106F0E8FB10BD03681B0A01D318
:1001800080231943692902D100F06EFB10BD642958
:1001900002D100F069FB10BD752902D100F064FBAB
:1001A00010BD6F2902D100F081FC10BD782902D169
:1001B00000F0BEFC10BDE92902D100F01DFC10BD0D
:1001C000E42902D100F018FC10BDF52902D100F09D
:1001D00013FC10BDEF2902D100F074FC10BDF8290A
:1001E00002D100F0B3FC10BD0368DB0901D380230A
:1001F0001943632902D101F096F910BD732902D188
:1002000001F099F910BDE32902D101F0A3F910BD65
:10021000F32902D101F0A6F910BD002010BD1FB5D1
:1002200001F000FA04000020002106F017FB401C3A
:1002300060600020002106F0FBFAE0601FBD10B5F1
:1002400010BD01F0C8F91146FFF7E9FF06F0C2F949
:1002500001F05CFD03B4FFF7F2FF03BC01F0A6FD63
:1002600070B505460C46164602E00FCC0FC5103E91
:10027000102EFAD2082E02D303CC03C5083E042E5A
:1002800007D301CC01C5361F03E021782970641C17
:100290006D1C761EF9D270BD094880F308880948A4
:1002A000804709480047FEE7FEE7FEE7FEE7FEE776
:1002B000FEE7000005480649064A074B7047000064
:1002C000F00A0020A95E0008C1000008F004002028
:1002D000F00A0020F0060020F00600200FB41CB544
:1002E0000C0007AA009007D04142A14202D3001996
:1002F000401E01E00020C043074B7B44694601904B
:10030000069800F000FB0021002C01D0009A11702B
:100310001CBC08BC04B018472F06000030B5441CB4
:1003200003E00178401C00290DD08107F9D10B4B67
:10033000DD0104C8D11A91432940FAD0001B0A06F6
:1003400003D0C01E30BD001B30BD0A0401D0801E8A
:1003500030BD0902FCD0401E30BD0000010101018A
:10036000F8B5042A2CD3830712D00B78491C0370EC
:10037000401C521E83070BD00B78491C0370401C95
:10038000521E830704D00B78491C0370401C521E78
:100390008B079B0F05D0C91ADF002023DE1B08C97D
:1003A0000AE0FFF75DFFF8BD1D4608C9FD401C4689
:1003B000B4402C4310C0121F042AF5D2F308C91A06
:1003C000521EF0D40B78491C0370401C521EEAD414
:1003D0000B78491C0370401C012AE4D40978017091
:1003E000F8BD01E004C0091F0429FBD28B0701D529
:1003F0000280801CC90700D00270704700290BD012
:10040000C30702D00270401C491E022904D383078F
:1004100002D50280801C891EE3E70022EEE700225D
:10042000DFE70000002203098B422CD3030A8B4232
:1004300011D300239C464EE003460B433CD40022DC
:1004400043088B4231D303098B421CD3030A8B42EE
:1004500001D394463FE0C3098B4201D3CB01C01ABC
:10046000524183098B4201D38B01C01A5241430987
:100470008B4201D34B01C01A524103098B4201D375
:100480000B01C01A5241C3088B4201D3CB00C01AE2
:10049000524183088B4201D38B00C01A524143085A
:1004A0008B4201D34B00C01A5241411A00D201467F
:1004B0005241104670475DE0CA0F00D04942031018
:1004C00000D3404253409C46002203098B422DD367
:1004D000030A8B4212D38901FC2212BA030A8B420F
:1004E0000CD3890192118B4208D3890192118B425E
:1004F00004D389013AD0921100E08909C3098B42E3
:1005000001D3CB01C01A524183098B4201D38B0125
:10051000C01A524143098B4201D34B01C01A5241C8
:1005200003098B4201D30B01C01A5241C3088B420D
:1005300001D3CB00C01A524183088B4201D38B00F8
:10054000C01A5241D9D243088B4201D34B00C01A82
:100550005241411A00D201465241104663465B1097
:1005600001D34042002B00D54942704763465B10DF
:1005700000D3404201B50549002802DC491C08406F
:1005800000E00846C046C04602BD00BFFFFFFF7F37
:100590007047704770470000F0B5FF252D04C6096D
:1005A000C209FF2704462E400137CB093E4348408D
:1005B0002A402B400746002A6BD0002B69D0AA4264
:1005C00067D0AB4265D0002800DA32460125ED0540
:1005D00029432C4309022002090AD21A4B0C7F241A
:1005E000E31A434C000A7C44E35C7D242404121982
:1005F00014145B00A218884201D3521C00E0400092
:1006000049420C465C4324115C43DB016415E3184A
:10061000040A5C43C502200D0C4644436419250AB4
:100620005D432303EC0C0D46654300030019EB18F2
:100630004C42A34201D35B18401CD4052018002B68
:1006400007D05B00C91804D3401C002901D1400821
:1006500040003F2189048A4209D3002A08DC1106A0
:10066000090F04D0032149074018C00FC007F0BD8F
:1006700001224100120689187F2252069142F6D2C9
:1006800005214907C84201D59010F0BDFF20C005E3
:10069000F0BD002F00DA32461648AA4207D2AB421C
:1006A00005D21902090E17D0F80FC007F0BDFF25BB
:1006B00063002D06AB42F9D84900A942F6D8AB42F7
:1006C00001D1A942F2D0A94201D1002101E061008B
:1006D0004908D0050843F0BD1102090EFBD0FF20E8
:1006E0000243D005F0BD0A460146104654E700001B
:1006F0006E6300000000C07F10B501469E2400021A
:10070000CA15A307002A02D01843002A04DBA21A44
:10071000002A0CDDD04010BD1206120E01D140009F
:100720004008A21A03D4D04040420028F3DDFF2243
:1007300048001206904201D9002010BDC817C043DE
:10074000584010BD1F22030C02D10F2200041CD000
:10075000030E01D10002083A030F01D10001121F5C
:10076000830F01D18000921E002801DB4000521E41
:10077000D2055118021251181922904004D3491C75
:10078000002801D14908490008467047C10FC90730
:1007900000D04042012292071143D3E7012189078B
:1007A000D0E770B5044685690068C10601D53026DA
:1007B00000E02026C00707D070BD62683046A168FF
:1007C0009047206A401C20626D1EF6D570BD70B542
:1007D000044685690078C00707D170BD6268A168CA
:1007E00020209047206A401C20626D1EF6D570BD07
:1007F00009684A0501D540B27047C905FCD500B269
:10080000704709684A0501D5C0B27047C905FCD5D3
:1008100080B2704770B50C460546012A05D028788D
:10082000800600D5EA69002302E0012305E05B1C95
:10083000934202D2E05C0028F9D1A869E618C01AF8
:10084000A861286AC01828622846FFF7AAFF04E0BA
:100850006A682078A968641C9047B442F8D3284697
:10086000FFF7B5FF70BD0000F7B5002575291068CA
:10087000009914A611D0FFF7BBFF002802DA40420E
:1008800011A608E0009909688A0701D50FA602E0C1
:10089000490704D50EA6012501E0FFF7B2FF009F2E
:1008A0000024243704E000F082FE30313955641C06
:1008B0000028F8D12B4632462146009800F059FA1C
:1008C000FEBD0000000000002D0000002B00000015
:1008D0002000000011680268006A530501D5087005
:1008E00009E0D30501D5088005E0130602D5C2173B
:1008F00005C100E0086001207047000001694A1C42
:1009000002610878704700B58FB00291002105910F
:10091000054901937944039111460490684600F01B
:1009200027F90FB000BD0000E5FFFFFF0CC9083933
:100930009A4202D2531C0B6010707047F7B5044600
:10094000154686B02B487844002703C83E460090E1
:10095000019111E007986A467100415A02A800F01F
:1009600005FE411C07D02178890603D5E2693918B4
:1009700091420ED83F18761C2078800602D5E06997
:10098000B84206DDAE42E5DB07987100405A002808
:10099000E0D1A069C01BA0612046FFF702FF154807
:1009A00078445A3803C800900020019116E04100B5
:1009B0006A460798415A02A800F0D8FD0590401CED
:1009C0000AD0002505E0626802A8A168405D904752
:1009D0006D1C05988542F6D30498401CB0420490E3
:1009E000E5DB206AC01920622046FFF7F0FE09B05F
:1009F000F0BD00004E600000F7B5D21D0025D20802
:100A000015A6D200F52905CA11D0002A05DA002161
:100A10004042914111A60A4608E0009909688B07F7
:100A200001D50FA602E0490701D50EA60125114602
:100A3000009F0024243704E000F05EF930323A557C
:100A4000641C02460A43F7D12B46324621460098E1
:100A500000F08FF9FEBD0000000000002D00000036
:100A60002B0000002000000070B504460021243453
:100A700008E05507D2086D0F303565545D072A43ED
:100A8000DB08491C15461D43F3D10468002310A25E
:100A9000250708D520252C400C4304D0C469012328
:100AA0000CA2641EC46100F064F970BD10B5044668
:100AB00021461068FFF7A5FE002302462046FFF7F7
:100AC000D3FF10BDD21DD108C9000CC9CCE700006E
:100AD0000000000030000000F8B50F46018809054D
:100AE00002D5224C7C4402E0204C7C440E34054666
:100AF0000021243508E016071209360FA65D6E5452
:100B00001E0732431B09491C16461E43F3D12246D9
:100B100004780023240705D5702F06D0002901D0C2
:100B20000223113200F025F9F8BD01231032F9E754
:100B300070B504460D4621461068FFF762FE00239B
:100B4000024629462046FFF7C7FF70BDD21DD308D5
:100B5000DB000CCBC0E730B40368202412682343C9
:100B600003600823C36130BC0023B5E7B85E000012
:100B7000F3B50446002081B020622046E168884732
:100B8000002872D0252802D06268A168ABE0594FD6
:100B900000267F442046E16888472028054608DB78
:100BA000312D06D2781920380078002801D006436C
:100BB000F0E7B00701D5042086430020E061074636
:100BC000A0612A2D0AD0284605F02AFE002827D049
:100BD000B8000019303D0090856119E00298BA0014
:100BE000121902C8916102902046E1688847012FDE
:100BF000054617D1E06900281FDA202086431CE053
:100C000000980A218069484300994019303888616A
:100C10002046E1688847054605F002FE0028EFD12E
:100C2000012F0AD02E2D08D12046E16888470546BD
:100C3000202006437F1C022FC3DBA069002803DAB3
:100C40004042A06101200643F00701D010208643F6
:100C50006C2D0BD0682D09D04C2D3CD06A2D38D08E
:100C6000742D38D07A2D36D016E040E0E1682F465A
:100C700020468847B842054609D16C2F29D001206B
:100C80008002E168064320468847054604E06C2F51
:100C90001DD0FF2001300643002D28D028464138C2
:100CA000192803D80120C0020643203520462660BB
:100CB0002946029A1646FFF741FA002810D001286B
:100CC0000BD0F61DF008C0000830029055E7402018
:100CD000E1E78020D5E70020D3E7361D02964CE7F8
:100CE00062682846A1689047206A401C44E7206A51
:100CF000FEBD0000325E00000B4670B5024689075B
:100D00008008084319469D08141AA94125090807B7
:100D1000054308092C194841250A01060D43010A1B
:100D20002C194141200C0D0428430D0C00194D4194
:100D3000002140194D41C00869070843E908840FA4
:100D40008D002543840024184D4124196D41121B48
:100D5000AB4107E00925ED432C11521963410024F2
:100D6000401C61411C460A250026551BB441F1D2A6
:100D700070BDFFB504460D4681B024300090216857
:100D8000880604D51022E0699143216000E001202B
:100D9000A84201DD471B00E000270498A1697A19E9
:100DA0001018081AA0612078C00602D42046FFF768
:100DB000F8FC002608E003986268A168805D90470F
:100DC000206A401C761C206204988642F3DB20785F
:100DD000C0060AD52046FFF7E4FC06E06268A16879
:100DE00030209047206A401C206238467F1E002831
:100DF000F4DC07E000986268A168405D9047206AD3
:100E0000401C206228466D1E0028F3DC2046FFF7B8
:100E1000DEFC2078000602D5022005B0F0BD0120DE
:100E2000FBE70000FFB50C461E468FB003CA0890D2
:100E300009914F007D0D00D16D1E00210846002054
:100E4000C0460321099A89050840002A03DA820076
:100E5000801840080840800D01280A9002DD00201B
:100E6000C0430A90089807430DD0F048F04928186D
:100E700048430714189800281DD07542291E1DDD0F
:100E80000A9842421BE01898012802D00020302125
:100E900004E00020F24305E02154401CB042FBDB9B
:100EA00030460022189B002121540F998B600A6064
:100EB000486013B0F0BDBD1B6D1CDFE70A9A002926
:100EC00000DA69420BA800F0F5FB0BAB07CB03ABD4
:100ED00007C30899099800F059FC6B4607C30146FF
:100EE000D4480918002D00910BDDD24903980A9AC5
:100EF00049424018002303A90390684600F0B6FE5B
:100F000008E003990A9A0023081803A90390684689
:100F100000F056FE6B4607C30004000C03D000200F
:100F2000C043410800E01046189A002A03D000226E
:100F3000009215461EE0751E05D4FFF7DDFE303227
:100F400062556D1EF9D501220843079602D0002292
:100F50007F1C04E02078302801D100227F1E002A67
:100F6000069787D01EE0112D07DAFFF7C5FE303255
:100F700062556D1C02460A43F5D1084303D0009820
:100F8000002819D00EE00021681E05E0235C625C99
:100F900063542254401E491C8142F7DBA81B401EAB
:100FA00007950690079A18990020A0540F98079B60
:100FB000069A81600CC07CE711260020189059E742
:100FC000D21DF0B50D460446D10893B0C90003C93F
:100FD0000C900D9105F00EFC02460D98C00F01D04B
:100FE0002D2007E02068810701D52B2002E0400773
:100FF000C00F4001032A0F9001D0072A05DB0346EA
:101000002946204600F012FB0EE12078800601D52B
:10101000E76900E006272846652D04D0662814D02D
:10102000672D69D12DE00020112F009001DB1123E5
:1010300000E07B1C0CAA03A910A8FFF7F3FE11998E
:10104000002610987D1C0E9142E001203B460CAA20
:10105000C0070B900120009003A910A8FFF7E2FE43
:10106000119D12981099002600280E9501D1781C28
:101070000D18781B02D446427D1C761EE81B00909A
:101080003AE0012F00DA01270020112F009001DD46
:10109000112300E03B460CAA03A910A8FFF7C2FEEB
:1010A00011993D46109800260E91217809070BD41E
:1010B0000E99A94200DA0D4603A9012D04DD4A1953
:1010C000203AD27F302A06D0B84201DA011D04DA74
:1010D000012100910FE06D1EEFE7002802DC861968
:1010E0002D1A03E0411CA94200DD0D46801B401C67
:1010F00000900120C0070B902078000705D40098CD
:10110000A84202DB0020C043009069460020C8725C
:101110000B98012102AF0337C907884225D002206E
:1011200010902B2011900B9800280BDA40420B9066
:101130002D20119006E00B9800F039FA30317F1E17
:101140000B9039701099481E00291090F3DC0B9811
:101150000028F0D111987F1E38702088000501D535
:10116000452000E065207F1E387001A8C01BC01D0F
:101170000B900F98002800D0012041190098C0174B
:1011800009180B980818A169081A401EA061207858
:10119000C00602D42046FFF704FB0F98002805D0B4
:1011A0006268A1689047206A401C20622078C006CF
:1011B00025D52046FFF7F5FA21E0002E07DB0E9833
:1011C000B04204DD03A86268805DA16802E0626845
:1011D000A16830209047206A761C401C206200984D
:1011E000401E002800900AD100F01CFAC068626816
:1011F0000168405CA1689047206A401C2062284634
:101200006D1E0028D9DC07E062683878A1687F1C71
:101210009047206A401C20620B99481E00290B90C1
:10122000F2DC2046FFF7D3FA032042E601FCFFFF81
:10123000104D0000E1DFFFFFD21DF0B504460D4662
:10124000D0088DB0C000466807683146384605F0C2
:10125000D1FA0246F00F01D02D2307E02068810764
:1012600001D52B2302E04007C00F43016846002B45
:10127000037001D0012000E00020032A0A9001D071
:10128000072A04DB2946204600F0D0F92DE120781A
:10129000800601D40D2500E0E5697000400D0D2D9C
:1012A00001904BDA300D00210B9008460020C0461B
:1012B000032189050840002E05DA82008018C20F3C
:1012C0001018401008408015012801DD0020C0439F
:1012D000A9000023182906D39C460A460123183A80
:1012E0001B07D34003E001221205CA4094460C318B
:1012F000202902D33A46203900E032468A400028AD
:1013000002DD002A06D119E0002817D10121C90702
:101310008A4213D3194663467F185E41002806D1DE
:101320000120C007824202D1084687439E430B98A2
:10133000310D814202D00198401C019020880005A7
:1013400002D57149794402E06F49794419396B46F5
:101350000A9830221A540A980A7C401C1A54401CDD
:101360000A900198002801DC302000E0312018723A
:10137000019A0120002A02D0644BD21804E07200C6
:101380003A4302D0614A521C0192002D02DC2278BD
:10139000120703D56A462E2050720220002286468C
:1013A00094460CE032033601120F6D1E8B5C02AACC
:1013B00013546246521C401C9446052A01DA002D43
:1013C000F0DC002202AE08E03B0F3F01CB5C521C78
:1013D0006D1E3354401C082A01DA002DF4DC23680A
:1013E0009A0601D511E0401E704504DD3218203AFE
:1013F000D27F302AF7D0002807DD3218203AD27F7A
:101400002E2A02D11A0700D4401E002D03DD3E22F1
:101410003254401C6D1E497C31540199401C0029F6
:1014200006DA2D21471C315401984042019003E017
:101430002B21471C315401987D21C900884206DBCD
:10144000FEF7FAFF3030F0557F1C019101E064286F
:1014500008DB01986421FEF7EFFF3030F0557F1C68
:10146000019101E00A2806DB01980A21FEF7E4FF5A
:101470003030F0557F1C01980A21FEF7DDFF303136
:10148000F1550A98A1697F1C7A191018081AA061F1
:101490002078C00602D42046FFF783F9216A6E4601
:1014A0000A980818206204E062683078A168761C07
:1014B00090470A98401E0A90401CF5D12078C0063B
:1014C00002D52046FFF76DF902AE09E03078761CB0
:1014D0003E280DD06268A1689047206A401C2062B7
:1014E0007F1EF3D22046FFF772F90DB00320F0BD46
:1014F000206A4019206203E06268A16830209047AA
:101500006D1EEDD3F8E70000A456000001FCFFFFBC
:1015100010B54369002B02D0C046C04601E0FFF77A
:1015200079F9012010BD1278014624310A70002299
:101530004A700122ECE711680022D243E8E710B5B7
:101540004369002B02D0C046C04601E0FFF7F6F920
:10155000012010BD12880146243182840022C284F9
:101560000122ECE711680022D243E8E7F8B51646FD
:101570000C46054600F04EF80368FF200230C05CC0
:10158000012807D0FF2C0FD8185D00280CD00120AF
:101590002C70F8BDFF333246214608331868C7184F
:1015A00028460023B847F8BD0020C043F8BD0146D7
:1015B0008008081A02091018020A1018020C1018E4
:1015C000C008820012185200891A01E0401C0A3932
:1015D0000A29FBD27047754600F0A0FBAE46050015
:1015E00069465346C008C000854618B020B5FEF7CE
:1015F00061FE60BCB64600260027C0C5C0C5C0C598
:10160000C0C5C0C5C0C5C0C5C0C5403D490849002A
:101610008D46704710B500F005F8001D10BD00BFE5
:101620003D52000000487047F8000020F8B51F4602
:10163000044601230068DB02032601461840072AFE
:1016400005DB002801D017A506E017A504E0002857
:1016500001D016A500E016A5102081432160A069E5
:10166000C01E002FA06101D0401EA0612046FFF7E0
:1016700098F8002F09D038466268A1689047206A20
:10168000401C2062C01C206206E0206AFAE7626803
:101690002878A1686D1C9047761EF8D22046FFF787
:1016A00096F8F8BD4E414E006E616E00494E460000
:1016B000696E6600F7B516468AB0334878446C46C2
:1016C00003467C33C06F5A689B680DC42E4878442B
:1016D000763003AC0DC80DC43720C001081837217F
:1016E0001B30FEF7A9FE05460C46803D1B3C02D58B
:1016F0006442012000E000200027099010E0E0078C
:101700000CD00C2020497843794432464C3941189A
:101710006846012300F054FA6B4607C364107F1C2F
:10172000002CECD1184F7F442E3F16E0E80712D072
:101730002001C0190EC80691089307920068F04274
:1017400001D1981908903246012306A903A800F098
:1017500037FA03AB07C36D10641C002DE6D109985E
:10176000002806D032466946012303A800F07EFA1D
:1017700005E001233246694603A800F021FA0A9BDE
:1017800007C30DB0F0BD0000405300000346400009
:101790000A4610B5400D0BD00121C9070F24A40241
:1017A00000191C0364082143540D2143D20207E0B1
:1017B00000210120F2E7D40F490021435200401ECE
:1017C0000029F8DADB0FDB07184310BDFFB50D4623
:1017D000144685B04868516804F0F4FF0091019008
:1017E000A868A16804F0EEFF02910390A868616800
:1017F00004F0E8FF029A12188242029201D20120FC
:1018000000E00020019A0B18D2180028019202D0A3
:101810008A4202D903E08A4201D2012000E000207E
:101820000099081800906868A16804F0CBFF029A3C
:1018300012188242029201D2012000E00020019A97
:101840000B18D2180028019202D08A4202D903E074
:101850008A4201D2012000E000200099081800907F
:101860002868216840004900400849084018FA49A2
:10187000471814E001994000C90F084300900198EF
:1018800002994000C90F0843019002980399400053
:10189000C90F08430290039840007F1E03900098F0
:1018A0000028E7DA0898002801D0EC4E00E0002676
:1018B000B74201DA012000E00020002804902AD07D
:1018C000F71BF806C00E15D0029B2021091A039AB7
:1018D0008B401A430392029A019BC2408B401A43E9
:1018E0000292019A009BC2408B4000991A430192D8
:1018F000C14000917B110DD06F460320C11A03D562
:1019000000218200B95003E08A008100BA587A5061
:10191000401EF3D5374603980299002800D00120D5
:10192000014308980291002808460CD0002800D0F6
:1019300001200199019A490508430121D20AC902EF
:10194000D202019200E001210E9B0122D207012B5D
:1019500002D0002B03D013E0002807D120E09042F2
:1019600004D890420CD1019B0B4209D0019B59181D
:10197000019105D10099491C009101D17F1C009271
:1019800000280DD0102108460020C04604980028E9
:1019900006D00F98002803D0082108460020C04632
:1019A00028682168019B009A4840C10F0598C90723
:1019B00039430EC009B0F0BDFFB587B0099A089849
:1019C0000899536892684068896896460022039394
:1019D00017469446089A12685300099A5B081268E1
:1019E000520052089A1A9E4BD4180A9A002A01D023
:1019F000352200E04022069200220123154604927F
:101A0000DB07059324E0002D05D175460346039EB0
:101A10004D1BB34109D375466646039B491B049D84
:101A20009841059B7519AC465F4163463B4308D01E
:101A3000059B049EDD0776082E435B0804960593FC
:101A400001E0521E641EC50FED0749184041521CAB
:101A5000069B9A42D7DB002D04D17546039A6B1A78
:101A6000824101D203200CE0039A0B466B404240B6
:101A7000134303D0014303D0012002E0022000E021
:101A80000020614601910021009702910A990029E6
:101A900005D0614640020143704B019102E080078E
:101AA000002302909C4201DA012000E000200700A0
:101AB0003AD01A1BD006C00E15D0029D2021019CE1
:101AC000091AC5408C402543029C8C4000D001245B
:101AD0002543019C0295009DC4408D4000992C43F4
:101AE0000194C140009154111DD06D460221002285
:101AF00002290CD10320001B07E0002804DB86002C
:101B0000AE59002E00D00122401C0328F5DB081B33
:101B100002D588002A5004E08000285810438A002B
:101B2000A850491EE3D51C460A98002802980CD0FC
:101B3000002800D001200199019A4905084301219C
:101B4000D20AC902D202019200E00121109B0122B7
:101B5000D207012B02D0002B03D013E0002807D1BD
:101B60001FE0904204D890420CD1019B0B4209D057
:101B7000019B5918019105D10099491C009101D18F
:101B8000641C009200280CD0102108460020C0469A
:101B9000002F06D01198002803D008210846002005
:101BA000C04608980999019A009B00680968484056
:101BB000C10F0798C907214382600AC00BB0F0BD6E
:101BC00000B585B0019300920A460146002302A8A1
:101BD000FFF7FCFD02A807C805B000BDFFB50A4627
:101BE0001F4685B00799019301230091014602A881
:101BF000FFF7ECFD02990398049ECA0F4900D20733
:101C000000920F22490892028C1A0021002800DB62
:101C10000C46450013486D08844214D3079A002AE5
:101C200004DA441E0026104DF64302E004460D4639
:101C30000E46102108460020C046002F03D0042184
:101C400008460020C0462005E90A084300990843D9
:101C50006905F20A1143ADE602C0FFFF013C000036
:101C6000FF3F0000FF070000FFFFFF7F00B585B0CA
:101C7000019300920A460146002302A8FFF79CFE4A
:101C800002A807C8A8E7FFB50A461F4685B007990E
:101C9000019301230091014602A8FFF78DFE0299EE
:101CA0000398049ECA0F4900D20700920F224908E8
:101CB00092028C1A0021002800DB0C4645001148D6
:101CC0006D08844214D3079A002A04DA441E0026C1
:101CD0000D4DF64302E004460D460E46102108461F
:101CE0000020C046002F03D0042108460020C04633
:101CF0002005E90A0843009908436905F20A1143DF
:101D000058E60000FF070000FFFFFF7F10B5044604
:101D1000C046C0462046FEF79DFA10BD00487047F9
:101D2000D8000020024670B50A4392072AD11E4D02
:101D3000EE0104C808C9541B9443344017D0D0B2F4
:101D4000D9B2401A2106014310D190B299B2401A7B
:101D5000210401430AD110021902000A090A401A9B
:101D60002102014302D1100E190E401A70BD9A4291
:101D7000DFD010BA19BA884201D9012070BD002005
:101D8000C04370BD02780B78401C491C002A09D062
:101D90009A4207D102780B78401C491C002A01D0D6
:101DA0009A42EFD0D01A70BD0101010101491820FB
:101DB000ABBEFEE726000200704784B0029001A887
:101DC0000170694600200870FFE76846007801A9A5
:101DD0000978884211DAFFE7029869460978405C81
:101DE000002804D0FFE703A90020087009E0FFE7FE
:101DF0000098401C69460870E7E703A901200870B5
:101E0000FFE703A8007804B0704780B58AB0099056
:101E10000891079206930898029001A90020087083
:101E20000490FFE70498032847D8FFE700200590B7
:101E3000FFE705983F2835D8FFE709990598401C2A
:101E400048430499491CFEF7EDFA0390039808995A
:101E5000884205D9FFE703980899401A009004E0EA
:101E600008980399401A0090FFE7009803900298A1
:101E70000399884209D9FFE70398029005980799CA
:101E80000870049806990870FFE70298002804D1AA
:101E9000FFE701A90120087004E0FFE70598401C56
:101EA0000590C6E701A80078002801D0FFE704E00C
:101EB000FFE70498401C0490B4E702980AB080BD84
:101EC00081B0009001B0704782B0019000910098FD
:101ED0000199886102B0704782B00190009100982A
:101EE0000199086102B0704780B590B00F900EA8BC
:101EF00001700F984089012805DBFFE70F99488999
:101F0000401E4881FFE70F98007A0190042800D90D
:101F10005AE10198810001A040588746311F00080E
:101F20009F1F0008412000089D2000089321000801
:101F30000EA80078C00700280CD0FFE70F990DA865
:101F4000012202700F9A12884280408848810D98C1
:101F5000088123E00F980079C00700281DD0FFE713
:101F60000F98007BC007002815D0FFE70F98408925
:101F700000280ED1FFE70F99002008730F98006921
:101F8000002804D0FFE70F980069804700E0FFE7D2
:101F90001BE1FFE700E0FFE7FFE7FFE715E10EA821
:101FA0000078C00700281CD0FFE70F984089002860
:101FB00015D1FFE70F98C069002804D0FFE70F98FC
:101FC000C0698047FFE70F990CA8022202700F9AA0
:101FD00052884280408848810C98088100E0FFE7E1
:101FE0002DE00F980079C00700281DD0FFE70F985B
:101FF000007BC00700280CD0FFE70F990BA8002238
:1020000002700F9A52894280408848810B9808815B
:1020100009E00F990AA80022027042804088488196
:102020000A980881FFE709E00F9909A800220270C9
:1020300042804088488109980881FFE7FFE7C4E0B3
:102040000EA80078C00700281BD0FFE70F98408932
:10205000002814D1FFE70F988069002804D0FFE71B
:102060000F9880698047FFE70F9908A80422027043
:1020700000224280408848810898088100E0FFE7FC
:102080000BE00F9907A8032202700F9A1288428072
:102090004088488107980881FFE796E00EA80078FD
:1020A000C007002868D1FFE70F984089002861D158
:1020B000FFE70F980079C00700283ED0FFE70F9890
:1020C000007BC00700281FD0FFE70F99002008738E
:1020D0000F98006A002804D0FFE70F98006A804735
:1020E000FFE70F984069002804D0FFE70F98406988
:1020F0008047FFE70F9906A80022027042804088BF
:1021000048810698088117E00F99012008730F98FD
:10211000006A002804D0FFE70F98006A8047FFE7B5
:102120000F9905A8002202700F9AD2884280408839
:10213000488105980881FFE71BE00F98006A002896
:1021400004D0FFE70F98006A8047FFE70F98006907
:10215000002804D0FFE70F9800698047FFE70F9938
:1021600004A80022027042804088488104980881B7
:10217000FFE700E0FFE70BE00F9903A802220270DF
:102180000F9A528842804088488103980881FFE76F
:102190001BE00EA80078C007002813D1FFE70F98B6
:1021A000006A002804D0FFE70F98006A8047FFE725
:1021B0000F9902A80022027042804088488102984C
:1021C000088100E0FFE700E0FFE710B080BD80B5C8
:1021D00000F030F880BD80B500F004F800F03EF863
:1021E00080BD000080B584B003A8029000F0A0F983
:1021F0000D204004012103F00FFB02990820088004
:1022000003200090887010200190C870074800F0EB
:10221000DFF8009A0198029920230B808A70C87019
:10222000034800F0D5F804B080BDC046000C00485B
:102230000008004880B582B00121880403F0ECFA60
:102240001648009009210022019200F049F90098F7
:10225000019A082100F044F902B080BD80B584B035
:1022600001210091880403F0D7FA0098400203A9E5
:1022700002910880032088701820C87007480190D8
:1022800000F0A6F8009A0198029912020A8004222E
:10229000CA7000F09DF804B080BDC046000400483C
:1022A0001A4800687047C04683B002901749002062
:1022B0000860029AD200164B1A60164A1060052078
:1022C0000860FFE7114800680190FFE7002001A9BE
:1022D0000978C9070029009008D0FFE701A8807895
:1022E00001210840414248410090FFE70098C007A3
:1022F0000028E7D1FFE705490868012290430860FC
:1023000004490020086003B07047C04610E000E0B8
:1023100014E000E018E000E080B5042000F028F8A8
:10232000002804D0FFE7042000F018F8FFE702209F
:1023300000F01EF8002806D0FFE7022000F00EF89B
:1023400004F010F8FFE7082000F012F8002804D08D
:10235000FFE7082000F002F8FFE780BD81B00090A1
:1023600000980249086001B07047C046040002406E
:1023700081B000900348006800990840411E8841E0
:1023800001B070470000024080B588B0079001217D
:102390000291880303F06EFA03A8009004F06DF830
:1023A000009907980390302088800020C880088119
:1023B0008881182048810548019004F001F80198AF
:1023C000029903F0DDFF08B080BDC046003801402F
:1023D00087B0069005910598C0780F2108400090BD
:1023E0000598C078C006002806D5FFE705988178D3
:1023F000009808430090FFE70698019003A9002089
:102400000870FFE703A80078072820DCFFE703989F
:10241000800004A908700598008803A90978C840BD
:10242000C00700280DD0FFE70198006804A90A78CA
:102430000F21914088430099914008430199086019
:10244000FFE7FFE70398401C03A90870DAE7069846
:10245000001D019005984078029003A900200870A3
:10246000FFE703A8007807281FDCFFE70398800038
:1024700004A90870029803A90978C840C007002879
:102480000DD0FFE70198006804A90A780F21914058
:10249000884300999140084301990860FFE7FFE7EE
:1024A0000398401C03A90870DBE70598C07828282A
:1024B00007D1FFE7059802880699486910434861EB
:1024C0000CE00598C078482807D1FFE705980288F6
:1024D0000699086910430861FFE7FFE707B07047F6
:1024E00086B0059004A8017003A90A700178490715
:1024F000C90E02AA11700078072804DCFFE70598CE
:102500002030009003E0059824300090FFE7009809
:1025100001900199086802AA13780F229A4090430B
:1025200003AA12789A401043086006B07047000072
:1025300081B00090009905480880009901208870BA
:1025400000990420C87001B07047C046FFFF00002A
:1025500083B0029001A801806846027000780028CC
:1025600005D0FFE701A800880299086104E001A8EE
:10257000008802994861FFE703B0704710B588B042
:102580000790069105920698808804900798049910
:10259000884210D2FFE70698417A012420468843FA
:1025A00002AB187007980499059A1B78234000F035
:1025B00017F8039011E00698407A0124204001ABFF
:1025C000187007980499401A0699C988059A1B78CB
:1025D000234000F005F80390FFE7039808B010BD12
:1025E00010B588B007900691059204A8009003707A
:1025F0000799059848430699FDF714FF014600988E
:1026000003910078C007002807D0FFE703984043F4
:102610000599FDF707FF02900AE005980399401A13
:102620000190019840430599FDF7FCFE0290FFE7F9
:10263000029808B010BD80B588B007900691059249
:102640000698808804900698C088039006980089B0
:10265000029006984089019007980499884208D210
:10266000FFE707980499059A0123FFF7B9FF009047
:102670002FE007980499039A8918884203D2FFE74C
:102680000598009024E007980499039A8918019A04
:10269000891888420CD2FFE707980499401A0399D9
:1026A000401A0199059A0023FFF79AFF00900EE067
:1026B00007980499039A8918019A8918029A891827
:1026C000884203D2FFE700200090FFE7FFE7FFE723
:1026D000FFE7009808B080BD044800687047C04616
:1026E00002490868401C08607047C046C0010020CD
:1026F00082B000900098002804D1FFE701A90420CF
:10270000087024E00098006800280AD0FFE70098CD
:102710004068002805D0FFE700988068002804D1B1
:10272000FFE701A90420087011E00098007B012850
:1027300005DBFFE70098007B062804DBFFE701A923
:102740000620087003E001A900200870FFE701A837
:10275000007802B0704780B58AB008900791089859
:10276000002805D0FFE708984068002804D1FFE75B
:1027700009A9042008705AE00898807CC007002846
:1027800004D1FFE709A90020087050E008984068CC
:1027900006900898C068002808D1FFE707980899B4
:1027A000C8600698007A08994874FFE70798089966
:1027B000C968401A05900698C188808848430490EB
:1027C00005980499FDF72EFE039103980699C98890
:1027D000FDF728FE0290069800680299890040588B
:1027E00001900898019900F014FA069808214056C3
:1027F000401C002817D0FFE70598049A0699082383
:10280000C956514388420ED3FFE7089900208874C7
:10281000089801F000F808980C2100F028F90899B0
:1028200001200874FFE709A900200870FFE709A844
:1028300000780AB080BD80B586B0049003910498FA
:10284000002805D0FFE704984068002804D1FFE77E
:1028500005A9042008704CE0049840680290049890
:10286000807CC007002804D1FFE705A9002008707C
:102870003FE00498C068002808D1FFE70398049956
:10288000C8600298807904994874FFE70398049916
:10289000C968401A0190019802998988884212D328
:1028A000FFE703980499C8600498029906228956A4
:1028B000002200F0AFFC0C2804D1FFE704990120AE
:1028C0000874FFE711E00198029989884908884255
:1028D00004D3FFE7049800F09EFF05E004980299F6
:1028E000096800F096F9FFE7FFE705A900200870E6
:1028F000FFE705A8007806B080BDD0B502AF90B064
:102900006E46F21D0932B2600246B06882624162D0
:10291000806A002806D0FFE7B068806A4068002817
:1029200005D1FFE7F11D35310420087098E0B0684B
:10293000806A807CC007002805D1FFE7F11D353192
:10294000002008708CE0B068816A49680162806A82
:10295000C068002809D1FFE7B168486A8A6AD06078
:10296000086A007A896A4874FFE7B168486A8A6A27
:10297000D268801AC8610A6A9088D28880188861F3
:10298000C8698969FDF74EFDB0684161806A0068D9
:10299000007B00F073FBB168086108696A46CA6091
:1029A0004200D31D072293436A46D21A72609546AD
:1029B000886000204860FFE7B1684868096988427C
:1029C0001ED2FFE7B068016A09684268895C806AC4
:1029D0000068C0894843FF21FDF724FDB2681060FC
:1029E0005069116A1268FFF7C9FDB26871685268D0
:1029F00052008852FFE7B1684868401C4860DBE736
:102A0000B0687168806A00F03FF9B168C869896987
:102A100088421DD3FFE7B168486A8A6AD060086AB5
:102A2000427A012318469043F21D05321070886ADD
:102A3000096A0824095712781A4000F0EBFB0C28A9
:102A400005D1FFE7B068816A01200874FFE7FFE75E
:102A5000B068F21D353200211170C0688546FFE76D
:102A6000F01D35300078FC1F013CA546D0BD80B577
:102A700082B001906846017001988068002807D0F4
:102A8000FFE701988268007C694609789047FFE774
:102A900002B080BD10B592B010900F911098002830
:102AA00005D0FFE710984068002804D1FFE711A97E
:102AB00004200870A9E01098807CC007002804D189
:102AC000FFE711A9002008709FE0109840680E9061
:102AD0001098C068002808D1FFE70F981099C860C7
:102AE0000E98807A10994874FFE70F981099C9687A
:102AF000401A0D900E99C888098940180C901098BA
:102B000011214056401C002806D0FFE710981121E3
:102B10004056022806DBFFE70C990E988088484350
:102B2000029007E00C9A0E9988885043C988401A91
:102B30000290FFE702980B900D980C99FDF772FC3C
:102B40000A910D980C99FDF76DFC0E998988FDF797
:102B500069FC09910998401C0E998988FDF762FC6F
:102B600008910E98006809998900405807900E98BE
:102B7000006808998900405806900A980E990989BA
:102B8000884210D2FFE71098079900F042F80146FA
:102B900005A801700078002804D0FFE7059811A966
:102BA000087032E00EE00A980E990989401A0490E4
:102BB000109804990E9AD288079B069C009400F006
:102BC000D1FBFFE70D980B9988421AD3FFE70F98C6
:102BD0001099C8600E98C17A01231846884303AA49
:102BE000107010980E990A24095712781A4000F0B4
:102BF00011FB0C2804D1FFE7109901200874FFE7AE
:102C0000FFE711A900200870FFE711A8007812B0B3
:102C100010BD80B586B0049003910498002804D0BC
:102C2000FFE70398002804D1FFE705A904200870F6
:102C300026E0049800680068804702A900910020FF
:102C4000087004980068007B00F018FA019004985E
:102C50000399019A02F016FF01460098017000786E
:102C6000002809D0FFE7049802A90978FFF7FFFEC2
:102C7000049901200874FFE7029805A90870FFE78E
:102C800005A8007806B080BD80B586B00490039199
:102C90000498002804D0FFE70398002804D1FFE738
:102CA00005A90420087026E002A900910020087000
:102CB000049800680068804704980068007B00F072
:102CC000DDF9019004980399019A02F043FF01464F
:102CD000009801700078002809D0FFE7049802A945
:102CE0000978FFF7C4FE049901200874FFE70298F1
:102CF00005A90870FFE705A8007806B080BDD0B52B
:102D000002AF8CB06E46F21D0132726002467068EE
:102D10000262C161006A002806D0FFE77068006A9D
:102D20004068002805D1FFE7F11D25310420087017
:102D300087E07068006A807CC007002805D1FFE743
:102D4000F11D2531002008707BE07068016A496838
:102D50008161006AC068002809D1FFE77168C8690D
:102D60000A6AD06088698079096A4874FFE77068E8
:102D7000C169026AD268891A4161006A0068007BF1
:102D800000F07CF97168086108696A46CA6042000F
:102D9000D31D072293436A46D21A32609546886053
:102DA00000204860FFE7716848680969884220D2BE
:102DB000FFE77068816909684268895C006A006899
:102DC000C0894843FF21FDF72DFB726810605069F0
:102DD0009169898812680123FFF702FC72683168E3
:102DE000526852008852FFE771684868401C48608A
:102DF000D9E770683168006AFFF746FF7168486973
:102E000089698988884214D3FFE77168C8690A6AAA
:102E1000D060086A896906228956002200F0FAF912
:102E20000C2805D1FFE77068016A01200874FFE7EC
:102E3000FFE77068F21D253200211170C0688546D9
:102E4000FFE7F01D25300078FC1F013CA546D0BDF2
:102E5000D0B502AF8CB06E46F21D013272600246F0
:102E600070680262C161006A002806D0FFE77068DE
:102E7000006A4068002805D1FFE7F11D25310420D4
:102E8000087087E07068006A807CC007002805D160
:102E9000FFE7F11D2531002008707BE07068016AB2
:102EA00049688161006AC068002809D1FFE771683C
:102EB000C8690A6AD06088698079096A4874FFE73E
:102EC0007068C169026AD268891A4161006A006843
:102ED000007B00F0D3F87168086108696A46CA602F
:102EE0004200D31D072293436A46D21A32609546A8
:102EF000886000204860FFE7716848680969884277
:102F000020D2FFE77068816909684268895C006ABD
:102F10000068C0894843FF21FDF784FA7268106099
:102F200050699169898812680023FFF759FB72681C
:102F30003168526852008852FFE771684868401C47
:102F40004860D9E770683168006AFFF79DFE7168D4
:102F5000486989698988884214D3FFE77168C8691C
:102F60000A6AD060086A896906228956012200F03F
:102F700051F90C2805D1FFE77068016A0120087437
:102F8000FFE7FFE77068F21D253200211170C0686D
:102F90008546FFE7F01D25300078FC1F013CA54663
:102FA000D0BD80B586B0049003910498002805D068
:102FB000FFE704984068002804D1FFE705A9042032
:102FC000087057E00498406802900498807CC0071D
:102FD000002804D1FFE705A9002008704AE0049802
:102FE000C068002808D1FFE703980499C8600298D8
:102FF000007A04994874FFE703980499C968401A55
:10300000019002998888C98840186946088001980B
:1030100002998988884206D2FFE7049802990968D4
:10302000FFF7F7FD0AE0019869460988884204D253
:10303000FFE7049800F0EFFBFFE7FFE70198694620
:103040000988884212D3FFE703980499C86004985E
:10305000029908228956002200F0DCF80C2804D1DD
:10306000FFE7049901200874FFE7FFE705A90020A6
:103070000870FFE705A8007806B080BD83B0014660
:1030800001A8017000780090062828D800988100D7
:1030900001A040588746C046DD300008B530000822
:1030A000BD300008C5300008CD300008D53000081C
:1030B000DD30000802A90320087014E002A90320F3
:1030C000087010E002A9042008700CE002A9012099
:1030D000087008E002A90220087004E0FFE702A9D6
:1030E00000200870FFE702A8007803B0704780B5A1
:1030F00084B002900191684602700298002804D0C2
:10310000FFE70198002804D1FFE703A90420087015
:103110000AE00198029913316A461278FDF720F906
:1031200003A900200870FFE703A8007804B080BD61
:1031300010B58CB00A9009A80170089207A8037016
:103140000A98002809D0FFE70898002805D0FFE773
:1031500007A80078002804D1FFE70BA90420087015
:1031600054E009A80078009002280AD0FFE70098F0
:10317000C01E07280BD3FFE700980A3802281FD388
:103180003CE0089807A90978FDF747F93AE00A9862
:10319000069006980068059000200490FFE70498C8
:1031A00007A9097888420AD2FFE70598049A805C4B
:1031B00008998854FFE70498401C0490EFE721E049
:1031C0000A980390039800680068029001A9002003
:1031D0000880FFE701A8008807A9097888420CDA6F
:1031E000FFE7029801A90A88805C08998854FFE7E4
:1031F0000198401C01A90880ECE703E00BA9052019
:10320000087003E00BA900200870FFE70BA8007806
:103210000CB010BD80B584B0029001916846027078
:103220000198401C002807D0FFE70299487C401E07
:103230004874FFE7FFE7FFE7029811214056002896
:1032400015D1FFE702990020887402980C21FFF73E
:103250000EFC68460078C007002804D0FFE70298FB
:1032600000F0D9FAFFE703A90C20087003E003A9D6
:1032700000200870FFE703A8007804B080BD80B587
:1032800086B00490039102920498002804D1FFE7CD
:1032900005A90420087023E00398FFF729FA0146E6
:1032A00001A801700078002804D0FFE7019805A963
:1032B000087015E0039804990860049901200874C7
:1032C000049900204860049988740499C8600298A1
:1032D00004998860FFE7FFE705A900200870FFE771
:1032E00005A8007806B080BD81B00090009900204C
:1032F000887401B0704780B584B0029002980028AD
:1033000004D1FFE703A90420087027E00298807C1D
:10331000C007002804D1FFE703A9002008701DE0C2
:1033200002980C21FFF7A3FB02980146133101918B
:103330000068007BFFF7A2FE01460198FDF76DF8DB
:10334000029801461331FFF764FC0299002088744B
:10335000029A0121117403A90870FFE703A80078FD
:1033600004B080BDF0B503AF91B06E46F41D0D34CE
:10337000346104463069BD68C4628162426203629E
:10338000C06A0068007BFFF779FE3169F21D2932BF
:103390001070886A496AFDF745F808463169886106
:1033A0008A697D20C0005043496AFDF73BF8014619
:1033B0003069416140693049884205D3FFE731698E
:1033C0007D20C0004861FFE730694069FDF7E6F9FC
:1033D0002A49FDF7E1F801463069016101690846B3
:1033E00003F052FA3169C860F01D293000786A464E
:1033F0008A60C31D072293436A46D21AF26095463B
:103400004860F11D0D3100200870FFE7F01D0D3000
:103410000078F11D29310978884221DAFFE7306907
:10342000006AF11D0D310A787260815CB160B86884
:10343000805C401AFDF7AAF93169C96803F024FAE3
:10344000FDF75AF97268F1680346B068C0188854ED
:10345000FFE730690068401CF11D0D310870D5E7A9
:103460003069F168C06AFFF7D4FB3069806885462F
:10347000FC1F053CA546F0BDE903000000007A44AE
:10348000D0B502AF92B06E46F21D013272600246B4
:10349000706882634163806B002806D0FFE7706824
:1034A000806B4068002805D1FFE7F11D3D31042005
:1034B00008709EE07068806B807CC007002805D192
:1034C000FFE7F11D3D310020087092E07068816BCC
:1034D00049680163806BC068002809D1FFE7716803
:1034E000486B8A6BD060086B007B896B4874FFE780
:1034F0007168086B8088C862086BC0888862086B36
:1035000000894862086B40890862486B8A6BD26800
:10351000801AC861C86A8A6A80180A6A80184A6A6A
:1035200080188861C8698969FCF77CFF706841610F
:10353000806B0068007BFFF7A1FD71680861086976
:103540006A46CA604200D31D072293436A46D21AD4
:1035500032609546886000204860FFE771684868DF
:10356000096988421ED2FFE77068016B09684268EA
:10357000895C806B0068C0894843FF21FCF752FFDB
:10358000726810605069116B1268FFF754F8726826
:103590003168526852008852FFE771684868401CE1
:1035A0004860DBE770683168806BFFF76DFB71681E
:1035B000C8698969884214D3FFE77168486B8A6BD0
:1035C000D060886B096B0C2289560022FFF722FE1F
:1035D0000C2805D1FFE77068816B01200874FFE7B4
:1035E000FFE77068F21D3D3200211170C06885460A
:1035F000FFE7F01D3D300078FC1F013CA546D0BD23
:1036000084B002900191684602700298002804D1AB
:10361000FFE703A9042008700EE0009802990874DF
:10362000019802994860029900208874FFE7FFE73B
:1036300003A900200870FFE703A8007804B07047D2
:1036400086B0024604A8027003910078801E0090A4
:10365000092833D80098810001A040588746C04609
:10366000B536000889360008893600088936000812
:10367000A3360008B5360008B536000889360008BC
:10368000893600089136000805A90120087019E064
:10369000039802900298C07A0121084005A9087099
:1036A00010E0039801900198407A0121084005A993
:1036B000087007E005A90020087003E005A90020B4
:1036C0000870FFE705A8007806B0704780B586B09F
:1036D000049003910498002805D0FFE704984068FF
:1036E000002804D1FFE705A90420087047E00498EA
:1036F000406802900498807CC007002804D1FFE74E
:1037000005A9002008703AE00498C068002814D188
:10371000FFE703980499C860049802990968FFF7C5
:1037200078FA014601A801700078002804D0FFE76C
:10373000019805A9087022E0FFE703980499C96879
:10374000401A009002984068002814D0FFE70098C3
:103750000299496888420ED3FFE7049900208874D3
:10376000049800F058F804980C21FFF780F90499A8
:1037700001200874FFE705A900200870FFE705A8ED
:10378000007806B080BD80B582B001906946002007
:1037900008700198002804D1FFE7694604200870EA
:1037A000FFE701990120887401990020C860019801
:1037B0000B21FFF75CF9FFE7FFE76846007802B0EE
:1037C00080BD80B584B0039002A8017001A90020DB
:1037D00008700398002804D1FFE701A904200870AD
:1037E000FFE703980F21FFF742F902A80078C0070E
:1037F000002804D1FFE7039800F00DF8FFE70399D4
:1038000000208874039901200874FFE7FFE701A8EE
:10381000007804B080BD80B584B002900298002882
:1038200004D1FFE703A90420087017E0029800689C
:103830004068804702980146133101910068007B7F
:10384000FFF71CFC01460198FCF7E7FD02980146D2
:103850001331FFF7DEF903A90870FFE703A800782A
:1038600004B080BD80B588B00690059104A9002001
:103870000870544800680599884204D1FFE707A9F9
:103880000020087099E00698002804D1FFE707A9F6
:103890000420087091E00698017C00200129039023
:1038A0000DDBFFE70698017C0120002201920C2924
:1038B000029001DB0198029002980390FFE70398C1
:1038C000C007002804D1FFE707A90520087074E0AD
:1038D0000698007C401E00900A2866D80098810057
:1038E00001A040588746C046153900082139000814
:1038F0002D390008493900083B39000857390008BC
:103900008139000865390008733900088F390008CB
:103910009D3900080698FFF7E7FC04A9087045E008
:103920000698FFF7E8FC04A908703FE0069805999F
:10393000FFF7CCFE04A9087038E006980599FFF758
:1039400030FB04A9087031E006980599FEF773FF73
:1039500004A908702AE006980599FEF7CEFF04A98D
:10396000087023E006980599FFF7C9F904A90870C3
:103970001CE006980599FFF76BFA04A9087015E09A
:1039800006980599FFF77CFD04A908700EE00698DB
:103990000599FEF7E0FE04A9087007E0069805996E
:1039A000FFF778F804A9087000E0FFE705980549DB
:1039B0000860049807A90870FFE707A8007808B016
:1039C00080BDC0466C01002080B58AB009AA107085
:1039D00008A8017000780B380790042863D807986E
:1039E000810001A040588746FD3900081F3A0008B1
:1039F000633A0008853A0008413A0008FFE7394871
:103A000006903D4A01210902FCF768FC0698FCF784
:103A100085FC0146069802F045FDFFE75FE0FFE701
:103A200030480590334A01210902FCF757FC0598FC
:103A3000FCF774FC0146059802F034FDFFE74EE008
:103A4000FFE7284804902A4A01210902FCF746FCB6
:103A50000498FCF763FC0146049802F023FDFFE79D
:103A60003DE0FFE71F480390204A01210902FCF7CF
:103A700035FC0398FCF752FC0146039802F012FD56
:103A8000FFE72CE0FFE717480290174A01210902DF
:103A9000FCF724FC0298FCF741FC0146029802F076
:103AA00001FDFFE71BE008A80078012816DBFFE70F
:103AB00008A800780A2811DCFFE7FFE70948019011
:103AC0000E4A01210902FCF709FC0198FCF726FCCB
:103AD0000146019802F0E6FCFFE7FFE7FFE70AB0C6
:103AE00080BDC046CA020020346C00087F6C00080C
:103AF000F46B0008136C0008606C0008EC6C0008A4
:103B000080B586B001200290020305A904910A80C5
:103B10001022CA7088700920C006FEF759FC02996D
:103B2000049A91701820D0701948039001F0BAFEE1
:103B300003980D2106220192FEF7D2FC029A039807
:103B4000049952030A80FEF743FC0299039801F09E
:103B5000A9FE019A03980E21FEF7C2FC029A03986F
:103B6000049992030A80FEF733FC0299039801F04E
:103B700099FE019A03980F21FEF7B2FC029A03986E
:103B80000499D2030A80FEF723FC06B080BDC0462C
:103B90000008004880B582B00190019802F016FB41
:103BA000019970200870019901204870019A002144
:103BB0009170019A1172019A5172019A5181019A80
:103BC0009181019A516001998007009002F02CFACE
:103BD0000098019902F072FA0098019902F0B2FA85
:103BE00002B080BD80B58AB007A8019002F0A2FBA8
:103BF00001210291084601F025FE019902982F2229
:103C00000A80504A089200220A818A708A728007CC
:103C100002F02EFB03A8FFF7BDFF0AB080BDC0462F
:103C200080B582B0012101918807009002F0B6F9B9
:103C30000098019A002102F091F90098019A04215C
:103C400002F08CF90098019A082102F087F9009897
:103C5000019902F0B9F902B080BD80B582B00020B0
:103C6000019000F037F8019800F018F8019800F082
:103C70004DF8019901208007009002F08FF900981B
:103C8000019902F0A1F902B080BD80B5FFF7AAFF4B
:103C9000FFF736FFFFF7E1FF80BD000080B582B07F
:103CA000014601A801800088C0087D2803D3FFE7F2
:103CB0002448009003E001A800880090FFE70099E5
:103CC00001A8018001880120800702F0A8FA02B053
:103CD00080BDC04680B582B0014601A80180008841
:103CE000C0087D2803D3FFE71648009003E001A831
:103CF00000880090FFE7009901A801800188012059
:103D0000800702F078FA02B080BDC04680B582B06C
:103D1000014601A801800088C0087D2803D3FFE781
:103D20000848009003E001A800880090FFE7009990
:103D300001A8018001880120800702F084FA02B006
:103D400080BDC046E703000080B582B001906846A0
:103D50000170019840688068002808D0FFE701984A
:103D600040688268007C694609789047FFE702B0A6
:103D700080BDB0B586B004460A980494039102A9A8
:103D80000A7001A90B70694608800498002804D1C4
:103D9000FFE705A90420087036E0049840684068F1
:103DA0000399884213D1FFE704984068007C02A978
:103DB000097888420BD1FFE704984068807CC007EF
:103DC000002804D0FFE705A9002008701CE0049833
:103DD000407D012814D1FFE7039804998860029878
:103DE0000499C87401980499087500980499088288
:103DF0000498022100F073F905A90020087003E07F
:103E000005A909200870FFE705A8007806B0B0BD35
:103E100080B586B00292024602980592049103AAE8
:103E2000107005980499127800230093FFF7A1FF02
:103E300006B080BD80B584B0029000200190FFE7FD
:103E400001980299897C88422CD2FFE70298006889
:103E5000019A0C2151434018009000980068029983
:103E600049684968884218D1FFE70098406802997C
:103E70008968884211D1FFE70098007A0299087595
:103E80000099087A498900F03DF902990882FFE714
:103E9000FFE703A90120087008E0FFE70198401C34
:103EA0000190CDE703A900200870FFE703A8007880
:103EB00004B080BD82B000900098C07C012816DB61
:103EC000FFE70098C07C0B2811DCFFE70098007D1D
:103ED00001280BDBFFE70098007D042806DCFFE7E4
:103EE000FFE7FFE701A90120087004E0FFE701A94F
:103EF00000200870FFE701A8007802B0704780B585
:103F000086B00590059840680068007BFFF7B6F81A
:103F10000490FFE7FFE705994868163104AA00926C
:103F20001278FFF7E4F8009B059A9068D17C1A326A
:103F30001B78FFF7FDF80599C87C8968FFF780FBBF
:103F4000014603A801700078C007002819D1FFE7D7
:103F5000FFE7FFE702A900200870FFE702A800784A
:103F6000049988420CD2FFE7059802A90978411804
:103F700000208876FFE70298401C02A90870EDE750
:103F8000FFE701A900200870FFE701A80078049965
:103F9000884208D2FFE7FFE7FFE7FFE70198401CF0
:103FA00001A90870F1E7059840680068006880473B
:103FB00006B080BD83B0019000910198002804D024
:103FC000FFE70098002804D1FFE702A90420087049
:103FD00016E0019900200860019988740099019AFF
:103FE0005160019A01215175019988600199C87445
:103FF00001990875FFE7FFE702A900200870FFE7B5
:1040000002A8007803B0704781B000900098407D0E
:10401000401E411E884101B07047D0B502AF88B044
:104020006E46F11D0931F1600146F068C160C0685B
:1040300040680068007BFFF721F80146F068F21D38
:10404000113272601170137869464160DC1D0721DE
:104050008C436946091BB1608D460360C0684068A7
:104060001278FFF744F87168B0680978FDF7A5FE8B
:10407000F16849688D46FC1F013CA546D0BD81B062
:104080000090FFE7FFE70099022008750099C8201B
:10409000088201B0704784B00290019100920298AA
:1040A000002808D0FFE70198002804D0FFE7009817
:1040B000002804D1FFE703A9042008700BE0019851
:1040C00002990860009802998874FFE7FFE703A946
:1040D00000200870FFE703A8007804B0704782B0A2
:1040E0000190684601700078012809DBFFE7684607
:1040F0000078042804DCFFE7009801994875FFE781
:1041000002B0704787B0024605A8027004AA118069
:104110000078401E0390032841D80398810001A035
:1041200040588746354100083D4100085D41000880
:104130007D41000806A90020088034E004A800881A
:10414000002803D1FFE7C820029003E004A80088FC
:104150000290FFE7029806A9088024E004A80088DE
:10416000002803D1FFE71248019003E004A800886B
:104170000190FFE7019806A9088014E004A80088D0
:10418000002804D1FFE77D200001009003E004A88F
:1041900000880090FFE7009806A9088003E006A9C0
:1041A00000200880FFE706A8008807B07047C046D7
:1041B0008813000080B582B0019001980E21FFF7AE
:1041C000C3FD019A50689168D27CFFF719FA0198F3
:1041D0004068FFF7D8FA01990020009088600199A3
:1041E000C8740199087501980121FFF778FF0098BC
:1041F00002B080BD81B00090002001B07047000087
:10420000D0B502AF8AB06E46F21D0932B2600246E6
:10421000B0684261016101694269D268891AC1606E
:104220004069007D401EF060032800D996E0F068E8
:10423000810001A0405887464942000859420008C1
:1042400095420008D7420008FFE7FFE7B0684069E1
:104250000421FFF744FF84E0B168C8684969098A0E
:10426000884208D3FFE7FFE7FFE7B0684069042111
:10427000FFF735FF0DE0B1684C696068C968228AB4
:10428000234616331A3482B00094FFF76BF802B05D
:10429000FFE766E0B168C8684969098A884208D9B9
:1042A000FFE7FFE7FFE7B06840690421FFF717FF6A
:1042B00010E0B06840694068807CC007002808D1E1
:1042C000FFE7FFE7FFE7B06840690421FFF707FF5A
:1042D000FFE7FFE745E0B068406940680068007BA1
:1042E000FEF7CCFE0146B068F21D1132326011704B
:1042F000137869464160DC1D07218C436946091B20
:1043000071608D460360406940681278FEF7EFFEE9
:10431000316870680978FDF750FD002809D0FFE783
:10432000FFE7FFE7FFE7B06840690421FFF7D7FE2A
:1043300010E0B168C8684969098A884209D9FFE76D
:10434000FFE7FFE7FFE7B06840690421FFF7C7FE1A
:10435000FFE7FFE7B0684068854602E0FFE7FFE758
:10436000FFE70020FC1F013CA546D0BD80B584B00E
:10437000039002910398FFF79DFD014601A801708B
:104380000078C007002810D1FFE70398FFF752FD1F
:104390000146684601700078C007002804D1FFE795
:1043A0000398FFF76CFEFFE7FFE70398007D022804
:1043B00004D1FFE70398FFF7A2FDFFE702980399F6
:1043C000C86003980D21FFF7BFFC03980321FFF796
:1043D00086FE002004B080BD80B584B002900298B3
:1043E000407D012804D1FFE703A9012008700DE0FA
:1043F0000298406801210191FFF7E3F901990298C1
:10440000FFF76DFE019803A90870FFE703A8007885
:1044100004B080BD10B586B00193034601980593A2
:10442000049103AB1A7002AA1080059804991B78B6
:10443000128800920522FFF79CFC06B010BD80B5E3
:1044400086B0029202460298059204AA117003A94E
:104450000880059813780988009100210222FFF74F
:1044600088FC06B080BD10B586B001930346019864
:104470000593049103AB1A7002AA10800598049961
:104480001B78128800920322FFF773FC06B010BD60
:1044900080B584B0029001910298002804D1FFE712
:1044A00003A90420087035E00298407D401E00906A
:1044B00003281FD80098810001A040588746C046B5
:1044C000D1440008D9440008E3440008ED44000842
:1044D0000298FFF78FFE0EE002980199FFF746FF62
:1044E00009E002980199FFF78BFE04E00298FFF7BC
:1044F00061FE00E0FFE70298007D022806D0FFE79A
:10450000029840680199FFF7ADF9FFE703A9002081
:104510000870FFE703A8007804B080BD7047000072
:10452000014800787047C046C50000200F48007859
:104530007047C04602480078012108407047C046D5
:10454000C400002002480078012108407047C0469E
:10455000C600002002480078012108407047C0468C
:10456000C90100200149002008707047CB030020DA
:1045700081B06946087001B07047012070477047EC
:104580003849088820221043088070473549088838
:1045900001221043088070473249088840221043A6
:1045A000088070472F49088802221043088070470E
:1045B0002C490888802210430880704729490888C0
:1045C00004221043088070472649088801221202FD
:1045D000104308807047C0462249088808221043CB
:1045E000088070471F490888012252021043088042
:1045F0007047C0461B490888102210430880704746
:1046000080B582B0FFF792FF6946087012480078C3
:10461000C007002806D0FFE700980121084369463B
:104620000870FFE76846007800F01EF80146B248BF
:10463000417411214056401C002804D0FFE701A915
:104640000120087003E001A900200870FFE701A81D
:10465000007802B080BDC04644010020014900201E
:1046600008807047BC01002084B0014602A8017098
:1046700001AA002111700078002804D1FFE703A9E6
:10468000FF20087023E0694601200870FFE76846B4
:104690000078802816DCFFE702A8007869460978D0
:1046A000084204D0FFE7019803A908700FE00198C1
:1046B000401C01A90870FFE7FFE700984000694629
:1046C0000870E4E7FFE703A9FF200870FFE7002177
:1046D00003A8405604B0704780B58EB08649099152
:1046E00000200A90087485480290FDF7E9FB0298C3
:1046F0003449FDF7F1FB02983349FDF7E5FB8048AB
:104700000390FDF7DDFB03983049FDF7E5FB0398C7
:104710002F49FDF7D9FB7B480490FDF7D1FB0498A6
:104720002C49FDF7D9FB04982B49FDF7CDFB7648C2
:104730000590FDF7C5FB05982849FDF7CDFB0598C9
:104740002749FDF7C1FB71480690FDF7B9FB0698B4
:104750002449FDF7C1FB06982349FDF7B5FB234823
:1047600007902349234AFEF78AFD079922480890BB
:10477000FFF720FC089821490322FFF78CFC0999D8
:104780000A980BAA10700B7853701D4B0C93107283
:104790000D9888600C9848600B9808600120087498
:1047A000FFE718480190184A01210902FBF796FD1E
:1047B0000198FBF7B3FD0146019801F073FEFFE796
:1047C0000EB080BD8D45000881450008A545000854
:1047D00099450008BD450008B1450008D9450008C5
:1047E000C9450008F5450008E545000870010020AE
:1047F000BC6A0008C93900084C010020986A00080A
:1048000088130000CA020020D56B00087047000022
:1048100080B588B007A90020087006A9087005A90E
:10482000087004A9087003A90870F048807C401E35
:1048300002900F2838D80298810001A0405887467E
:104840008148000889480008A948000891480008E4
:10485000A9480008A9480008A94800089948000884
:10486000A9480008A9480008A9480008A948000864
:10487000A9480008A9480008A9480008A14800085C
:1048800007A90120087010E006A9012008700CE0BB
:1048900005A90120087008E004A90120087004E0BF
:1048A00003A90120087000E0FFE707A801780120B4
:1048B000019001401148FDF717FB019806A90978FE
:1048C00001400F48FDF710FB019805A90978014048
:1048D0000C48FDF709FB019804A9097801400A4832
:1048E000FDF702FB019803A9097801400748FDF78D
:1048F000FBFA08B080BDC0469001002004000020F3
:10490000280000204C0000207000002094000020AF
:104910007047000080B582B0FFF70CFE002800D180
:1049200024E1FFF717FE002800D1BFE095490120E0
:10493000087097490870924800780190002808D0C4
:10494000FFE70198012827D0FFE7019802284DD002
:10495000AAE094480078C00700280DD0FFE78848F7
:104960000222027090498D48088088488F494B2365
:104970009B00FFF778FD0EE082480078C007002812
:1049800008D0FFE77E4901200870FE48407F00F014
:1049900023FEFFE7FFE788E0FA48407F00F01CFEB7
:1049A00080480078C00700280DD0FFE77448022235
:1049B00002707D497948088074487C494B239B00EC
:1049C000FFF751FD11E06F480078C007002801D0C3
:1049D000FFE709E06A49002008706C484B218A0013
:1049E0000221FFF72CFDFFE7FFE75EE06D4800784E
:1049F000C00700284FD0FFE7E2480078022801D125
:104A0000FFE747E060480078C007002828D0FFE7AC
:104A100060480078C00700280BD1FFE7D948407FE5
:104A200000F026FE5C495D4808805A490120087064
:104A3000FFE759480088012805DBFFE75649088849
:104A4000401E08800BE051484B218A000221FFF7ED
:104A5000F6FC4D490020087053490880FFE718E034
:104A600051480088012805DBFFE74F490888401EB0
:104A700008800DE04548FFF7D0FA002807D1FFE78E
:104A800042484B218A000221FFF7D9FCFFE7FFE7EC
:104A9000FFE7FFE707E0BB48407F00F09DFD384996
:104AA00001200870FFE700E0FFE75EE034490020E6
:104AB00008703449087034480078C007002834D0A2
:104AC000FFE734480078C00700280BD1FFE7AD4866
:104AD000407F00F0CDFD3049304808802D4901204D
:104AE0000870FFE72C480088012805DBFFE72A490A
:104AF0000888401E088017E0A2480078022808D1E4
:104B0000FFE7224826494B2293000222FFF7ABFC25
:104B100006E01E484B218A000221FFF790FCFFE7C8
:104B2000194900200870FFE71EE096480078022827
:104B30000BD1FFE716480078C007002804D0FFE734
:104B4000134900200870FFE70DE01048FFF765FAF1
:104B5000002807D1FFE70D484B218A000221FFF70B
:104B60006EFCFFE7FFE7FFE7FFE707E08548007817
:104B7000022801D1FFE700E0FFE7FFE702B080BDB8
:104B80004201002040010020B00100204C01002023
:104B9000BC000020B1010020B2010020B80B0000D1
:104BA000346B0008430100203E010020146B000814
:104BB00080B57448007CC007002801D1FFE714E0ED
:104BC00000F022FE00F0E6F8FFF7A4FEFFF7A0FEDB
:104BD00000F0E4FC6B484068002805D0FFE7694915
:104BE0004868401E4860FFE7FFE780BD9001002055
:104BF00084B003A908706348407D0290002804D067
:104C0000FFE70298012839D0B6E003A800780190A8
:104C1000032831D80198810001A040588746C0463A
:104C2000314C0008434C0008554C0008674C000804
:104C3000FFE7FFE7FFE7FFE7FFE7FFE7FFE7FFE744
:104C40001BE0FFE7FFE7FFE7FFE7FFE7FFE7FFE71F
:104C5000FFE712E0FFE7FFE7FFE7FFE7FFE7FFE718
:104C6000FFE7FFE709E0FFE7FFE7FFE7FFE7FFE711
:104C7000FFE7FFE7FFE700E0FFE77EE0424800884C
:104C8000012805DBFFE740490888401E088012E044
:104C90003E4802780121914301700078C007002846
:104CA00004D0FFE738493A48088003E03649FA2043
:104CB0000880FFE7FFE703A800780090032859D891
:104CC0000098810001A040588746C046DD4C00088E
:104CD000034D0008294D00084F4D00082B4800786F
:104CE000C007002803D0FFE7FFE7FFE702E0FFE788
:104CF000FFE7FFE7FFE7FFE7FFE7FFE7FFE7FFE784
:104D000039E0FFE7FFE721480078C007002803D01B
:104D1000FFE7FFE7FFE702E0FFE7FFE7FFE7FFE767
:104D2000FFE7FFE7FFE726E0FFE7FFE7FFE7FFE733
:104D300016480078C007002803D0FFE7FFE7FFE729
:104D400002E0FFE7FFE7FFE7FFE7FFE713E0FFE72A
:104D5000FFE7FFE7FFE7FFE7FFE70C480078C00742
:104D6000002803D0FFE7FFE7FFE702E0FFE7FFE7E8
:104D7000FFE700E0FFE700E0FFE70398014908775D
:104D800004B0704790010020460100204801002037
:104D9000EE02000080B5B4B000F004FD33A9088035
:104DA000FFF7D0FB002825D0FFE7FFF7B9FB01464E
:104DB0001E48017000214056642804D1FFE71C49B9
:104DC0000120087003E01A4900200870FFE7002165
:104DD00016484056002804D1FFE716490120087004
:104DE00003E0144900200870FFE71048007800F045
:104DF00099FC03E00D49FF200870FFE70E4800789A
:104E00000F90052800D9ABE30F98810001A040580E
:104E10008746C0463D4E000835500008DD5000086A
:104E200001540008655400081155000800000020D6
:104E3000430100204101002090010020FC48007A3D
:104E4000C007002877D1FFE7FFF799FBF8490E91DB
:104E5000FF204874FFF762FB0E9901200872FFE7FC
:104E6000FFE7FFE7FFE7FFE7FFE7FFE7FFE7F149BE
:104E700000200870F0490880ED4948750875EF4931
:104E8000EF480880FFF756FB00283CD0FFE7FFF70C
:104E900061FB00281FD0FFE7EA480078C007002820
:104EA00017D0FFE7FFE7E8480D90E84A0121090223
:104EB000FBF714FA0D98FBF731FA01460D9801F053
:104EC000F1FAFFE7E2484B218A000221FFF7B7FA27
:104ED00000E0FFE716E0FFE7DB480C90DD4A012128
:104EE0000902FBF7FBF90C98FBF718FA01460C983E
:104EF00001F0D8FAFFE7D6484B218A000221FFF7DC
:104F00009EFAFFE716E0FFE7CF480B90D24A012157
:104F10000902FBF7E3F90B98FBF700FA01460B983F
:104F200001F0C0FAFFE7CA484B218A000221FFF7CF
:104F300086FAFFE7FFE733A8008800285CD0FFE788
:104F4000BB49C648486033A80088202820D1FFE725
:104F5000FFE7BD480A90C24A01210902FBF7BEF9EA
:104F60000A98FBF7DBF901460A9801F09BFAFFE784
:104F700030AA01201070AE4908785070002031909E
:104F80001072329888603198486030980860E8E282
:104F900033A8008801282DD1FFE7FFE7AA48099030
:104FA000B04A01210902FBF799F90998FBF7B6F914
:104FB0000146099801F076FAFFE7FFF7BBFA0028EF
:104FC00017D0FFE7A84901200870A8490020087001
:104FD000FFE79D480890A64A01210902FBF77EF9E8
:104FE0000898FBF79BF90146089801F05BFAFFE788
:104FF000FFE7FFE7FFE71CE08D484068002817D176
:10500000FFE7FFF7A7FA002812D1FFE7FFF726FB1B
:105010002DAA0320107086490878507000202E9029
:1050200010722F9888602E9848602D98086098E23A
:10503000FFE796E2FFE7844807908E4A01210902C4
:10504000FBF74CF90798FBF769F90146079801F05F
:1050500029FAFFE7FFF791FA00283DD0FFE78249E0
:10506000002008707A48FEF7D8FF002822D0FFE71A
:10507000FFF770FA002814D0FFE772480078C007E5
:10508000002808D0FFE772487B494B229300022298
:10509000FFF7E9F904E06648407F00F09DFAFFE77A
:1050A00007E06B4875494B2293000222FFF7DBF9BA
:1050B000FFE700E0FFE72AAA022010705C490878A9
:1050C00050706F482B90002010722C9888602B989D
:1050D00048602A98086000E0FFE742E2FFE75A488C
:1050E0000690684A01210902FBF7F8F80698FBF7D9
:1050F00015F90146069801F0D5F9FFE729A9002026
:1051000008704B48007AC007002809D1FFE75E49C4
:1051100000200870464901220A72C8740877FFE728
:10512000FFF708FA002832D0FFE758480078C00798
:1051300000282BD0FFE7FFF722FA53480078C0077A
:10514000002807D1FFE75049012008705049514815
:1051500008601AE04E480068002805D0FFE74C4977
:105160000868401E08600FE025AA00201070FE4964
:105170000B785370394B26931072279888602698C5
:10518000486025980860FFE7FFE7FFE7FFE7FFF7C4
:1051900037FA002812D0FFE7FFF760FA22AA0420AE
:1051A0001070F149087850700020239010722498F4
:1051B00088602398486022980860D2E133A800886C
:1051C000002805D1FFE7FFF7C5F9002804D0FFE765
:1051D000E549EE484860FFE733A80088202805D05D
:1051E000FFE7E1484068002818D1FFE733A80088AE
:1051F000202801D1FFE7FFE7FFF7C1F91FAA002030
:105200001070D9490B785370DA4B209310722198A3
:105210008860209848601F980860ABE033A8008839
:10522000012841D1FFE7FFF785F900283BD033E0A3
:105230009001002048010020460100203E0100208E
:10524000B80B000043010020CA020020506D000886
:105250004C0100207E6D0008AC6D00088813000032
:10526000BF6C0008096D0008B0010020B1010020EA
:10527000346D0008FF6C0008146B0008346B0008E4
:1052800080EE3600DB6C00083C010020410100206C
:105290003801002010270000BD4901200870BD49D9
:1052A00000200870FFE764E033A80088022804D1DA
:1052B000FFE7AD490020C8745AE033A800884028B1
:1052C00008D1FFE7A8490020C874487D42425041F8
:1052D00008754CE033A80088042804D1FFE7A249F0
:1052E0000120C87442E033A80088802808D1FFE775
:1052F0009D490120C874487D42425041087534E000
:1053000033A80088082804D1FFE797490220C87411
:105310002AE033A8008801210902884208D1FFE76A
:1053200091490220C874487D4242504108751AE0F4
:1053300033A80088102804D1FFE78B490320C874E4
:1053400010E033A8008801214902884208D1FFE714
:1053500085490320C874487D42425041087500E0E9
:10536000FFE7FFE7FFE7FFE7FFE7FFE7FFE7FFE70D
:10537000FFE7FFE77C480490C07CFFF739FC049806
:10538000C07CFFF7F5F80498407D0590002804D014
:10539000FFE7059801280CD030E07348007D012814
:1053A00006D1FFE77049012048757B488861FFE717
:1053B00025E06D48806900280DD0FFE7F848816935
:1053C000491E8161007D002804D1FFE7F4490020D7
:1053D0004875FFE711E0FFF7D2F81CAA0020107013
:1053E000EF490B785370634B1D9310721E988860C1
:1053F0001D9848601C98086001E000E0FFE7B0E0FD
:10540000FFE75A4803905F4A01210902FAF766FF55
:105410000398FAF783FF0146039801F043F8FFE78A
:10542000FFF798F8002810D0FFE719AA00201070A5
:10543000DB490B7853704F4B1A9310721B9888609E
:105440001A984860199808600BE04F480078C00728
:10545000002801D0FFE703E04B4901200870FFE777
:10546000FFE77EE0FFE741480290434A012109023D
:10547000FAF734FF0298FAF751FF0146029801F05B
:1054800011F8FFE7C648007AC00700282DD1FFE7D2
:10549000C34811214056401C002812D0FFE79C4809
:1054A000FEF7B2FD002804D0FFE79948FEF794FF0D
:1054B000FFE7974831494B2293000222FEF7AAFFEB
:1054C0000FE016AA05201070B5490878507000202A
:1054D000179010721898886017984860169808609E
:1054E000FFE7AF4901200872FFE7FFF717F813AA9B
:1054F00005201070AA4908785070214814900020A7
:10550000107215988860149848601398086028E015
:10551000FFE716480190164A01210902FAF7DEFE5C
:105520000198FAF7FBFE0146019800F0BBFFFFE788
:105530009B484068002812D1FFE7FFF713F810AA34
:105540000020107096490B7853700A4B119310721B
:10555000129888601198486010980860FFE700E092
:10556000FFE734B080BDC04690010020CA02002091
:10557000A96C000888130000266D0008D86A00088E
:10558000B80B0000E26C0008B401002080EE360089
:10559000B0010020B1010020C027090080B582B011
:1055A0000B490878401C0870C0B201280EDBFFE7E9
:1055B0000848019001685648FEF76AFF0199044ABD
:1055C000002010700868401C0860FFE702B080BD32
:1055D000880100208C01002080B582B001A90870EC
:1055E0004A4800780978884236D0FFE701A8007859
:1055F000401E0090042827D80098810001A0405840
:105600008746C04619560008195600082556000856
:10561000315600083D5600083D4814490722FEF760
:10562000F7FB18E03A4810490722FEF7F1FB12E0B9
:1056300037480C490722FEF7EBFB0CE034483549AC
:105640000322FEF7E5FB06E031484B218A000221E8
:10565000FEF7F5FEFFE700E0FFE701982B49087031
:1056600002B080BDE46A0008046B0008F46A000818
:1056700080B582B001A90870244800780978884272
:105680003ED0FFE701A80078401E009004282FD8E4
:105690000098810001A040588746C046B1560008D6
:1056A000C1560008D1560008E1560008E15600082E
:1056B00017481B494B2293000222FEF7ABFE1EE067
:1056C000134816494B2293000222FEF7CCFE16E047
:1056D0000F4811494B2293000222FEF7C4FE0EE050
:1056E0000B480C494B2293000222FEF7BCFE06E059
:1056F00007484B218A000221FEF7A1FEFFE700E0E8
:10570000FFE701980149087002B080BDBB0000208E
:105710004C0100201C6B00082C6B0008246B000857
:10572000CC6A000882B0014601A801700078002808
:1057300004D1FFE76946002008702BE001A800783B
:10574000092804D8FFE769460120087021E001A874
:105750000078182804D8FFE769460220087017E08F
:1057600001A80078312804D8FFE7694603200870B3
:105770000DE001A80078622804D8FFE769460420FC
:10578000087003E0694605200870FFE7FFE7FFE7C0
:10579000FFE7FFE700980249487702B07047C0462C
:1057A0009001002082B017480088002822D0FFE72F
:1057B000694601200880FFE7684600880121C90387
:1057C000884216DCFFE70F480088694609880842CE
:1057D00009D0FFE7009A0B49088890430880009899
:1057E00001A908800AE0FFE70098400069460880A8
:1057F000E2E7FFE701A900200880FFE701A8008891
:1058000002B07047BC01002080B582B0FFF700F8FD
:10581000FEF7FCFF02B080BD82B0019068460170C7
:105820000078002806D0FFE7019A5849086810431D
:10583000086005E0019A5549086890430860FFE751
:1058400002B0704782B0019068460170007800286D
:1058500006D0FFE7019A064908681043086005E092
:10586000019A0349086890430860FFE702B0704757
:105870001C10024082B00190684601700078002838
:1058800006D0FFE7019A064908681043086005E062
:10589000019A0349086890430860FFE702B0704727
:1058A0001810024083B0029001A801700298009085
:1058B0000921C90688420FD0FFE700983049884285
:1058C0001ED0FFE700982F4988422DD0FFE70098AF
:1058D0002D4988423CD04FE001A80078002807D02D
:1058E000FFE72A490868012252041043086006E0D5
:1058F000264908680122520490430860FFE73CE013
:1059000001A80078002807D0FFE720490868012295
:1059100092041043086006E01C49086801229204C2
:1059200090430860FFE728E001A80078002807D02E
:10593000FFE7164908680122D2041043086006E018
:10594000124908680122D20490430860FFE714E07E
:1059500001A80078002807D0FFE70C490868012259
:1059600012051043086006E0084908680122120584
:1059700090430860FFE700E0FFE703B07047C046D0
:105980000004004800080048000C004814100240C1
:1059900080B500F027F837490968C9B20A091049EB
:1059A000895CC84080BDC04680B5FFF7F1FF314932
:1059B00009680722120211400A0A0949895CC84095
:1059C00080BDC04680B5FFF7E3FF2A49096807227A
:1059D000D2021140CA0A0249895CC84080BDC04653
:1059E000C700002080B588B0224800680C2108401C
:1059F0000390042804D0FFE70398082803D032E07E
:105A00001E48079032E01C480068C00700280ED0EE
:105A1000FFE71948006881071948184A01920029D0
:105A2000029001D4019802900298009002E013487D
:105A30000090FFE7009806900F480168FF221204CB
:105A40001140090C491C0591006807210902084012
:105A5000000A401C04900699059848430499FAF7F7
:105A6000E1FC079002E0F5480790FFE7079808B0CF
:105A700080BDC046041002405010024000127A005F
:105A800000093D0080B588B0069005910492069803
:105A9000006880680390069800280DD0FFE70698FC
:105AA0000068002808D0FFE70398002804D0FFE72B
:105AB0000598002804D1FFE707A90420087045E0F5
:105AC0000498052804D3FFE707A9072008703DE0E4
:105AD00000200290FFE702980499884232D2FFE743
